:020000042000DA
:1000000080E0012081020020EB4E002027450020E7
:10001000E94E0020FF0B0020795C0020000000006A
:10002000000000000000000000000000C1010020EE
:10003000E1170020000000001D020020B95600203A
:100040009B0200209B0200209B0200209B020020BC
:10005000951800209B0200209B0200209B0200209C
:100060009B0200209B0200209B0200209B0200209C
:100070009B0200209B0200209B0200209B0200208C
:100080009B0200209B0200209B0200209B0200207C
:100090009B0200209B0200209B0200209B0200206C
:1000A0009B0200209B020020A55700209B020020FD
:1000B0009B0200209B0200209B0200209B0200204C
:1000C0009B0200209B0200209B0200209B0200203C
:1000D0009B020020CD5B00209B0200209B020020A1
:1000E000E31700209B0200209B0200209B020020BF
:1000F0009B0200209B0200209B0200209B0200200C
:100100009B0200209B0200209B0200209B020020FB
:100110009B0200209B0200209B0200209B020020EB
:100120009B0200209B020020311700209B02002030
:100130009B0200209B0200209B0200209B020020CB
:100140009B0200209B0200209B0200209B020020BB
:100150009B0200209B0200209B0200209B020020AB
:100160009B0200209B0200209B0200209B0200209B
:100170009B0200209B0200209B0200200000000048
:100180009B0200209B0200209B0200209B0200207B
:100190009B0200209B0200209B0200209B0200206B
:1001A00000000000000000009B020020DFF80CD0DF
:1001B00000F036FC004800476969002080E001201B
:1001C0002C4B19680868B0E8F04F80F30988BFF33A
:1001D0006F8F4FF0000080F311887047000000001F
:1001E00008480068006880F308884FF0000080F33A
:1001F000148862B661B6BFF34F8FBFF36F8F00DF15
:1002000000BF00BF08ED00E0DFF80C00016841F41A
:1002100070010160704700BF88ED00E0EFF30980D6
:10022000BFF36F8F134B1A681EF0100F08BF20ED3D
:10023000108A20E9F04F106009B44FF0500080F3AD
:100240001188BFF34F8FBFF36F8F07F0AFFE4FF0F2
:10025000000080F3118809BC19680868B0E8F04F05
:100260001EF0100F08BFB0EC108A80F30988BFF3AE
:100270006F8F704764850120EFF3058070470000A1
:100280000648804706480047FEE7FEE7FEE7FEE730
:10029000FEE7FEE7FEE7FEE7FEE7FEE78D570020FC
:1002A000AD0100202DE9F05F0546002092469B46F7
:1002B00088460646814640241BE02846414647467C
:1002C000224600F0DAFA53465A46C01A914110D33A
:1002D00011461846224600F0C1FA2D1A67EB0108B4
:1002E0004F4622460120002100F0B8FA17EB000922
:1002F0004E41201EA4F10104DFDC484631462A4667
:100300004346BDE8F09F40EA01039B0703D009E0A4
:1003100008C9121F08C0042AFAD203E011F8013BF1
:1003200000F8013B521EF9D27047D2B201E000F84A
:10033000012B491EFBD270470022F6E710B5134689
:100340000A4604461946FFF7F0FF204610BD10B5D7
:10035000044604E00B7800F8013B03B1491C521E2F
:10036000F8D2204610BD10B5002200E0521C835C7C
:100370008C5CA34201D1002BF8D1D8B2E1B2401A73
:1003800010BD30B505460020034600E05B1C9342DB
:1003900005D2EC5CC85C201A01D1002CF6D130BD2E
:1003A0002DE9F05F93460F4680460446002605F08F
:1003B00089FCD0F80090824614F8015B2DB100F062
:1003C0007FFA0068405DC007F6D12B2D02D02D2D9D
:1003D0001AD0641E0021CAF800105A463946204639
:1003E00000F072FA014627B13868A04201D1C7F87F
:1003F0000080DAF80000022809D0CAF800907005E1
:1004000005D54842BDE8F09F46F48066E2E708461D
:10041000F8E72DE9FE4F804681EA0300C00F0C4645
:10042000009021F0004123F00045B8EB0200A94103
:1004300005D24046214690461C460B46024623F014
:100440000040104347D0270DC7F30A00C3F30A51F9
:100450000290401A019040286BDAC3F3130040F475
:10046000801B0098924620B10023D2EB030A63EB75
:100470000B0B01985946C0F14002504600F0EEF9CE
:1004800006460D4650465946019A00F006FA10EB12
:1004900008006141002487EA115284EAE7731A4395
:1004A00040D0009A62B3019A012A4FEA075215DC44
:1004B000001B61EB02014FF0004202EA0752CDE956
:1004C0000042001C41F5801132462B4600F05AFADA
:1004D00003B0BDE8F08F40462146F9E7001B61EB11
:1004E0000201001C41F5801300185B412018A2F5A1
:1004F000001747EB030140EAD570B6196D4111E0D2
:100500006D084FEA360645EAC0754FEA0752001BF0
:1005100061EB0201001C41F5801149084FEA3000EF
:100520000019514132462B4603B0BDE8F04F00F0B0
:100530001ABA0098012240000023D0EB020263EBBC
:10054000E073009821464FEAE074B8EB000061EBDD
:100550000401E9E783F000435BE781F0004158E7DD
:100560002DE9FE4F81EA030404F0004421F000412C
:1005700000944FF0000B23F0004350EA01045ED0DA
:1005800052EA03045BD0C3F30A54C1F30A552C4466
:10059000A4F2F3340194A0FB0254C1F3130141F41B
:1005A0008011C3F3130343F4801301FB024400FBE7
:1005B000034E840A970A44EA815447EA8357A4FB0E
:1005C000076802958D0A05FB07854FEA932C04FB0B
:1005D0000C542705029D4FEA065847EA1637B5EB3B
:1005E00008056EEB070C870E920E47EA811742EA68
:1005F0008312A7FB0201B6EB0B0164EB00042B0D89
:1006000043EA0C335E1844EB1C50DA465146E7FBD4
:100610000201C5F313044FEA0B3343EA14534FEAC4
:100620000432019C43EA0603A4F10C040294009CEA
:10063000CDE900B400F0A6F903B0BDE8F08F0020CA
:100640000146F9E72DE9F04D81EA030404F0004B7F
:1006500021F0004514464FF0000A23F0004150EA13
:10066000050220D054EA01021DD0C5F30A57024604
:10067000C5F31303C1F31300C1F30A5640F4801508
:1006800043F48013A7EB0608101BD64608F2FD388A
:1006900073EB050002D308F1010801E092185B41F9
:1006A000B8F1000F03DA00200146BDE8F08D00200C
:1006B0004FF48011064684460EE0171B73EB0507C6
:1006C00005D3121B63EB050306434CEA010C4908F2
:1006D0004FEA300092185B4150EA0107EDD152EA2F
:1006E000030012D082EA040083EA0501084305D022
:1006F000101BAB4106D20122002306E000224FF07E
:10070000004302E06FF0010253101AEB06004CEBBD
:10071000085110EB0A0041EB0B01BDE8F04D00F071
:1007200022B90EB5C10F80EAE0700844CA07002163
:1007300040F233438DE80E000A460B4600F022F9E2
:1007400003B000BD0EB540F2334102910021CDE966
:1007500000110A460B4600F015F903B000BD70B554
:10076000C1F30A5201F000450024C1F3130140F225
:10077000FF3341F480119A4201DA002070BD40F24B
:1007800033439A42A2F2334203DC524200F075F83E
:1007900000E090402C43F1D0404270BDC1F30A52BA
:1007A00010B5C1F3130140F2FF3341F480119A42B6
:1007B00001DA002010BD40F233439A42A2F23342E4
:1007C00003DC524200F059F810BD904010BD00000B
:1007D00030B5041E71F1000404DB4FF000444042C8
:1007E00064EB0101141E73F1000405DB1C464FF09D
:1007F0000043524263EB04038B4208BF824230BD88
:1008000030B5041E71F1000404DB4FF00044404297
:1008100064EB0101141E73F1000405DB1C464FF06C
:100820000043524263EB0403994208BF904230BD3B
:1008300030B50B46014600202022012409E021FAB0
:1008400002F59D4205D303FA02F5491B04FA02F5AD
:100850002844151EA2F10102F1DC30BD202A04DB80
:10086000203A00FA02F1002070479140C2F12003C3
:1008700020FA03F3194390407047202A04DB203A02
:1008800021FA02F00021704721FA02F3D040C2F1B0
:1008900020029140084319467047202A06DBCB17F7
:1008A000203A41FA02F043EAE07306E041FA02F32B
:1008B000D040C2F120029140084319467047000021
:1008C00000487047249100202DE9F05F82460078AF
:1008D000002715468B460AF10104B946302801D09D
:1008E0009DB113E014F8010B0127782803D0582894
:1008F00001D045B10AE00DB1102D07D10027102518
:1009000014F8010B02E0082500E00A250026B04695
:100910000EE005FB080005FB06F1012701EB104680
:100920001FFA80F8B6F5803F00D3B94614F8010BE2
:10093000294600F087F80028EBDABBF1000F05D05C
:100940000FB1641E00E05446CBF80040B9F1000F2F
:1009500006D005F0B7F902210160C81EBDE8F09F7E
:1009600048EA0640FAE710B5141E73F1000408DAED
:10097000401C41F1000192185B411A4301D120F063
:10098000010010BD2DE9F04D92469B4611B1B1FA20
:1009900081F202E0B0FA80F220329046FFF75EFF6B
:1009A00004460F4640EA0A0041EA0B0153465A4604
:1009B000084313D0114653EA010019D0C8F1400290
:1009C0005046FFF75AFF05460E46504659464246E6
:1009D000FFF744FF084305D0012004E020463946D4
:1009E000BDE8F08D0020054346EAE0762C4337430E
:1009F0000A986305E40AA0EB08000022FD0A44EA15
:100A000047540A3002D500200146E9E701051019D4
:100A10006941DDE9084500196941BDE8F04DA2E7EB
:100A2000064C074D06E0E06840F0010394E807003B
:100A300098471034AC42F6D3FFF7BCFB90910020EE
:100A4000B09100203A2800D2303820F02002412A0C
:100A500001D3A2F13700884201D34FF0FF30704735
:100A600070B58C1810F8015B15F0070301D110F870
:100A7000013B2A1106D110F8012B03E010F8016B9D
:100A800001F8016B5B1EF9D12B0705D40023521E20
:100A90000DD401F8013BFAE710F8013BCB1A921C88
:100AA00003E013F8015B01F8015B521EF9D5A14286
:100AB000D8D3002070BD0000464910B54A6822F422
:100AC00040324A604A6843681A434A6001684A688B
:100AD00022F480724A6001684A68036942EA03228C
:100AE0004A6001684A6822F040724A6001684A68B8
:100AF00083681A434A6001688A6822F400628A6047
:100B000001688A68C3681A438A60816A6FF07062FC
:100B1000D14201688A6822F070628A6001688A683E
:100B20000CD0836A1A438A6001688A6822F04052B6
:100B30008A6001688A68C36A1A4301E022F0405261
:100B40008A6001688A6822F002028A6001688A6805
:100B5000037E42EA43028A6090F82010002901686F
:100B60004A680FD042F400624A6001684A6822F481
:100B700060424A6001684A68174C436A04EB433399
:100B80001A4301E022F400624A600168CA6A22F452
:100B90007002CA620168CA6A838B104C04EB03536B
:100BA0001A43CA6201688A6822F400728A60016886
:100BB0008A6890F8303042EA43228A6001688A6885
:100BC00022F480628A6001688A68406942EA802073
:100BD000886010BD0023014000E0FFFF0000F0FF2F
:100BE000020E0A70020C4A70020A8A70C8707047BE
:100BF0000168C07809BA21F0FF0108437047FEE799
:100C000030B54FF0FF330022064C07E0855C5D40B5
:100C1000EDB2521C54F8255085EA13238A42F5D3CD
:100C2000D84330BD7880012010B52DED048BFFF73F
:100C300089FD9FED211B53EC112BFFF791FC9FEDDC
:100C4000209B53EC192BFFF78BFC41EC180B51EC5C
:100C5000190B53EC182BFFF77DFC41EC100B51ECFA
:100C6000180B53EC102BFFF7EDFC41EC100B05F0CB
:100C70002FF89FED151B51EC100B53EC112BFFF7C8
:100C80006FFC9FED131B53EC112BFFF7C2FB41ECE4
:100C9000100B53EC102B9FED100B51EC100BFFF7CA
:100CA000D1FC9FED0F1B53EC112BFFF753FCBDEC58
:100CB000048B41EC100B10BD000000000000303F21
:100CC00000000000000004400000000000A062409E
:100CD0000000000000689A400000000010BD1E41A6
:100CE000000000000010714078B514460D4606461D
:100CF000002309E0F01880B2694605F0E9FDE91823
:100D00000098FFF76DFF1B1DA342F3D3002078BDB1
:100D100010B5052801D3002010BD0022C0B2114635
:100D200006F09EFD0028F7D04FF0FF3010BD000008
:100D300070B5012291030A4801F09FFC0122094D80
:100D400054022146284601F098FC012005F07EFE61
:100D500021462846BDE87040002201F08EBC00000C
:100D6000001C0240001002402DE9FC5F70488146E3
:100D7000FFF73EFF6F4F00256F4942F2837A6FF015
:100D8000004607F13C04BD64884202D0504626600C
:100D9000B4E009F10400FFF72BFF684A684990426C
:100DA00006D10D70C4E900654046A560BDE8FC9F12
:100DB00009780029EAD15E494FF00408113901F1A0
:100DC0001902131D01F1210B009301281FD00228E5
:100DD0002FD003283AD0052840D006284BD0092828
:100DE00061D04FF0FF390D2869D0202876D0FD283A
:100DF00071D0FE2870D0FF286FD02128C6D1BD64E5
:100E000005F0FAFCC4F80880C4E90060CEE710469B
:100E1000BD64FFF7EDFE05460098FFF7E9FE0746C3
:100E20005846FFF7E5FE0246E8B2394605F030FDC8
:100E3000E8E7BD641046FD64FFF7DAFEC0B205F0D6
:100E4000E1FC08212660C4E90101AFE71046BD645A
:100E5000FFF7CEFEC0B205F027FDD3E71046BD6414
:100E6000FFF7C6FE05460098FFF7C2FEC1B2E8B222
:100E700005F0A6FCC6E71046BD64FFF7B9FE0546BF
:100E80000098FFF7B5FE82465846FFF7B1FE0746C9
:100E900009F11400FFF7ACFE0346E8B23A465146AA
:100EA00005F050FCAEE71046BD64FFF7A1FE01A9B6
:100EB00005F020FCC4E900600199A16076E7BD64FB
:100EC00004F09EFA08B148469CE7C4F80880C4E9DB
:100ED000006519E002E019E021E024E01046BD645D
:100EE000FFF786FE07460098FFF782FE81B2019069
:100EF000F8B204F083F920B148462660C4E9010540
:100F000054E7C4E90065A56000204FE70948552271
:100F100004214830FFF709FA05F0E4FB72E7BD64ED
:100F200005F046FB6EE7BD6405F03EFC6AE7000095
:100F3000F1850120608A0120A5A55A5A78563412FD
:100F4000138501202DE9F041234D04202DED068B62
:100F500082B0694604F0A6F89FED20AB9FED219B7F
:100F60000026A5F10C044FF00408502710B14FF4EF
:100F70007A7023E0BDF80000FFF756FEB0EE408A1D
:100F8000F0EE608A9FED190B51EC180B53EC102B0F
:100F9000FFF736FC53EC1A2B51EC180B06D8FFF771
:100FA000DFFA53EC192BFFF734FA05E0FFF7D8FA14
:100FB00053EC192BFFF7CEFAFFF7D1FB06F0A0FC9C
:100FC0002860C4F80880C4E9007602B00020BDECB7
:100FD000068BBDE8F0810000A88A01200000000017
:100FE00000002440000000000000E03F000000007E
:100FF0000000000000B58BB0002204A9144802F0E4
:101000001DFB002209A9124802F0F6FA9DF82600FD
:101010009DF812309DF811209DF810108DE80F00FA
:101020009DF827209DF825300AA1114802F5FA62A3
:1010300004F024FE0E4800220C3874218276C27619
:10104000C0E90012102181600BB0104600BD000005
:101050009490012025303475253032752530327555
:10106000253032752530327525303275000000008C
:10107000A88A012070B50E4C74212046FFF75CF958
:101080000C4D1434082220462968FFF760F904F15A
:101090001D000522A968FFF75AF9A4F120003021AC
:1010A00001600021416078218160002070BD000056
:1010B000A88A01200080012070B5174D55F8090F4E
:1010C00006F01EFC0446686806F01AFC0346002180
:1010D000124A13480D4600BF01EB410650F8266046
:1010E000A64210D101EB410100EB8101886868B193
:1010F00049684E1C04D0994202D042F2A47007E025
:10110000BDE870400047491C0929E5D342F28370CD
:101110009560C2E9004070BDE08501209C8A0120F5
:101120000C80012030B589B02F48002501958564D9
:10113000142102A8FFF700F92C4C01208DF81C00A7
:1011400054F8110F00900A2200216846FFF728F991
:10115000A0F5FA608DF81F008DF80250A088ADF858
:1011600000000A2200216846FFF71AF98DF81D00D9
:10117000E088ADF800000A2200216846FFF710F968
:101180008DF81E002089ADF800000A220021684673
:10119000FFF706F98DF808006089ADF800000A2213
:1011A00000216846FFF7FCF88DF80900A089ADF82A
:1011B00000000A2200216846FFF7F2F88DF80A00C5
:1011C000002202A90A4802F02BFB002207A90848C6
:1011D00002F0C2FA044873213C30C0E90015042132
:1011E000816009B0002030BD608A0120E0850120C7
:1011F000949001202DE9F84F894D05F2BC4455F833
:10120000110F06F07DFB8146686806F079FB074602
:101210004FF0000A484606F073FBE06004F5986062
:101220001126017808354FF00808012902D042F252
:101230008370A9E07B4842F2A57BC069B84201D225
:101240005846A1E078490091B9F1010F0FD07548D7
:1012500001694A1C4A4502D1027B032A04D0494550
:10126000EED1017B0229EBD1C0F810906EE0B842BC
:10127000E6D16E486E4902786948393092B3096800
:10128000FFF771F80028DBD16AA12846FFF76BF859
:101290000028D5D14946DFF88C91C9F810100021FB
:1012A000C9F82010D5F8C01095F8C32009BA21F06C
:1012B000FF011143C9F81810D5F8C42095F8C730BC
:1012C00012BA22F0FF021A43C9F81420B1F5C03F48
:1012D000B6D8564801784FF4167091B15A4909783A
:1012E00009B32FE0FFE752490968FFF73CF80028EF
:1012F000A6D14F480322416805F14000FFF741F8AD
:10130000C6E752494979E9B95149097871B902E00A
:1013100005F09CFB36E04F49D9F804208A4211D0F1
:10132000D9F8080007E04A49097819B199F801107D
:1013300041B9EDE7082000F0CCFAA8B100210098EF
:1013400004F0DAF805F58075A7F58077DFF80091ED
:1013500099F8000070B151460AF1010A062909D234
:10136000642005F073FBF3E739490120087089F820
:101370000100E7E74FF00209BAF1060F0AD3294945
:1013800081F80C9042F27D70C4F80880C4E90060D6
:10139000BDE8F88FDFF894A09AF8000030B12A4831
:1013A000017881B19FB30021017010E02748417995
:1013B00049B167B30021417104F050FC20B11949D3
:1013C00081F80C903CE717B39AF8000088B1DFF879
:1013D00054A02048BA08DAF820100844294600F042
:1013E0009BFA78B10121009804F086F88AF80C90F5
:1013F00026E7DFF830A0BA08DAF80410DAF820009F
:101400000844EBE7DAF820103944CAF82010054800
:10141000032101730020C4F80880C4E90060B7E725
:10142000E08501205C8F012008FC0220108501204E
:10143000008001204F5357317836345F426F6F740C
:101440006C6F61646572000011850120808F01203E
:10145000128501200000080870B51048D0F815006A
:1014600006F04EFAA0F580710D4A10240423B1F560
:10147000407F01D8810705D042F27D701460C2E937
:10148000010370BD074901250D70C8610020087374
:10149000086108621460C2E9010370BDE0850120A3
:1014A0009C8A01205C8F01202DE9F04720481226FC
:1014B00004270178A0F59864012902D042F28370D4
:1014C00014E0026A81696FF008058A4202D102695C
:1014D000032A01D2284609E080464068FFF790FBC6
:1014E000D8F81420824206D06FF00900A760C4E942
:1014F0000060BDE8F0870F484FF00009DFF838C002
:1015000080F80590D8F80430634501D1012300E04C
:1015100002230371D8F81810C0E90212054804F03C
:101520009DFB0028D6D1A760C4E90069E1E700006F
:101530005C8F0120808F01200000040810B56D49E8
:1015400004202DED0A8B82B0FFF74AFB694600208C
:1015500003F0A8FD002408B1ADF80040BDF800007C
:10156000FFF7F0F89FED64BB53EC1B2BFEF7F8FF81
:101570009FED638B53EC182BFEF7F2FF9FED62CBD0
:1015800053EC1C2BFEF7ECFF9FED619B53EC192BEA
:10159000FEF7E6FF9FED60AB53EC1A2BFEF739FF29
:1015A000FFF7FCF85349ADF80000091D1920FFF7BB
:1015B00017FB5049BDF800000831FFF711FB6946E1
:1015C000012003F06FFD08B1ADF80040BDF8000048
:1015D000FFF7B8F853EC1B2BFEF7C2FF53EC182BA8
:1015E000FEF7BEFF53EC1C2BFEF7BAFF53EC192B92
:1015F000FEF7B6FF53EC1A2BFEF70BFFFFF7CEF802
:101600003C49ADF800000C312120FFF7E9FA3949D7
:10161000BDF800001031FFF7E3FA6946022003F03D
:1016200041FD08B1ADF80040BDF80000FFF78AF8B1
:1016300053EC1B2BFEF794FF53EC182BFEF790FF97
:101640009FED371B53EC112BFEF78AFF53EC192B40
:10165000FEF786FF53EC1A2BFEF7DBFEFFF79EF832
:101660002449ADF8000014313220FFF7B9FA2149BE
:10167000BDF800001831FFF7B3FA6946032003F004
:1016800011FD08B1ADF80040BDF80000FFF75AF8B1
:1016900053EC1B2BFEF764FF53EC182BFEF760FF97
:1016A0009FED211B53EC112BFEF75AFF53EC192B26
:1016B000FEF756FF53EC1A2BFEF7ABFEFFF76EF862
:1016C0000C49ADF800001C314FF42070FFF788FA88
:1016D0000849BDF800002031FFF782FA0548702163
:1016E0000C38C0E900142421816002B00020BDEC58
:1016F0000A8B10BDA88A0120000000000000303FC6
:101700000000000000000440000000000000004055
:101710000000000000002440000000000000E03F46
:101720000000000000000840000000000080494068
:10173000014800F0A1BB0000EC92012001681823D1
:10174000CAB2103AB2FBF3F2054B6FF30901032A58
:101750009B5CC36500D9091D816508467047000080
:101760003C90002010B5014600208B698A6A4FF03A
:10177000C07453B1B3F5005F15D072B1012A0CD01B
:10178000022A0AD0032A09D104E01AB1012A06D09C
:10179000022A03D1C96AC90100D5012010BDC96A56
:1017A000A142FAD010BD002AF7D0012AF2D0022AB5
:1017B000F3D0032AF3D010BD30B50468256825F4B2
:1017C00080252560046863608368402B036803D02C
:1017D00099600068C26030BD9A600068C16030BD29
:1017E00070474FF4005000F04DBE7047002229B101
:1017F00001291DD002291ED04FF440720B2800D9B8
:10180000001D0E490B6823F440730B600B681343F3
:101810000B600A6822F0F8020A600A68022303EBF0
:10182000C00002430A60086840F4803008607047D6
:101830004FF48072E2E74FF40072DFE7103C0240A1
:101840001348016889050FD5016821F40071016012
:10185000016841F400610160016821F400610160E8
:10186000016841F400710160016849050FD5016804
:1018700021F480610160016841F4805101600168D8
:1018800021F480510160016841F48061016070477A
:10189000003C024000F01EBD30B587B00025044674
:1018A0000595182810D200F0C5FD0120CDE90104EE
:1018B000039002200490009505A9684600F060FCA2
:1018C000044600F06DFD14B1012007B030BD0020CA
:1018D000FBE710B586B0044618280ED200F0AAFD2A
:1018E0000120CDE901040390002000900220049023
:1018F000684600F093FC002800D0012006B010BD1F
:1019000010B500F097FD034991200860BDE8104034
:1019100000F046BD0C3C02402DE9F047002617467A
:1019200089460546344600F085FDDFF83C8012E02C
:1019300059F8242000232946022000F03DFD08B17B
:1019400003260CE059F824002968814201D00226C0
:1019500005E0641C2D1DBC4201D24545E8D900F0CC
:101960001FFD3046BDE8F087F8FF1F080E4A1368D8
:1019700023F44073136003290DD0012911680FD09F
:1019800041F40041116011684FF4803343EA0020B4
:10199000014311607047116848F204031943F1E7ED
:1019A00041F00401EEE70000103C0240064A1368D3
:1019B00023F44073136013681360136843F001034A
:1019C0001360017070470000103C0240094910B5D7
:1019D0000C6824F440740C600C6844F440740C608F
:1019E0000C6844F001040C600260BFF36F8F436029
:1019F00010BD0000103C0240074A136823F44073F6
:101A00001360136843F480731360136843F0010399
:101A10001360018070470000103C0240074A1368C1
:101A200023F440731360136843F400731360136866
:101A300043F001031360016070470000103C024056
:101A40001C490868C2061C4805D5C26942F010024C
:101A5000C26110220A600A68920605D5C26942F086
:101A60000802C26120220A600A68520605D5C269CE
:101A700042F00402C26140220A600A68120605D5DB
:101A8000C26942F00202C26180220A600A68D2057D
:101A900006D5C26942F00102C2614FF480720A6049
:101AA0000A68920705D5C26942F02002C26102208D
:101AB000086070470C3C02408C93012070B51149BE
:101AC00004460020C86100F0DDFD06460E4D09E029
:101AD000601C07D024B100F0D5FD801BA04201D9C5
:101AE000032070BD2868C003F2D42868C00701D065
:101AF00001202860286810F4F970F2D0FFF7A0FFE9
:101B0000012070BD8C9301200C3C024030B50D4982
:101B100003460C4A00200968121D0BE000EB40044C
:101B200012F814509D4204D802EB440464789C429D
:101B300002D2401C8842F1D3884201D34FF0FF30DB
:101B400030BD00007884012070B5204D00244FF492
:101B50008051284600F08CFD012800D140244FF42C
:101B60000061284600F084FD012801D144F02004E2
:101B70004FF48061284600F07BFD012801D144F03C
:101B800010044FF40071284600F072FD012801D1C5
:101B900044F008044FF48071284600F069FD0128E4
:101BA00001D144F004048021284600F061FD0128A1
:101BB00001D144F002044021284600F059FD0128DB
:101BC00001D144F00104601C70BD0000001C024003
:101BD00010B518220249FEF796FB002010BD000048
:101BE0000080000878B50024009490F83C20012A79
:101BF00019D0012280F83C200A6807230568092AC9
:101C000013D9EE680A3A02EB420293409E43EE601B
:101C10000B788A680A3B03EB43039A400368DD684C
:101C20002A43DA6010E0022078BD2E6902EB4202FE
:101C300093409E432E610B788A6803EB43039A40DE
:101C400003681D692A431A614A681F23072A13D2B1
:101C500005686E6B521E02EB820293409E436E63D8
:101C60000A8893B20A79521E02EB820293400268FC
:101C7000556B2B43536327E005680D2A12D22E6B58
:101C8000D21F02EB820293409E432E630B790A8897
:101C9000DB1F92B203EB83039A4003681D6B2A4358
:101CA0001A6311E0EE6A0D3A02EB820293409E4302
:101CB000EE620B790A880D3B92B203EB83039A40E4
:101CC0000368DD6A2A43DA621B4B0568194A9D42A4
:101CD0000AD10D68122D07D1556825F4000555600D
:101CE000556845F48005556005689D421DD1134D2A
:101CF0000B68AB4201D0112B17D1536823F480033A
:101D00005360536843F4000353600968A9420CD13F
:101D10000B490C4A0968B1FBF2F101EB8101490062
:101D200000E0491E00910029FBD180F83C400020D2
:101D300078BD000000230140002001401200001087
:101D40006085012040420F0070B504004FF000058F
:101D500003D0206C002610B107E0012070BD2046A2
:101D600000F01CF8666484F83C60206CC00610D457
:101D7000206C20F4885040F0020020642046FEF7DA
:101D80009BFE6664206C20F0020040F0010020649D
:101D900000E0012584F83C60284670BD08B5006865
:101DA0000649884208D10648016841F48071016003
:101DB000006800F48070009008BD00000020014021
:101DC000443802402DE9F0410446876D00F05AFC8A
:101DD000064694F835000025022806D0802060656C
:101DE00084F834500120BDE8F0812068016821F0BA
:101DF000160101602068416921F080014161206C79
:101E000008B9A06C20B12068016821F008010160C8
:101E10002068016821F0010101600BE000F032FC54
:101E2000801B052806D92020606504F8345F032054
:101E30006070D8E720680068C007EFD194F85C10A4
:101E40003F208840B86004F8345F012060700020B3
:101E5000C9E790F83510022903D08021416501209F
:101E60007047052180F835100068016821F00101F4
:101E700001600020704700002DE9F84304464FF050
:101E80000009CDF8009063484FF41651A56D006825
:101E9000B0FBF1F72E6894F85C10082000FA01F10D
:101EA00031420FD021680A6852070BD50A6822F028
:101EB00004020A6094F85C108840A860606D40F0ED
:101EC0000100606594F85C104FF0010808FA01F019
:101ED000304208D021684969090604D5A860606DC0
:101EE00040F00200606594F85C10042088403042A5
:101EF00008D021680968890704D5A860606D40F0A2
:101F00000400606594F85C1010208840304218D0BE
:101F100021680968090714D5A86020680168490389
:101F200004D50068000308D5A16C07E00168C90565
:101F300003D4016821F008010160216C09B1204639
:101F4000884794F85C1020208840304231D02168C6
:101F50000968C9062DD5A86094F8350005282068C1
:101F6000016806D0490347D5006800031DD4616CA1
:101F70001CE021F0160101602068416921F0800118
:101F80004161206C08B9A06C20B12068016821F083
:101F90000801016094F85C103F208840A86084F834
:101FA000349084F83580216D1FE0E16B09B1204643
:101FB0008847606D00282BD0606DC00714D00520C5
:101FC00084F835002068016821F001010160009863
:101FD000401C0090B84203D820680068C007F6D1C2
:101FE00084F8349084F83580E16C002910D001B079
:101FF0002046BDE8F04308470168C905D5D401680B
:1020000021F01001016084F8349084F83580CCE729
:10201000BDE8F883608501202DE9F041044600F019
:1020200031FB06465CB1002584F83450022084F868
:1020300035002068016821F0010101600DE00120F8
:10204000BDE8F08100F01EFB801B052805D920208B
:102050006065032084F83500F2E720680068C00757
:10206000F0D12268116820480140D4E901031843E7
:10207000D4E903363343184363691843A36918430B
:10208000E3691843236A18430843616A042903D1AA
:10209000D4E90B1319430843106020684069666A4D
:1020A00020F0070130460E43012704280CD1A06A16
:1020B0000643E06A40B12046FFF754FB20B14020C0
:1020C000606584F83570BAE7206846612046FFF7FE
:1020D00035FB94F85C203F2191408160656584F870
:1020E00035700020ACE700003F8010F02DE9F04192
:1020F0000446866D90F83400002501280DD001209B
:1021000084F8340094F835700020012F07D084F84B
:10211000340002252846BDE8F0810220FBE70227B3
:1021200084F8357060652046FFF746FB94F85C1034
:102130003F208840B0602068016841F016010160CE
:10214000206C20B12068016841F00801016020681E
:10215000016841F001010160DCE7000070B5044650
:1021600000F090FA0546601C02D004480078044450
:1021700000F088FA401BA042FAD370BD54850120BC
:102180002DE9F047044623480F46017E01290AD075
:102190000121804601764CF250394846FFF78EFC0B
:1021A000020003D030E00220BDE8F0874FF0FF309E
:1021B00038602068184D012801D0A6681DE0207CF9
:1021C0006168FFF7D3FB4846FFF778FC02462868B2
:1021D00048F204018843286014E0217C3046FFF770
:1021E00005FB4846FFF76AFC0200286820F0FA0069
:1021F000286001D03E6005E0761CD4E90210084456
:10220000B042EAD8FFF71CFB002188F818101046EE
:10221000CAE700008C930120103C024070B51749BA
:1022200000240A7E012A1ED0154A01230B76156868
:1022300045F080751560156845F000751560104D06
:10224000F3222D1F2A600268012A0ED00B70C2688B
:102250004A608268CA60027C0A72017C8068FFF76B
:10226000C5FA204670BD022070BD02220A70426885
:102270000A614168007CFFF779FBF2E78C9301204B
:10228000103C02403EB5401C0DD100F089F80D48CD
:102290000D4A002181705378002B04D0047801236B
:1022A00014B1437051703EBD0848437151708DF8B0
:1022B0000030074800231A466946006804F094FC81
:1022C0003EBD0000108501205C8F0120808F012021
:1022D000208501202DE9F0412F4F38682F4C10F454
:1022E000F97F4FF0FF384FF000050DD0207801281E
:1022F0002ED0207802282FD0D4F81460FFF7A0FB4E
:10230000304600F057F825703868C0070BD0012020
:1023100038602078012821D02078022838D06069E0
:10232000FFF7B0FF2570207800280FD11A48001D54
:10233000016848F2FF0291430160016821F0807159
:102340000160016821F0007101602576BDE8F0812F
:10235000E668C4F80C80D1E72669CFE76068401EC4
:102360006060606850B1E068FFF78CFFE068401C77
:10237000E060E068217AFFF739FAD4E74646C4F80E
:102380000C802570FFF75CFA3046FFF77BFFCAE749
:10239000FFF756FA2069C3E70C3C02408C930120FA
:1023A0000348016841F000410160002070470000CF
:1023B000103C0240704700002DE9F0471B4E0546D7
:1023C0001446307E1F468946012808D00120307609
:1023D0004CF250384046FFF771FB18B114E0022070
:1023E000BDE8F0879DB1012D16D0022D19D02246EF
:1023F0003B464846FFF7EAFA4046FFF75FFB0C49C9
:102400000A6822F001020A6000213176E8E7E1B2B1
:102410004846FFF7CBFAEFE7A1B24846FFF7ECFAE0
:10242000EAE721464846FFF7F9FAE5E78C930120F1
:10243000103C0240074900200A68002A09DA054AD0
:10244000054B0C3A1360054B13600968002900DA4C
:1024500001207047103C024023016745AB89EFCD56
:102460000EB5B0F5005F09D102208DF800000448D8
:1024700000231A466946006804F0B6FB0EBD000052
:1024800020850120044910B50A68024202D0086084
:10249000FFF7E6FF10BD0000143C01402DE9F84FA6
:1024A00000224FF0010803254FF00F0E0B6808FAC9
:1024B00002F42340A3426ED14E68012E05D0022EB5
:1024C00003D0112E01D0122E12D186684FEA420C91
:1024D00005FA0CF7BE43CF6807FA0CF7374387605D
:1024E0004668A6430C79C4F3001494403443446016
:1024F000C668570005FA07FC8C6826EA0C06BC4043
:102500003443C4604C68022C01D0122C13D1D4087F
:1025100000EB8404A346D4F8209054074FEAD46A11
:102520000EFA0AF629EA06090E6906FA0AF646EADA
:102530000906CBF8206004680E7924EA0C0406F042
:102540000306BE40264306604C68E4006FD53B4C52
:10255000266846F480462660246822F0030604F4C8
:1025600080440094364C3444A446D4F80848960776
:10257000360F0EFA06F7BC43324FB84201D100279E
:102580002EE0314FB84201D1012729E02F4FB84248
:1025900002D1022724E04AE02D4FB84201D103279F
:1025A0001EE02C4FB84201D1042719E02A4FB8424F
:1025B00001D1052714E0294FB84201D106270FE0C9
:1025C000274FB84201D107270AE0264FB84201D170
:1025D000082705E0244FB84201D1092700E00A2767
:1025E000B7402743CCF80878204E34684F689C43A6
:1025F000FF0300D51C4334601C4E361D34684F6801
:102600009C43BF0300D51C433460184E0836346821
:102610004F689C43FF0200D51C433460134E0C36B8
:1026200034684F689C43BF0200D51C433460521C81
:10263000102AFFF43BAFBDE8F88F00004438024099
:102640000030014000000240000402400008024047
:10265000000C02400010024000140240001802402A
:10266000001C02400020024000240240003C0140C7
:102670000069084000D0012070470AB181617047AD
:102680000904FBE701488068704700005485012079
:1026900090F83D20202A01D002207047242280F8A3
:1026A0003D200268136823F0010313600268536A37
:1026B00023F0100353620268536A0B4353620168AC
:1026C0000A6842F001020A60202180F83D100020D3
:1026D000704790F83D20202A01D002207047242224
:1026E00080F83D200268136823F00103136003683B
:1026F0005A6A22F00F020A4391B2596201680A68CD
:1027000042F001020A60202180F83D10002070474D
:1027100070B5040025D094F83D00002520B984F858
:102720003C50204600F0B4F9242084F83D00206895
:10273000016821F0010101602068016841F4004155
:1027400001602068016821F40041016000F054FD3F
:102750004D4A6168914201D84C4900E04C49884299
:1027600001D2012070BD4B492368B0FBF1F15E68D6
:1027700026F03F060E435E606368934206D94FF42D
:10278000967359434FF47A73B1FBF3F12368491CF4
:102790001E6A26F03F06314319626168914210D8E3
:1027A0004900401EB0FBF1F2521CC2F30B02042A96
:1027B00001D2042022E0B0FBF1F0401CC0F30B007A
:1027C0001CE0A268F2B301EBC10303EB0116431E48
:1027D000B3FBF6F35B1C43F480431B0549D092B373
:1027E00001EBC10202EB0111401EB0FBF1F0401CF5
:1027F000C0F30B0040F4804040F400402168CA69F7
:102800004CF6FF739A431043C861D4E907100143A3
:102810002068026822F0C00211430160D4E903017C
:1028200001432068826848F2FF339A431143816074
:10283000D4E9050108432168CA6822F0FF02104369
:10284000C86001E00EE016E02068016841F0010177
:1028500001602564202084F83D00256384F83E5003
:10286000002070BD01EB4106431EB3FBF6F35B1C79
:10287000B3E70120C2E701EB4101401EB0FBF1F0DC
:10288000401CC0F30B00B7E7A086010080841E0047
:1028900000093D0040420F002DE9FF4F83B09A46EA
:1028A000DDE9119793460446DDF84080FFF7EAFE24
:1028B000054694F83D00202870D119230122714962
:1028C0002046009501F0C6FE0028F5D194F83C00A2
:1028D000012863D0012084F83C0020680168C90702
:1028E00003D1016841F0010101602068016821F411
:1028F00000610160222084F83D00402084F83E0001
:1029000000262664C4F82480A4F82A90608D2085CF
:102910005D48E062CDE9007553465A462046049969
:1029200001F01AFE00287CD1208DD0B1012821D0E1
:102930000228206824D0416980690090208D0328F6
:1029400069D801282BD0514902283B464FF000029C
:10295000009559D08846204601F07CFE002860D1C1
:102960003CE02068416981690091016841F400718F
:10297000016077E02068016821F480610160F0E780
:10298000016821F4806101602068016841F4006100
:102990000160206841698069009063E06FE02A4629
:1029A0003946204601F0D5FE98BB20680069616A6F
:1029B00008704EE02068016841F4007101602068F1
:1029C0000069616A0870606A401C6062218D491E5E
:1029D0002185618D491E6185216838E02068016884
:1029E00021F48061016020680069616A0870606A92
:1029F000401C6062208D401E2085608D401E6085D9
:102A00003B46002241460095204601F023FE00B9D6
:102A1000D0E706E0FFE72A463946204601F099FE56
:102A200018B1012007B0BDE8F08F20680069616A25
:102A30000870606A401C6062218D491E2185618D8D
:102A4000491E618521684A69D24352070AD409693F
:102A50000170606A401C6062208D401E2085608D80
:102A6000401E6085208D00287FF468AF202084F808
:102A70003D0084F83E6084F83C600020D2E70220EC
:102A8000D0E70000020010000000FFFF040001007A
:102A90002DE9F04F87B0044614216846FDF74CFC41
:102AA000494ADFF828A12168DFF8208100200125AC
:102AB00003244FF0120B4FF004090AF1100A91425F
:102AC0003ED14021CDE90015CDE90204404F6946D1
:102AD0003846FFF7E3FC0026012240213846FFF785
:102AE000CCFD0120FFF73AFB002240213846FFF7DA
:102AF000C4FD0120FFF732FB761C0A2EECDBD8F870
:102B0000001041F00201C8F80010D8F80000CDE92B
:102B1000025400F002000590C020CDE9000B694688
:102B2000CDF810903846FFF7B9FCDAF8001041F400
:102B30000011CAF80010DAF8000000F400103EE0BE
:102B4000244A91423CD10221CDE90015CDE902048D
:102B5000214F69463846FFF7A1FC0026012240219B
:102B60003846FFF78AFD0120FFF7F8FA00224021DE
:102B70003846FFF782FD0120FFF7F0FA761C0A2E97
:102B8000ECDBD8F8001041F02001C8F80010D8F8AC
:102B90000000CDE9004B00F02000CDE90490CDE924
:102BA000025469463846FFF779FCDAF8001041F420
:102BB0008001CAF80010DAF8000000F480000590E7
:102BC00007B0BDE8F08F00000054004030380240EC
:102BD00000040240005800400014024070B5040098
:102BE00011D021684CF6CC400860216845F2555060
:102BF0000860D4E9000141602168A0688860FFF79F
:102C000041FD054609E0012070BD00BFFFF73AFD18
:102C1000401B302801D9032070BD2068C0680028FF
:102C2000F4D121684AF6AA200860002070BD00682F
:102C30004AF6AA210160002070470000024881681E
:102C40000278114481607047548501200B4810B50B
:102C5000016841F400710160016841F48061016024
:102C6000016841F480710160032000F097F80020B2
:102C700000F006F800F03EF8002010BD003C0240D5
:102C800010B5014688B000221A2000F067F81A201B
:102C900000F056F813480024016841F480210160D7
:102CA000006805A900F480200690684600F084FAC8
:102CB00000F0B2FA0C494000B0FBF1F10C480B4AAD
:102CC000491E026040F2E732C0E90324C0E9011462
:102CD00001F0F3F810B1012008B010BD044801F074
:102CE00008F9F9E74438024040420F00004801402B
:102CF0004C930120114808B5016841F480410160FE
:102D0000006800F4804000900C48001F016841F00A
:102D1000805101600068002200F0805000900F2177
:102D2000901E00F01BF800220521042000F016F888
:102D3000BDE80840042000F003B800004438024019
:102D4000002809DB00F01F020121914040098000AA
:102D500000F1E020C0F8001170470000F0B40E4B05
:102D60001B680C46C3F30223C3F10705042D00D9E9
:102D70000425191D072901D2002300E0DB1E0126CE
:102D800006FA05F1491E214099409E40761E1640E4
:102D90003143F0BC02F086BF0CED00E0064900F0C4
:102DA000070208684FF6FF03184040EA0220034A72
:102DB00010430860704700000CED00E00000FA05C9
:102DC0002DE9F8431748016841F08051016000681F
:102DD000154F00F08050012600903E64FFF752FC32
:102DE00005464FF47A78114C05E000BFFFF74AFC26
:102DF000401B40450DD86068C003F7D57E64FFF7DF
:102E000041FC0546464607E0FFF73CFC401BB0424C
:102E100002D90320BDE8F88360688003F4D5002060
:102E2000F8E700004038024000000E420070004009
:102E30002DE9F84F04460068DFF824A2894F8A4D37
:102E4000C1074FF001084FF0000603D1810701D4FC
:102E5000400648D5CAF86860FFF714FC814605E0D3
:102E6000FFF710FCA0EB090002287DD828680001BC
:102E7000F6D42078C1077D4805D06168227A89019F
:102E800041EA027101602178890711D50168626801
:102E9000237B9201C1F3027142EA036242EA0171AB
:102EA00001603968E26921F01F01521E1143396047
:102EB0002178490608D56168227B890141EA0261CF
:102EC000227A41EA02710160CAF86880FFF7DAFBF2
:102ED000814605E0FFF7D6FBA0EB0900022843D8A6
:102EE00028680001F6D52068410701D400074ED5B7
:102EF000CAF87060FFF7C6FB814605E0FFF7C2FB2A
:102F0000A0EB090002282FD82868C0438000F5D51F
:102F100020784107564814D501682269237D920123
:102F2000C1F3027142EA036242EA01710160396849
:102F3000226A6FF0FF0321F4F85103EB02221143E0
:102F400039602178090712D501682269C1F303614C
:102F5000920142EA0161227E41EA02710160386811
:102F6000616A20F4403000E051E008433860CAF85C
:102F70007080FFF787FB074605E000BFFFF782FB85
:102F8000C01B022843D82868C0438000F6D42078AC
:102F9000800653D534484030016841F080510160CB
:102FA0000068344D00F080500090286840F4807034
:102FB0002860FFF767FB074605E000BFFFF762FBED
:102FC000C01B022823D82868C005F7D5274D143D1B
:102FD000286810F4407020D0218D01F440718142A6
:102FE0001BD0286820F440712348C0F80080066098
:102FF00029602868C00710D0FFF744FB064641F25D
:10300000883707E0FFF73EFB801BB84202D9032058
:10301000BDE8F88F28688007F4D5A16A1248C1F38B
:1030200001220830032A13D0016821F4F81101604D
:103030002868218DC1F30B01084328602078C00661
:1030400004D50E4994F82C00C1F8E0010020DFE718
:1030500002680B4B22F4F81219400A430260E7E7BA
:10306000000047428C380240003802408438024059
:103070008838024000700040400E4742001047422E
:10308000FFFCFF0F2DE9F0470E46050065D0DFF885
:103090001481D8F80000F7B200F00F00B04207D258
:1030A00088F80070D8F8000000F00F00B04254D14A
:1030B00028683D4C810712D5400703D5206840F4AD
:1030C000E05020602878000703D5206840F4604075
:1030D00020602068A96820F0F0000843206028786C
:1030E000C0072DD0304968680839012812D002285D
:1030F00013D0032811D00968890700292DDA216827
:1031000021F0030101432160FFF7BCFA814641F23F
:10311000883A0EE009688903EFE709688901ECE75E
:10312000FFF7B0FAA0EB0901514502D90320BDE831
:10313000F0872068696800F00C00B0EB810FEFD1D8
:10314000D8F80010404601F00F01B14207D90770CE
:10315000006800F00F00B04201D00120E7E72878B6
:10316000400705D52068E96820F4E0500843206056
:103170002878000706D52068296920F4604040EAD5
:10318000C100206000F058F82168084AC1F303111B
:10319000515CC8400649086006480068FFF770FDAA
:1031A0000020C4E7003C0240083802404490002060
:1031B00060850120588501200F2202600C4A1368A7
:1031C00003F003034360136803F0F00383601368A4
:1031D00003F4E053C36012684FF4E05303EAD202F1
:1031E00002610448006800F00F00086070470000AA
:1031F00008380240003C024004480549006809685C
:10320000044AC1F38221515CC840704760850120A7
:1032100008380240549000200448054900680968B5
:10322000044AC1F34231515CC840704760850120B7
:103230000838024054900020154810B5006810F07E
:103240000C02144813D01449042A0FD0082A0ED1B6
:103250000F4C241F2268236802F03F025B0207D54F
:103260002068C0F38810A0FB010106E0084610BDED
:103270002168C1F38811A1FB00010023FDF712F8BA
:103280002168C1F30141491C4900B0FBF1F010BDB8
:10329000083802400024F400002D31012DE9F84FD8
:1032A000040076D02078DFF838A3CE4DC00749D08F
:1032B000DAF800105046C1F38101012908D00068F6
:1032C000C0F3810002280AD1281D0068400206D5FB
:1032D0002868800336D560680028E2D032E0606854
:1032E000B0F5803F10D0B0F5A02F286810D020F4A2
:1032F00080302860286820F4802028606068A0B1B1
:10330000FFF7C0F906460CE0286840F48030F4E787
:1033100040F480202860F7E7FFF7B4F9801B6428A9
:1033200073D828688003F7D50CE0FFF7ABF90646A1
:1033300005E000BFFFF7A6F9801B6428F0D82868D5
:103340008003F7D42078DFF8A08280074FF00009CF
:103350003ED5DAF80010504611F00C0F09D0006885
:10336000C0F3810002280BD19D48001F0068400275
:1033700006D42868800715D5E068012809D111E036
:10338000E068B8B10120C8F80000FFF77BF90646F5
:1033900005E020E1FFF776F9801B0228C0D82868F5
:1033A0008007F7D52868216920F0F80040EAC100BD
:1033B00028600DE0C8F80090FFF764F9064604E0C5
:1033C000FFF760F9801B02281FD828688007F7D410
:1033D0002078000722D5824E844861696C3671B12D
:1033E00001210160FFF74EF9074604E0FFF74AF9B3
:1033F000C01B022809D830688007F7D50EE0C0F856
:103400000090FFF73FF9074605E082E0FFF73AF941
:10341000C01B02287DD830688007F7D42078400789
:1034200068D5DFF8BCB100270BF1380BDBF80000E2
:10343000C0000BD4DBF8001041F08051CBF8001035
:10344000DBF80000012700F080500090684E3068E3
:10345000C00510D4306840F480703060FFF712F976
:10346000009005E0FFF70EF90099401A022850D8A5
:103470003068C005F6D55A4EA068683601280FD0CE
:103480000528306810D020F001003060306820F04E
:1034900004003060A068B8B1FFF7F4F800900FE0C6
:1034A000306840F00100F4E740F004003060F7E7D6
:1034B000FFF7E8F80099411A41F28830814266D856
:1034C00030688007F4D50EE0FFF7DCF8009007E0E5
:1034D000FFF7D8F80099411A41F28830814256D856
:1034E00030688007F4D42FB1DBF8001021F0805150
:1034F000CBF80010A069D0B3DAF800205146C2F32F
:103500008102022A4AD00228484607D0C8F8600043
:1035100000E03CE0FFF7B6F804463BE04746C8F859
:103520006000FFF7AFF8064605E000BFFFF7AAF816
:10353000801B02282BD828688001F7D4D4E9070122
:103540000843A16A2B4A490802EB0141626A41EA39
:103550008211084394F82C1040EA01612048001FB2
:10356000016001203866FFF78DF8044605E034E07D
:10357000FFF788F8001B022809D828688001F7D5D2
:103580002BE000BFFFF77EF8001B022802D90320C2
:10359000BDE8F88F28688001F4D41EE00128F7D038
:1035A0000868E26900F48001914214D1226A00F0B7
:1035B0003F0191420FD147F6C071626A01409142CA
:1035C00009D1A26A00F44031914204D1E16A00F0CD
:1035D0007060884201D00120DAE70020D8E70000BF
:1035E000083802400038024000004742800E47423F
:1035F000007000400000FFFF10B500680B464168F6
:103600000D480140080CD870C1F304245C7001F02F
:103610003F049C70C1F34231197052B901F00FFDA3
:10362000D870587801F00BFD5870987801F007FDBC
:103630009870002010BD00003FFFFF0010B50B4642
:103640000168896A596001680969C1F30E019960CE
:10365000006801680E480140C1F305401870C1F3CD
:1036600006245C7001F07F049C70402404EA114140
:10367000D97052B901F0E3FC1870587801F0DFFC02
:103680005870987801F0DBFC9870002010BD0000A5
:103690007F7F7F0070B5040002D0607F10B106E02C
:1036A000012070BD00202077204600F049F802205C
:1036B00060772168CA20486221685320486220460A
:1036C00001F0D2FCFF25042618BB206881681B4A44
:1036D000114081602168886862681043D4E904233E
:1036E0001A43104388602168E06808612068016916
:1036F000228941EA024101612068C16821F080010C
:10370000C16020688068800607D4204600F0FEF87B
:1037100018B1206845626677C2E72068016C21F421
:10372000802101642068016CA26911430164206852
:10373000456201206077002070BD0000BFFF8FFF51
:1037400000680349884202D102490120086070479D
:10375000002800403C0E47422DE9F0470446007F18
:103760000B4601281FD04FF0010984F81C9002205D
:103770006077DAB19878D97840EA014558781978B5
:10378000000240EA413005432168CA2048622168AE
:1037900053204862204601F067FC0026FF274FF0C7
:1037A000040860BB1AE00220BDE8F0875878C10623
:1037B00003D500F0EF000A305870D87801F048FCCB
:1037C0000204587801F044FC42EA0022987801F0A3
:1037D0003FFC0243187842EA4035D5E70F480540E0
:1037E000206845602068C16821F08001C1602068C0
:1037F000806880060AD4204600F088F830B120683E
:10380000476284F81D8026770120CDE72068476253
:1038100084F81D9026770020C6E700003FFFFF00D8
:103820002DE9F0470446007F0D46012827D04FF0D0
:10383000010A84F81CA002206077206800268068B6
:103840004FEA4060F2B1002800DBEE70A8782978DA
:1038500040EA01476878E978000240EA01400743FE
:103860002168CA204862216853204862204601F03E
:10387000FBFB4FF0FF084FF00409A0BB16E002204D
:10388000BDE8F087002800DBEE70287801F0E0FB4F
:103890000204687801F0DCFB42EA0022A87801F01B
:1038A000D7FB0243E87842EA0047D9E716480740C9
:1038B000206807602068816821F480218160D5E953
:1038C0000301084321688A68104388602068C16842
:1038D00021F08001C1602068806880060BD42046FA
:1038E00000F014F838B12168C1F8248084F81D90E4
:1038F00026770120C4E72168C1F8248084F81DA040
:1039000026770020BCE700007F7F7F0070B504466B
:103910000068C16821F0A001C160FEF7B3FE054652
:103920004FF47A7607E000BFFEF7ACFE401BB042D2
:1039300001D9032070BD2068C0688006F4D500203E
:1039400070BD70B5040005D00025A56294F8510043
:1039500010B106E0012070BD84F85050204600F000
:1039600031F8022084F851002068016821F04001FC
:103970000160D4E901010843D4E90312114308436B
:1039800061690843218B01F400710843E169084330
:10399000216A0843A16A084321680860A0690421DC
:1039A00001EA1040616A0843216848602068C169E3
:1039B00021F40061C1616565012084F85100002097
:1039C00070BD00002DE9F04F87B004461421684611
:1039D000FCF7B2FC22685E4C5C4B00205C4D143C52
:1039E0000226032105279A4216D12A6842F4805202
:1039F0002A602A6802F480520592226842F001028D
:103A00002260226802AB02F00102059283E8830083
:103A1000E02269464F481BE04F4B9A421FD14C4A67
:103A2000121F136843F480431360126802F480424B
:103A30000592226842F002022260226802AB02F084
:103A40000202059283E8830044484FF460426946CD
:103A5000CDE90026FEF722FD07B0BDE8F08FDFF8C4
:103A600000C101234FF4E04A624528D180468946CF
:103A70001A038DE80C03DFF8ECB069465846FEF7F0
:103A80000DFD002240215846FEF7F7FD286840F45E
:103A900000502860286800F400500590206840F02D
:103AA000100020602068CDF800A000F01000CDE9E3
:103AB000047001AA694682E840035846CAE7DFF865
:103AC000A8C0624527D18046894680228DE80C0334
:103AD000DFF898A069465046FEF7E0FC002240213E
:103AE0005046FEF7CAFD286840F480102860286818
:103AF00000F480100590206840F0200020602068CD
:103B0000049700F0200005904FF460708DE84103A9
:103B1000694650469EE7164B9A429DD12A6842F468
:103B200000122A602A6802F400120592226842F00C
:103B300040022260226802AB02F04002059283E854
:103B40008300CDE900A669460A4883E700300140BA
:103B500044380240000002400038004000040240A7
:103B600000340140001002400050014000140240A7
:103B700000540140001802402DE9F84F044690F827
:103B8000500000271D461646894601280DD04FF0EB
:103B9000010B84F850B0FEF775FD804694F8510093
:103BA000BA46012804D002278EE00220BDE8F88F33
:103BB000B9F1000F7DD0002E7BD0032084F8510096
:103BC000C4F854A0C4F83090A686E686C4F838A09D
:103BD000A4F83CA0A4F83EA0C4F844A0C4F840A0B7
:103BE000A068B0F5004F04D12068016841F480411D
:103BF000016020680168490603D4016841F0400172
:103C00000160E068B0F5006F606803D030B3012E4A
:103C100024D040E008B1012E1CD1206B216800881F
:103C2000C86006E020688168890709D5216B09888A
:103C3000C160206B801C2063E08E401EE08609E09E
:103C4000FEF720FDA0EB0800A84202D3681C01D0BB
:103C500031E07DB3E08E0028E4D11FE0206B2168C5
:103C60000078087306E020688168890709D5216B10
:103C700009780173206B401C2063E08E401EE086B3
:103C800009E0FEF7FFFCA0EB0800A84202D3681C85
:103C900001D010E075B1E08E0028E4D142462946FB
:103CA000204601F0B3FB08B120206065A06820B178
:103CB00007E008E0FFE7032706E02068C1688068A6
:103CC0000090606D00B1012784F851B084F850A0D5
:103CD00038466BE72DE9F84F044690F8500000276E
:103CE0000A9E1D4692468B464FF0010901280ED0D0
:103CF000012084F85000FEF7C5FC804694F851007E
:103D0000616801280CD0B1F5827F07D102E0022062
:103D1000BDE8F88FA16809B9042801D00227C2E0E4
:103D2000BBF1000F27D0BAF1000F24D01DB394F8D7
:103D30005100042802D0052084F85100002060655D
:103D4000C4F838A0E587A587C4F830B0E586A58615
:103D50002064606420680168490603D4016841F06A
:103D600040010160E068B0F5006F606805D0E8B31D
:103D7000012D46D07FE0012795E008B1012D39D112
:103D8000206B21680088C860206B801C2063E08E57
:103D9000401EE0862EE02068816889070FD5E18EFD
:103DA00069B1B9F1010F0AD1216B0988C160206B9B
:103DB000801C2063E08E401EE0864FF000092068E2
:103DC0008168C9070CD0E18F51B1C068A16B088030
:103DD000A06B801CA063E08F401EE0874FF00109BC
:103DE000FEF750FCA0EB0800B04200E009E001D370
:103DF000701C50D1E08E0028CDD1E08F0028CAD1B0
:103E00003FE0206B216800780873206B401C206322
:103E1000E08E401EE0862EE02068816889070FD57D
:103E2000E18E69B1B9F1010F0AD1216B09780173F3
:103E3000206B401C2063E08E401EE0864FF000099E
:103E400020688168C9070CD0E18F51B1C068A16BAF
:103E50000870A06B401CA063E08F401EE0874FF00D
:103E60000109FEF70FFCA0EB0800B04202D3701C62
:103E700001D010E07EB1E08E0028CDD1E08F002887
:103E8000CAD142463146204601F0C0FA28B1012786
:103E90002020606507E0032705E0A06818B92068C6
:103EA000C16880680090012084F85100002084F8E7
:103EB000500038462CE77047704710B5040003D017
:103EC00094F83D0010B107E0012010BD002084F8F7
:103ED0003C00204600F00CF8022084F83D00211D33
:103EE000206801F065FC012084F83D00002010BD31
:103EF00070470168CA6842F00102CA6000688168C0
:103F000001F00701062903D0016841F001010160B9
:103F100000207047704770B50446006801694FF093
:103F20000005C943890715D4C168C943890711D45D
:103F3000E91E016101202077206880698007204602
:103F400002D0FFF7E7FF04E000F098F8204600F009
:103F500096F8257720680169C943490717D4C168D5
:103F6000C943490713D46FF004010161022020778F
:103F70002068806910F4407F204602D0FFF7CAFF16
:103F800004E000F07BF8204600F079F825772068FF
:103F90000169C943090716D4C168C943090712D486
:103FA0006FF008010161042020772068C069800754
:103FB000204602D0FFF7AEFF04E000F05FF8204695
:103FC00000F05DF8257720680169C943C90617D458
:103FD000C168C943C90613D46FF0100101610820FC
:103FE00020772068C06910F4407F204602D0FFF798
:103FF00091FF04E000F042F8204600F040F82577F9
:1040000020680169C943C90708D1C168C943C90704
:1040100004D1891E0161204600F032F82068016950
:10402000C943090609D4C168C943090605D46FF01C
:10403000800101612046FFF73EFF20680169C94306
:10404000490609D4C168C943490605D46FF0400147
:104050000161204600F01EF820680169C943890605
:104060000BD4C168C943890607D46FF020010161F0
:104070002046BDE87040FFF71FBF70BD7047704716
:1040800000680349884201D1FEF7D8BD704700009F
:1040900000480140704710B504460068416994F833
:1040A0003920C1F3C011212A0BD151B1416921F04E
:1040B00080014161206B08B1FDF784FE204601F0CC
:1040C00039FC2068416994F83A20C1F38011222A12
:1040D0000BD151B1416921F040014161606B08B1E0
:1040E000FDF770FE204601F017FC002010BD704760
:1040F00070B5026804461068D168536910F00F0F5C
:1041000052D003F0010501F490762E435FD0C20730
:1041100005D0CA0503D5E26B42F00102E263420713
:1041200005D5DA0703D0E26B42F00202E2638207B0
:1041300005D5DA0703D0E26B42F00402E26302071E
:1041400007D501F020022A4303D0E26B42F00802B7
:10415000E263E26B002A33D0800604D5880602D5DC
:10416000204601F0F0FB20684069E16BC0F380104D
:10417000090700D428B3204601F0CEFB206841692E
:1041800049061AD5416921F040014161606BA0B137
:104190001B490165606BFDF75CFE002810D0606B69
:1041A000016DBDE870400847830610D58B060ED51B
:1041B0002046BDE8704001F0C6BB2046FFF797FFE0
:1041C00070BD2046FFF793FF0020E06370BD03063B
:1041D00006D50B0604D52046BDE8704001F092BC20
:1041E0004006F3D54806F1D5D168204621F04001BC
:1041F000D160202184F8391000F094F970BD0000DE
:104200007958002070B5040004D094F839000025D6
:1042100010B106E0012070BD84F83850204600F04F
:1042200023F8242084F839002068C16821F4005163
:10423000C160204601F0D2FB2068016921F4904161
:1042400001612068416921F02A0141612068C1684B
:1042500041F40051C160E563202084F8390084F8FE
:104260003A00002070BD0000F0B587B0064614216A
:104270006846FCF761F8334F306800253249022266
:1042800003230724B8423DD12F481430076847F074
:1042900010070760006800F010000590086840F003
:1042A000010008600868694600F0010005905802A6
:1042B0008DE82500CDE903342448FEF7EFF8254CBE
:1042C000234820604FF00060C4E901054014C4E9B0
:1042D000035065614FF44030A561C4E907502046A2
:1042E0006562FDF799FE08B1FDF77FFA746300225D
:1042F00005212520A663FEF731FD2520FEF720FDD0
:1043000007B0F0BD144EB042FAD10F481030066825
:1043100046F480260660006800F480200590086856
:1043200040F0020008600868694600F0020005904D
:104330004FF440608DE82500CDE903340748FEF7CF
:10434000ADF8DDE7001001403038024000000240C7
:1043500040640240EC92012000480040000402400A
:10436000F8B5044690F83A0020283CD1C1B3BAB35E
:1043700094F83800012836D0012084F83800A16272
:10438000A2850025E563222084F83A00636B174874
:10439000D863636B16481864636B1648D864606B07
:1043A000134605650846666B216802463046091DBE
:1043B000FDF79CFE206801684168009184F8385040
:1043C000C16841F48071C1602068416941F0010118
:1043D00041612068416941F0400141610020F8BD20
:1043E000FFE70120FBE70220F9E70000D358002097
:1043F0000F5900208958002090F83A30202B22D104
:10440000F9B1F2B190F83830012B1CD0816282856D
:10441000C2850021C163222280F83A2080F838103A
:104420000168CA6842F48072CA6001684A6942F051
:1044300001024A610068C16841F02001C1600020AA
:10444000704701207047022070470000006804494F
:10445000884203D10348006802F03CBD7047000069
:10446000001001401885012070472DE9F8430446EB
:1044700090F839001F4616460D46202850D1B5B198
:10448000AEB194F8380001284AD0012084F83800F1
:104490004FF00008C4F83C80212084F83900FEF772
:1044A000F1F8A6848146E68484F8388026E001206D
:1044B000BDE8F883E08C401EE084A0684B46B0F570
:1044C000805F4FF000024FF080012046009703D03C
:1044D00001F049FBE8B90DE001F045FBC8B92888B7
:1044E0002168C0F308004860206908B16D1C05E030
:1044F000AD1C03E0216815F8010B4860E08C002832
:10450000D8D14B46002240212046009701F02BFBDA
:1045100008B10320CCE7202084F839000020C7E749
:104520000220C5E77047FEE701684A69D243520599
:104530000FD46FF480624A61002140F8301F2022BE
:1045400042738173026942F0040202610173012027
:1045500070470020704700002DE9F84F04460068BE
:1045600089460B9D01689846174641F480610160B9
:104570002068016841F48071016000954FF0011BD3
:104580000022594620460A9B00F064F84FF4007A56
:1045900040B120680068C00501D5C4F840A00320E0
:1045A000BDE8F88F216809F0FE0008612B46284914
:1045B00020460A9A00F082F8F0BB206841698069C1
:1045C00000902A4620460A9900F0F6F840B1206C87
:1045D00004283AD12068016841F40071016034E098
:1045E000FEB2B8F1010F09D02168380A08612A46E5
:1045F00020460A9900F0E0F80028E8D1206806611A
:104600002A4620460A9900F0D7F80028DFD1206812
:10461000016841F4807101600095002259462046EE
:104620000A9B00F017F80028B3D1216809F0FF00B9
:1046300040F00100086100E007E02B4604492046F5
:104640000A9A00F03BF80028AAD00120A8E7000051
:10465000020001002DE9F0471E4690460D46044633
:10466000C1F30747DDF8209008E0701C06D0FEF784
:1046700009F8A0EB0900B0420FD876B12068012FED
:1046800018D0806925EA00000004000C14D0002135
:104690004145EAD00020BDE8F087002044F8300F03
:1046A00020216173A073216941F0200121612073F1
:1046B0000120F0E74069E5E70121E9E72DE9F0474E
:1046C0009A4691460E46044600254FF02008C1F355
:1046D000074725E020684069C043400514D420689E
:1046E000016841F40071016021686FF480604861E5
:1046F000256384F83D8084F83E50206C40F004002F
:10470000206484F83C501FE0B9F1FF3F08D0FDF76A
:10471000B9FFA0EB0A0149450CD8B9F1000F09D047
:104720002068012F13D0806926EA00000004000CE5
:104730000BD0CFE744F8305F84F80D80A573206973
:1047400040F02000206125730120BDE8F08740691A
:10475000EAE72DE9F041002590460E460446202761
:1047600017E04069C043C0060CD454F8301B6FF00A
:104770001000486144F810596777A577206A2062D5
:10478000257717E0FDF77EFFA0EB0800B04208D8C0
:104790003EB120684169C9434906E2D40020BDE822
:1047A000F08144F8305F6773A573206940F0200002
:1047B000206125730120F2E770B516460D460446C8
:1047C0000DE02046FFF7B0FE08B1012070BD681C67
:1047D00005D0FDF757FF801BA84207D835B12068E8
:1047E0004069C0430006ECD4002070BD002044F8AE
:1047F000300F20216173A073216941F020012161F4
:104800002073E2E7034802490160312101717047DA
:104810005A5AA5A500FC0220006801228A401040D7
:1048200000D00120704700007FB500241548009497
:10483000019402941249039401604FF48031C0E95D
:1048400001140461047680F820400F49C0E90A147D
:104850000125C561C46080F830404561FDF774FAF8
:1048600008B1FCF7C2FF0948CDE90005694602948A
:104870000448FDF7B7F9002801D0FCF7B6FF7FBD6B
:1048800000200140988F01200100000F120000104D
:10489000094808B5016841F4800101600068002200
:1048A00000F48000009005213A20FEF757FABDE899
:1048B00008403A20FEF744BA3038024070B5002272
:1048C0001146012002F0AEFA404C414D606018B92B
:1048D0000421284600F010FE00221146012002F0BB
:1048E000A1FAA06018B90421284600F005FE0022B4
:1048F0000C21062002F03EF9E06018B90421284698
:1049000000F0FAFD334802F0E5F9206118B90421FE
:10491000284600F0F1FD2F4802F0DCF9606118B97B
:104920000421284600F0E8FD2A4802F0D3F9A061EE
:1049300018B90421284600F0DFFD264802F0CAF924
:10494000E06118B90421284600F0D6FD214802F0A4
:10495000C1F9206218B90421284600F0CDFD1D4898
:1049600002F0B8F9606218B90421284600F0C4FDCD
:10497000184802F0AFF9A06218B90421284600F0E7
:10498000BBFD144A0021A032134802F0DBFA114AA1
:10499000E06334320021114802F0D4FA0D4A20635A
:1049A000103200210E4802F0CDFA0A4AE062583275
:1049B00000210C4802F0C6FA064A60637C320021EE
:1049C000094802F0BFFAA06370BD00001485012001
:1049D00008FC0220788F0020B156002005790020C5
:1049E0007165002011800020E16800202DE9F04F62
:1049F00087B014216846FBF79FFC754800250168C5
:104A000041F040010160016801F040010591016839
:104A100041F002010160016801F0020105910168A5
:104A200041F008010160016801F008010591016889
:104A300041F480710160016801F4807105910168A1
:104A400041F001010160016801F001010591016877
:104A500041F004010160016801F004010591016861
:104A600041F020010160016801F020010591016819
:104A700041F080010160016801F080010591016849
:104A800041F0100101600068DFF8489100F010006B
:104A900041F601640590002221464846FDF7EDFDF0
:104AA000DFF834A1002206215046FDF7E6FD4FF461
:104AB0008046002231464948FDF7DFFDDFF820B18E
:104AC000002244215846FDF7D8FDB711002239468F
:104AD0004448FDF7D2FD002210214348FDF7CDFDEB
:104AE00000224FF420614148FDF7C7FD4FF4805884
:104AF000002241463E48FDF7C0FD0094012469466E
:104B000048460194CDE90245FDF7C8FC0620CDE9F1
:104B1000000469465046CDE90245FDF7BFFC60033D
:104B200000903448CDE9010469462C48FDF7B6FCF5
:104B3000CDE9006469462948CDE90245FDF7AEFCA0
:104B40004420CDE9000469465846CDE90245FDF709
:104B5000A5FCCDE9007469462248CDE90245FDF780
:104B60009DFC4FF4FE50CDE9000569461B480295B7
:104B7000FDF794FC1020CDE9000469461A48CDE900
:104B80000245FDF78BFC60028DE83100694617484D
:104B90000395FDF783FCE002CDE900046946134864
:104BA000CDE90245FDF77AFCCDE90084694610485D
:104BB000CDE90245FDF772FC002205212820FEF711
:104BC000CDF82820FEF7BCF807B0BDE8F08F000054
:104BD00030380240000C024000200240001C02401D
:104BE0000014024000180240000002400010024081
:104BF0000004024000002110144810B51249016061
:104C00001349416000214FF480428160C0E90312E2
:104C100041618161C1610162FDF77AFD08B1FCF774
:104C2000E4FD00210948FDF733FD08B1FCF7DDFD87
:104C300000210648FDF74DFD002803D0BDE81040D7
:104C4000FCF7D3BD10BD000000540040E08F0120F0
:104C5000A0860100144810B5124901601349416053
:104C600000214FF480428160C0E9031241618161FB
:104C7000C1610162FDF74CFD08B1FCF7B6FD0021F2
:104C80000948FDF705FD08B1FCF7AFFD0021064816
:104C9000FDF71FFD002803D0BDE81040FCF7A5BDBF
:104CA00010BD00000058004034900120A086010093
:104CB000094810B5074901600321416040F2DC5109
:104CC0008160FDF78BFF002803D0BDE81040FCF7A2
:104CD0008CBD10BD00300040889001200B4810B5FD
:104CE0000949016000217F22C0E90112FF22C0E9C9
:104CF000032141618161FEF7CDFC002803D0BDE8AE
:104D00001040FCF772BD10BD0028004094900120B7
:104D1000104810B50E4901604FF4827141600021C6
:104D20008160C1604FF400720161C0E90512102278
:104D3000C0E90721416281620A21C162FEF701FEDA
:104D4000002803D0BDE81040FCF74FBD10BD0000A7
:104D500000300140B4900120104810B50E490160A8
:104D60004FF48271416000218160C1604FF4007294
:104D70000161C0E905120822C0E907214162816290
:104D80000A21C162FEF7DDFD002803D0BDE8104016
:104D9000FCF72BBD10BD0000003800400C91012035
:104DA000104810B50E4901604FF482714160002136
:104DB0008160C1604FF400720161C0E905121022E8
:104DC000C0E90721416281620A21C162FEF7B9FD93
:104DD000002803D0BDE81040FCF707BD10BD00005F
:104DE0000034014064910120104810B50E49016063
:104DF0004FF48271416000218160C1604FF4007204
:104E00000161C0E905121022C0E9072141628162F7
:104E10000A21C162FEF795FD002803D0BDE81040CD
:104E2000FCF7E3BC10BD000000500140BC91012024
:104E3000104810B50E4901604FF4827141600021A5
:104E40008160C1604FF400720161C0E90512102257
:104E5000C0E90721416281620A21C162FEF771FD4A
:104E6000002803D0BDE81040FCF7BFBC10BD000017
:104E700000540140149201200C4810B50A49016009
:104E80004FF4E1314160002181600C22C160C0E932
:104E900004128161C161FFF7B5F9002803D0BDE8B4
:104EA0001040FCF7A2BC10BD001001406C92012024
:104EB0000C4810B50A4901604FF4E131416000210E
:104EC00081600C22C160C0E904128161C161FFF7F9
:104ED00099F9002803D0BDE81040FCF786BC10BD4E
:104EE00000480040AC920120FEE770472DE9F041F8
:104EF000012291034148FDF7C0FB414D01220221EF
:104F00002846FDF7BAFB01223E4E540221463046A8
:104F1000FDF7B3FB012291023046FDF7AEFB012203
:104F2000D1023046FDF7A9FB012211033046FDF7FF
:104F3000A4FB012211463046FDF79FFB012204210C
:104F40002846FDF79AFB304D012221462846FDF701
:104F500094FB012001F07AFD002221462846FDF74E
:104F60008CFBFFF74FFC294C0020294E207060700D
:104F7000B070FCF7C5FC2748FCF72AFE264D18B197
:104F80000421284600F0B8FA2249244B24480F791E
:104F900006224FB1012F0AD0022F05D00822C4E902
:104FA0000102497941B112E0C4E90132F9E71D4A31
:104FB00062600722A260F4E76168814207D0104670
:104FC000FCF787FCA8B10021284600F095FA3C21A7
:104FD000072000F013F93C21072000F043F93C21A1
:104FE000072000F075F9BDE8F0413C21072000F0F2
:104FF000A3B90120B0706070E9E70000001C024016
:1050000000200240000C0240001002405C8F012092
:1050100010850120808F012008FC02200000040878
:10502000000008080000060870B51546002403E0DB
:105030000A2001F00BFD641CAC42F9D370BD0109DC
:1050400001EB810100F00F0000EB4100C0B270479E
:10505000002102E00A38C0B2491C0A28FAD2090726
:1050600040EA11607047000070B504460068C168EE
:10507000490614D44FF0FF31C160FDF703FB05462C
:105080004FF47A7607E000BFFDF7FCFA401BB04210
:1050900001D9032070BD2068C0684006F4D5002007
:1050A00070BD00002DE9FF41154E0F4604464FF438
:1050B000FA71306801F0D8FD050017D1E007400F04
:1050C00000EB5400842141EA0010C2B232230221D5
:1050D00003A88DE80B00012390210A48FDF7DCFBB3
:1050E0000446306801F036FE1CB1681E04B0BDE80D
:1050F000F081BDF80C0040BA38802846F6E7000081
:1051000024850120E08F0120102801D200F004B88E
:105110004FF0FF30704700002DE9F04FDFF8D080EE
:105120008B46044685B04FF4FA71D8F8000001F0C0
:105130009BFD07004FD1102040EA54008DF8080075
:10514000E001DFF8B0A08DF809004FF400690022FB
:1051500049465046FDF791FA3225022301AA02A9D9
:1051600025480095FEF7B6FD064601224946504601
:10517000FDF783FA002249465046FDF77EFA0223E6
:1051800001AA02A91C480095FEF7A4FD06430122CE
:1051900049465046FDF771FA002249465046FDF750
:1051A0006CFA022301AA02A913480095FEF792FDAA
:1051B00040EA0605012249465046FDF75EFAD8F856
:1051C000000001F0C7FD7A1E25B99DF80400010911
:1051D000A14203D0104605B0BDE8F08F9DF8051040
:1051E00000F00F0041EA0021ABF800103846F2E76A
:1051F000348501200010024064910120F8B5164E5C
:105200000C4607464FF4FA71306801F02DFD050099
:1052100020D107F00700C4F3032141EA00108DF804
:1052200000008DF801400D4C002210212046FDF7B2
:1052300024FA6423022269460948FEF79DFC00B166
:105240006D1E012210212046FDF717FA306801F08B
:1052500081FD2846F8BD00002C8501200000024099
:10526000B4900120F8B5174E0C4607464FF4FA717A
:10527000306801F0F9FC050022D107F00700C4F303
:10528000032141EA00108DF800008DF801400E4F17
:105290004FF48054002221463846FDF7EEF964238E
:1052A000022269460948FEF767FC00B16D1E012223
:1052B00021463846FDF7E1F9306801F04BFD2846FC
:1052C000F8BD000030850120000402400C9101204F
:1052D000F8B5164E0C4607464FF4FA71306801F0E7
:1052E000C3FC050020D107F00700C4F3032141EA05
:1052F00000108DF800008DF801400D4C0022402177
:105300002046FDF7BAF96423022269460948FEF7F0
:1053100033FC00B16D1E012240212046FDF7ADF99E
:10532000306801F017FD2846F8BD000038850120DF
:1053300000140240BC910120F8B5174E0C460746F8
:105340004FF4FA71306801F08FFC050022D107F0AC
:105350000700C4F3032141EA00108DF800008DF826
:1053600001400E4F4FF48074002221463846FDF76D
:1053700084F96423022269460948FEF7FDFB00B167
:105380006D1E012221463846FDF777F9306801F09D
:10539000E1FC2846F8BD00003C85012000180240D1
:1053A0001492012010B5134C134A216891420FD179
:1053B000207968B131280BD2FCF7A8FB0F4900EB2C
:1053C000400001EB40008078FBF7A2FC01200BE0DD
:1053D00091420BD00120FBF79BFC0220FBF798FCCD
:1053E0000320FBF795FC0420FBF792FC00202071C2
:1053F00010BD000000FC02205A5AA5A57C840120A3
:1054000010B50220FCF748FA002010BD38B504465C
:105410001248134B0068B0FBF3F04FF47A73584313
:1054200000906068B0F5827F0DD10B46009200229B
:105430008021204600F016F870B1606D40F0200029
:105440006065032038BD009830B1401E0090206890
:105450008068C0430006F6D5002038BD6085012075
:1054600000366E012DE9F0411D4617460E460446F2
:10547000DDF8188008E0681C06D0FDF703F9A0EB02
:105480000800A8420BD255B12068806836EA0000B7
:1054900030D00020B842EED10020BDE8F081206875
:1054A000416821F0E00141606068B0F5827F0BD176
:1054B000A068B0F5004F02D0B0F5806F04D120682D
:1054C000016821F040010160A06AB0F5005F09D1D8
:1054D0002068016821F4005101602068016841F4EE
:1054E00000510160012084F85100002084F8500030
:1054F0000320D2E70120CDE7012302688B401A4345
:10550000026070472DE9FC5F0746312807D0FCF7A1
:10551000FDFA040007D54FF0FF30BDE8FC9FFFF710
:1055200041FF0020F9E7304D04EB4409DFF8BCA04F
:1055300005EB49084FF0010B98F802609AF8040057
:1055400078B15846FBF7E4FB9AF80400FCF7DEFA62
:10555000A04206D000EB400005EB40008078FBF74E
:10556000D7FB052E21D215F81900B8F80410381A07
:1055700001EBC00085B26946284601F0A9F910B1D7
:105580006FF00100C9E72D1DA8B201A901F0A0F933
:1055900010B16FF00200C0E7DDE90012304602F002
:1055A0005FF910B16FF00300B7E74FF6FF7000EA44
:1055B000C4046946204601F08BF910B16FF0040075
:1055C000ABE7241DA0B201A901F082F910B16FF080
:1055D0000500A2E7DDE90012584602F041F9002873
:1055E0009BD06FF0060098E77C84012000FC02202D
:1055F00070B500224FF480410948FDF73EF80122C2
:10560000084D540221462846FDF737F8012001F0E5
:105610001DFA21462846BDE870400022FDF72DB84E
:10562000001C02400010024070B51E4C01221E4DAD
:105630002079022182432846FDF71FF820791B4E6E
:10564000401EC0F3400269153046FDF716F8207978
:105650002915401EC0F380023046FDF70EF8207970
:10566000E914401EC0F3C0023046FDF706F8207969
:10567000A914401EC0F300123046FCF7FEFF20794B
:105680000121401EC0F340123046FCF7F6FF20799E
:10569000401EC0F380122846BDE870400421FCF78C
:1056A000ECBF000000FC022000200240000C024081
:1056B000012001F0CBF9FBE710B5502080F31188F1
:1056C000BFF34F8FBFF36F8F03F078FA18B104491F
:1056D0004FF080500860002080F3118810BD00005A
:1056E00004ED00E030B59FB030216846FAF724FEA3
:1056F000142118A8FAF720FE30210CA8FAF71CFE96
:1057000020480025016841F080510160006800F0E8
:1057100080501D901C48016841F4404101600068C0
:10572000022400F440401D900D2000904FF4803082
:10573000019001200290CDE9050480050790142016
:1057400008904FF4B470CDE9090404200B9068462A
:10575000FDF7A4FDFDF734FB18A90F2081E8310007
:105760004FF4A0501B90E0021C90052118A8FDF7F3
:1057700089FC20200C90C00016900CA8FDF758FB67
:105780001FB030BD4038024000700040044801683E
:1057900041F4700101600249800680390860704759
:1057A00088ED00E00148FEF7B6BB00004C930120F5
:1057B000F0B50268254C264D264E274F274B4FF05B
:1057C000804CA04209D0604507D0A84205D0B04225
:1057D00003D0B84201D0984204D122F0700E4A683A
:1057E00042EA0E02A0421BD0604519D0A84217D051
:1057F000B04215D0B84213D0984211D0184DA842EB
:105800000ED0184DA8420BD0174DA84208D0174D06
:10581000A84205D0164DA84202D0164DA84203D189
:1058200022F44075CA682A434D6922F080022A4357
:1058300002608A68C2620A688262A04201D098420D
:1058400001D10969016301214161F0BD00000140FE
:105850000004004000080040000C0040000401402B
:105860000040014000440140004801400018004051
:10587000001C00400020004010B5806B0021C18555
:10588000C184FEF734FC10BD70B5846B206840699C
:1058900094F83910C0F3C0100025212904D118B1A3
:1058A000E584204600F046F82068406994F83A10F4
:1058B000C0F38010222904D118B1E585204600F0FC
:1058C0002BF8E06B40F01000E0632046FEF70FFC81
:1058D00070BD10B50146806B09680968C90513D40D
:1058E0000021C1850168CA6822F48072CA6001681B
:1058F0004A6922F001024A6101684A6922F04002C5
:105900004A61202180F83A10FEF7A0FD10BD10B5C5
:10591000806BFEF7A9FD10BD0168CA6822F4907281
:10592000CA6001684A6922F001024A61202180F8B8
:105930003A1070470168CA6822F0C002CA6020218C
:1059400080F83910704710B590F83A10222901D02C
:10595000022010BD8168B1F5805F11D00169002976
:1059600001681FD0496801F07F03816A4A1C826286
:105970000B70C18D491E0904090CC18518D02BE09C
:105980000269816A002A0268526805D0D2B20A8090
:10599000816A491C8162ECE7C2F308020A80816ACD
:1059A000891CF7E74A68816A4B1C83620A70E0E74A
:1059B0000168CA6822F02002CA600168CA6822F43D
:1059C0008072CA6001684A6922F001024A6120219E
:1059D00080F83A10FEF73AFD002010BD2DE9F041A5
:1059E000044600680169E26821F4405111430161F5
:1059F0002169A068E269084361691143084321688D
:105A0000CA6849F20C639A430243CA60206841693C
:105A1000A26921F4407111434161E06919276425AD
:105A20003226B0F5004F354A354920684FF000085E
:105A300006D0884201D0904236D1FDF7EDFB35E02B
:105A4000884201D0904202D1FDF7E6FB01E0FDF76C
:105A5000D3FB61684A18A0FB070148EB0803FAF77B
:105A600021FC0146B0FBF5F00201B1FBF5F06FF04F
:105A70001803584301EB800006EBC000B0FBF5F0C3
:105A800000F0F80002EB4002B1FBF5F0584301EBE7
:105A9000800006EBC000B0FBF5F000F007002168C5
:105AA00010448860BDE8F081FDF7A6FB61688B0FAC
:105AB0008A00A0FB0701FAF7F5FB0146B0FBF5F001
:105AC0006FF01802504301EB800006EB0010B0FBB2
:105AD000F5F000F0F002B1FBF5F002EB0012B1FBC3
