:020000042000DA
:10000000C8E0012081020020BF3D002057360020BB
:10001000BD3D002003070020CD4A00200000000065
:10002000000000000000000000000000C1010020EE
:10003000FD0D0020000000001D02002001450020F1
:100040009B0200209B0200209B0200209B020020BC
:10005000B10E00209B0200209B0200209B0200208A
:100060009B0200209B0200209B0200209B0200209C
:100070009B0200209B0200209B0200209B0200208C
:100080009B0200209B0200209B0200209B0200207C
:100090009B0200209B0200209B0200209B0200206C
:1000A0009B0200209B020020ED4500209B020020C7
:1000B0009B0200209B0200209B0200209B0200204C
:1000C0009B0200209B0200209B0200209B0200203C
:1000D0009B020020214A00209B0200209B0200205E
:1000E000FF0D00209B0200209B0200209B020020AD
:1000F0009B0200209B0200209B0200209B0200200C
:100100009B0200209B0200209B0200209B020020FB
:100110009B0200209B020020F94500209B0200204A
:100120009B0200209B0200204D0D00209B0200201E
:100130009B0200209B0200209B0200209B020020CB
:100140009B0200209B0200209B0200209B020020BB
:100150009B0200209B0200209B0200209B020020AB
:100160009B0200209B0200209B0200209B0200209B
:100170009B0200209B0200209B0200200000000048
:100180009B0200209B0200209B0200209B0200207B
:100190009B0200209B0200209B0200209B0200206B
:1001A00000000000000000009B020020DFF80CD0DF
:1001B00000F0B8F900480047D9510020C8E00120FC
:1001C0002C4B19680868B0E8F04F80F30988BFF33A
:1001D0006F8F4FF0000080F311887047000000001F
:1001E00008480068006880F308884FF0000080F33A
:1001F000148862B661B6BFF34F8FBFF36F8F00DF15
:1002000000BF00BF08ED00E0DFF80C00016841F41A
:1002100070010160704700BF88ED00E0EFF30980D6
:10022000BFF36F8F134B1A681EF0100F08BF20ED3D
:10023000108A20E9F04F106009B44FF0500080F3AD
:100240001188BFF34F8FBFF36F8F06F07BFB4FF02A
:10025000000080F3118809BC19680868B0E8F04F05
:100260001EF0100F08BFB0EC108A80F30988BFF3AE
:100270006F8F704740850120EFF3058070470000C5
:100280000648804706480047FEE7FEE7FEE7FEE730
:10029000FEE7FEE7FEE7FEE7FEE7FEE7D5450020C6
:1002A000AD0100202DE9F05F0546002092469B46F7
:1002B00088460646814640241BE02846414647467C
:1002C000224600F0CBF853465A46C01A914110D34B
:1002D00011461846224600F0B2F82D1A67EB0108C5
:1002E0004F4622460120002100F0A9F817EB000933
:1002F0004E41201EA4F10104DFDC484631462A4667
:100300004346BDE8F09F40EA01039B0703D009E0A4
:1003100008C9121F08C0042AFAD203E011F8013BF1
:1003200000F8013B521EF9D27047D2B201E000F84A
:10033000012B491EFBD270470022F6E710B5134689
:100340000A4604461946FFF7F0FF204610BD10B5D7
:10035000044604E00B7800F8013B03B1491C521E2F
:10036000F8D2204610BD10B5002200E0521C835C7C
:100370008C5CA34201D1002BF8D1D8B2E1B2401A73
:1003800010BD30B505460020034600E05B1C9342DB
:1003900005D2EC5CC85C201A01D1002CF6D130BD2E
:1003A0002DE9F05F93460F4680460446002604F090
:1003B000B3FBD0F80090824614F8015B2DB100F039
:1003C0005DF80068405DC007F6D12B2D02D02D2DC1
:1003D0001AD0641E0021CAF800105A463946204639
:1003E00000F050F8014627B13868A04201D1C7F8A3
:1003F0000080DAF80000022809D0CAF800907005E1
:1004000005D54842BDE8F09F46F48066E2E708461D
:10041000F8E730B50B46014600202022012409E010
:1004200021FA02F59D4205D303FA02F5491B04FAAD
:1004300002F52844151EA2F10102F1DC30BD202A8C
:1004400004DB203A00FA02F1002070479140C2F12B
:10045000200320FA03F3194390407047202A04DB5D
:10046000203A21FA02F00021704721FA02F3D0402D
:10047000C2F1200291400843194670470048704776
:100480009C7A00202DE9F05F82460078002715460F
:100490008B460AF10104B946302801D09DB113E022
:1004A00014F8010B0127782803D0582801D045B152
:1004B0000AE00DB1102D07D10027102514F8010B0B
:1004C00002E0082500E00A250026B0460EE005FB04
:1004D000080005FB06F1012701EB10461FFA80F822
:1004E000B6F5803F00D3B94614F8010B294600F059
:1004F0002BF80028EBDABBF1000F05D00FB1641E1A
:1005000000E05446CBF80040B9F1000F06D004F0EB
:1005100003FB02210160C81EBDE8F09F48EA0640C7
:10052000FAE70000064C074D06E0E06840F00103E2
:1005300094E8070098471034AC42F6D3FFF73AFE30
:10054000147B0020347B00203A2800D2303820F081
:100550002002412A01D3A2F13700884201D34FF093
:10056000FF30704770B58C1810F8015B15F0070369
:1005700001D110F8013B2A1106D110F8012B03E03C
:1005800010F8016B01F8016B5B1EF9D12B0705D444
:100590000023521E0DD401F8013BFAE710F8013B8D
:1005A000CB1A921C03E013F8015B01F8015B521EA9
:1005B000F9D5A142D8D3002070BD0000464910B53E
:1005C0004A6822F440324A604A6843681A434A60E3
:1005D00001684A6822F480724A6001684A680369C7
:1005E00042EA03224A6001684A6822F040724A6087
:1005F00001684A6883681A434A6001688A6822F47D
:1006000000628A6001688A68C3681A438A60816AE6
:100610006FF07062D14201688A6822F070628A606D
:1006200001688A680CD0836A1A438A6001688A6804
:1006300022F040528A6001688A68C36A1A4301E066
:1006400022F040528A6001688A6822F002028A60C1
:1006500001688A68037E42EA43028A6090F82010AB
:10066000002901684A680FD042F400624A600168BC
:100670004A6822F460424A6001684A68174C436A3B
:1006800004EB43331A4301E022F400624A6001683C
:10069000CA6A22F47002CA620168CA6A838B104C6B
:1006A00004EB03531A43CA6201688A6822F4007299
:1006B0008A6001688A6890F8303042EA43228A6092
:1006C00001688A6822F480628A6001688A684069E9
:1006D00042EA8020886010BD0023014000E0FFFF57
:1006E0000000F0FF020E0A70020C4A70020A8A70C3
:1006F000C87070470168C07809BA21F0FF0108434B
:100700007047FEE730B54FF0FF330022064C07E09C
:10071000855C5D40EDB2521C54F8255085EA1323E8
:100720008A42F5D3D84330BD4880012078B51446BD
:100730000D460646002309E0F01880B2694604F031
:10074000FBFCE9180098FFF7CDFF1B1DA342F3D374
:10075000002078BD10B5052801D3002010BD00226F
:10076000C0B2114605F0B6FC0028F7D04FF0FF30BC
:1007700010BD000070B5012291030A4801F08BFA08
:100780000122094D54022146284601F084FA012035
:1007900004F096FD21462846BDE87040002201F095
:1007A0007ABA0000001C0240001002402DE9FC5FF4
:1007B00063488146FFF79EFF624F0025624942F27F
:1007C000837A6FF0004607F13C04BD64884202D092
:1007D0005046266097E009F10400FFF78BFF5B4A63
:1007E0005B49904206D10D70C4E900654046A560A2
:1007F000BDE8FC9F09780029EAD151494FF004086F
:10080000113901F11902131D01F1210B0093012887
:100810001BD005282BD0062836D009284CD04FF005
:10082000FF390D2854D020285DD0FD2876D0FE2831
:100830007DD0FF287FD02128CAD1BD6404F06AFC96
:10084000C4F80880C4E90060D2E71046BD64FFF731
:1008500051FF05460098FFF74DFF07465846FFF742
:1008600049FF0246E8B2394604F05AFCE8E7104670
:10087000BD64FFF73FFF05460098FFF73BFFC1B29D
:10088000E8B204F02BFCDBE71046BD64FFF732FF53
:1008900005460098FFF72EFF82465846FFF72AFFCD
:1008A000074609F11400FFF725FF0346E8B23A4670
:1008B000514604F0D5FBC3E71046BD64FFF71AFFAD
:1008C00001A904F0A5FBC4E900600199A1608FE7CC
:1008D000BD6403F043FC08B14846B1E7C4F80880A2
:1008E000C4E9006515E01046BD64FFF703FF074645
:1008F0000098FFF7FFFE81B20190F8B203F028FBE9
:1009000020B148462660C4E9010571E7C4E90065E5
:10091000A56000206CE701E009E00CE009485522E1
:1009200004214830FFF701FD04F06AFB88E7BD644D
:1009300004F0CCFA84E7BD6404F0C4FB80E7000057
:10094000CD8501203C8A0120A5A55A5A785634123B
:10095000E384012070B50E4C74212046FFF7ECFCB7
:100960000C4D1434082220462968FFF7F0FC04F1EE
:100970001D000522A968FFF7EAFCA4F12000302140
:1009800001600021416078218160002070BD00007D
:10099000848A01200080012070B5174D55F8090F99
:1009A00005F07AFC0446686805F076FC03460021F1
:1009B000124A13480D4600BF01EB410650F826606D
:1009C000A64210D101EB410100EB8101886868B1BA
:1009D00049684E1C04D0994202D042F2A47007E04C
:1009E000BDE870400047491C0529E5D342F28370F9
:1009F0009560C2E9004070BDBC850120788A012065
:100A00000C8001202DE9F84F894D05F2BC4455F8C2
:100A1000110F05F041FC8146686805F03DFC074672
:100A20004FF0000A484605F037FCE06004F5986096
:100A30001126017808354FF00808012902D042F24A
:100A40008370A9E07B4842F2A57BC069B84201D21D
:100A50005846A1E078490091B9F1010F0FD07548CF
:100A600001694A1C4A4502D1027B032A04D0494548
:100A7000EED1017B0229EBD1C0F810906EE0B842B4
:100A8000E6D16E486E4902786948393092B30968F8
:100A9000FFF769FC0028DBD16AA12846FFF763FC59
:100AA0000028D5D14946DFF88C91C9F810100021F3
:100AB000C9F82010D5F8C01095F8C32009BA21F064
:100AC000FF011143C9F81810D5F8C42095F8C730B4
:100AD00012BA22F0FF021A43C9F81420B1F5C03F40
:100AE000B6D8564801784FF4167091B15A49097832
:100AF00009B32FE0FFE752490968FFF734FC0028EB
:100B0000A6D14F480322416805F14000FFF739FCA8
:100B1000C6E752494979E9B95149097871B902E002
:100B200004F0CEFB36E04F49D9F804208A4211D0B8
:100B3000D9F8080007E04A49097819B199F8011075
:100B400041B9EDE7082000F0D2F9A8B100210098E2
:100B500003F080FB05F58075A7F58077DFF800913D
:100B600099F8000070B151460AF1010A062909D22C
:100B7000642004F0A5FBF3E739490120087089F8E7
:100B80000100E7E74FF00209BAF1060F0AD329493D
:100B900081F80C9042F27D70C4F80880C4E90060CE
:100BA000BDE8F88FDFF894A09AF8000030B12A4829
:100BB000017881B19FB30021017010E0274841798D
:100BC00049B167B30021417103F072FF20B11949A7
:100BD00081F80C903CE717B39AF8000088B1DFF871
:100BE00054A02048BA08DAF820100844294600F03A
:100BF000A1F978B10121009803F02CFB8AF80C9040
:100C000026E7DFF830A0BA08DAF80410DAF8200096
:100C10000844EBE7DAF820103944CAF820100548F8
:100C2000032101730020C4F80880C4E90060B7E71D
:100C3000BC850120388F012008FC0220E0840120BF
:100C4000008001204F5357317836345F426F6F7404
:100C50006C6F616465720000E18401205C8F01208B
:100C6000E28401200000080870B51048D0F8150093
:100C700005F012FBA0F580710D4A10240423B1F594
:100C8000407F01D8810705D042F27D701460C2E92F
:100C9000010370BD074901250D70C861002008736C
:100CA000086108621460C2E9010370BDBC850120BF
:100CB000788A0120388F01202DE9F047204812263C
:100CC00004270178A0F59864012902D042F28370CC
:100CD00014E0026A81696FF008058A4202D1026954
:100CE000032A01D2284609E080464068FFF70AFD42
:100CF000D8F81420824206D06FF00900A760C4E93A
:100D00000060BDE8F0870F484FF00009DFF838C0F9
:100D100080F80590D8F80430634501D1012300E044
:100D200002230371D8F81810C0E90212054803F035
:100D3000BFFE0028D6D1A760C4E90069E1E7000042
:100D4000388F01205C8F012000000408014800F06A
:100D5000A1BB00003493012001681823CAB2103AE5
:100D6000B2FBF3F2054B6FF30901032A9B5CC365E9
:100D700000D9091D8165084670470000F8790020F8
:100D800010B5014600208B698A6A4FF0C07453B1D8
:100D9000B3F5005F15D072B1012A0CD0022A0AD037
:100DA000032A09D104E01AB1012A06D0022A03D18C
:100DB000C96AC90100D5012010BDC96AA142FAD093
:100DC00010BD002AF7D0012AF2D0022AF3D0032A5C
:100DD000F3D010BD30B50468256825F48025256062
:100DE000046863608368402B036803D099600068DF
:100DF000C26030BD9A600068C16030BD70474FF47A
:100E0000005000F04DBE7047002229B101291DD0CD
:100E100002291ED04FF440720B2800D9001D0E4944
:100E20000B6823F440730B600B6813430B600A6874
:100E300022F0F8020A600A68022303EBC0000243B2
:100E40000A60086840F48030086070474FF4807290
:100E5000E2E74FF40072DFE7103C024013480168FC
:100E600089050FD5016821F400710160016841F422
:100E700000610160016821F400610160016841F4D2
:100E800000710160016849050FD5016821F4806196
:100E90000160016841F480510160016821F48051D2
:100EA0000160016841F4806101607047003C0240CC
:100EB00000F01EBD30B587B0002504460595182802
:100EC00010D200F0C5FD0120CDE9010403900220FD
:100ED0000490009505A9684600F060FC044600F007
:100EE0006DFD14B1012007B030BD0020FBE710B547
:100EF00086B0044618280ED200F0AAFD0120CDE9E4
:100F0000010403900020009002200490684600F045
:100F100093FC002800D0012006B010BD10B500F0F1
:100F200097FD034991200860BDE8104000F046BDE0
:100F30000C3C02402DE9F04700261746894605463D
:100F4000344600F085FDDFF83C8012E059F824209B
:100F500000232946022000F03DFD08B103260CE0E5
:100F600059F824002968814201D0022605E0641C5A
:100F70002D1DBC4201D24545E8D900F01FFD304689
:100F8000BDE8F087F8FF1F080E4A136823F440738A
:100F9000136003290DD0012911680FD041F40041DD
:100FA000116011684FF4803343EA0020014311605F
:100FB0007047116848F204031943F1E741F0040156
:100FC000EEE70000103C0240064A136823F4407329
:100FD000136013681360136843F00103136001701A
:100FE00070470000103C0240094910B50C6824F419
:100FF00040740C600C6844F440740C600C6844F05D
:1010000001040C600260BFF36F8F436010BD0000ED
:10101000103C0240074A136823F4407313601368BE
:1010200043F480731360136843F00103136001807D
:1010300070470000103C0240074A136823F44073D5
:101040001360136843F400731360136843F00103E3
:101050001360016070470000103C02401C490868A2
:10106000C2061C4805D5C26942F01002C2611022B6
:101070000A600A68920605D5C26942F00802C26198
:1010800020220A600A68520605D5C26942F00402AD
:10109000C26140220A600A68120605D5C26942F0A0
:1010A0000202C26180220A600A68D20506D5C269BE
:1010B00042F00102C2614FF480720A600A6892072E
:1010C00005D5C26942F02002C26102200860704763
:1010D0000C3C0240D493012070B511490446002015
:1010E000C86100F0DDFD06460E4D09E0601C07D02A
:1010F00024B100F0D5FD801BA04201D9032070BDB2
:101100002868C003F2D42868C00701D001202860F5
:10111000286810F4F970F2D0FFF7A0FF012070BD2D
:10112000D49301200C3C024030B50D4903460C4AD3
:1011300000200968121D0BE000EB400412F8145067
:101140009D4204D802EB440464789C4202D2401CC5
:101150008842F1D3884201D34FF0FF3030BD000008
:101160004884012070B5204D00244FF4805128465A
:1011700000F08CFD012800D140244FF40061284686
:1011800000F084FD012801D144F020044FF4806177
:10119000284600F07BFD012801D144F010044FF4F3
:1011A0000071284600F072FD012801D144F00804C6
:1011B0004FF48071284600F069FD012801D144F008
:1011C00004048021284600F061FD012801D144F08B
:1011D00002044021284600F059FD012801D144F0C5
:1011E0000104601C70BD0000001C024010B51822F4
:1011F0000249FFF788F8002010BD000000800008B9
:1012000078B50024009490F83C20012A19D00122DE
:1012100080F83C200A6807230568092A13D9EE687C
:101220000A3A02EB420293409E43EE600B788A68D2
:101230000A3B03EB43039A400368DD682A43DA6004
:1012400010E0022078BD2E6902EB420293409E43DB
:101250002E610B788A6803EB43039A4003681D698B
:101260002A431A614A681F23072A13D205686E6B46
:10127000521E02EB820293409E436E630A8893B231
:101280000A79521E02EB820293400268556B2B438F
:10129000536327E005680D2A12D22E6BD21F02EB92
:1012A000820293409E432E630B790A88DB1F92B221
:1012B00003EB83039A4003681D6B2A431A6311E012
:1012C000EE6A0D3A02EB820293409E43EE620B7986
:1012D0000A880D3B92B203EB83039A400368DD6AF0
:1012E0002A43DA621B4B0568194A9D420AD10D68F0
:1012F000122D07D1556825F400055560556845F451
:101300008005556005689D421DD1134D0B68AB42A9
:1013100001D0112B17D1536823F480035360536815
:1013200043F4000353600968A9420CD10B490C4AED
:101330000968B1FBF2F101EB8101490000E0491EAF
:1013400000910029FBD180F83C40002078BD0000CE
:101350000023014000200140120000103C850120C4
:1013600040420F0070B504004FF0000503D0206C20
:10137000002610B107E0012070BD204600F01CF8E7
:10138000666484F83C60206CC00610D4206C20F4A5
:10139000885040F0020020642046FFF70FF9666491
:1013A000206C20F0020040F00100206400E00125E4
:1013B00084F83C60284670BD08B50068064988423C
:1013C00008D10648016841F480710160006800F4AA
:1013D0008070009008BD00000020014044380240A9
:1013E0002DE9F0410446876D00F05AFC064694F85A
:1013F00035000025022806D08020606584F834502E
:101400000120BDE8F0812068016821F0160101602B
:101410002068416921F080014161206C08B9A06C0D
:1014200020B12068016821F008010160206801688E
:1014300021F0010101600BE000F032FC801B052867
:1014400006D92020606504F8345F03206070D8E777
:1014500020680068C007EFD194F85C103F208840F6
:10146000B86004F8345F012060700020C9E790F88C
:101470003510022903D080214165012070470521E4
:1014800080F835100068016821F00101016000203A
:10149000704700002DE9F84304464FF00009CDF8ED
:1014A000009063484FF41651A56D0068B0FBF1F74A
:1014B0002E6894F85C10082000FA01F131420FD038
:1014C00021680A6852070BD50A6822F004020A60F4
:1014D00094F85C108840A860606D40F00100606581
:1014E00094F85C104FF0010808FA01F0304208D07F
:1014F00021684969090604D5A860606D40F00200C2
:10150000606594F85C1004208840304208D021685F
:101510000968890704D5A860606D40F00400606523
:1015200094F85C1010208840304218D02168096877
:10153000090714D5A86020680168490304D500682C
:10154000000308D5A16C07E00168C90503D4016850
:1015500021F008010160216C09B12046884794F808
:101560005C1020208840304231D021680968C906CB
:101570002DD5A86094F8350005282068016806D0AC
:10158000490347D5006800031DD4616C1CE021F0BD
:10159000160101602068416921F080014161206CE1
:1015A00008B9A06C20B12068016821F00801016031
:1015B00094F85C103F208840A86084F8349084F848
:1015C0003580216D1FE0E16B09B120468847606DD1
:1015D00000282BD0606DC00714D0052084F835009A
:1015E0002068016821F0010101600098401C009012
:1015F000B84203D820680068C007F6D184F8349058
:1016000084F83580E16C002910D001B02046BDE897
:10161000F04308470168C905D5D4016821F01001DD
:10162000016084F8349084F83580CCE7BDE8F88315
:101630003C8501202DE9F041044600F031FB0646CF
:101640005CB1002584F83450022084F8350020680D
:10165000016821F0010101600DE00120BDE8F08189
:1016600000F01EFB801B052805D9202060650320A3
:1016700084F83500F2E720680068C007F0D12268DE
:10168000116820480140D4E901031843D4E9033626
:101690003343184363691843A3691843E369184344
:1016A000236A18430843616A042903D1D4E90B1360
:1016B00019430843106020684069666A20F00701FA
:1016C00030460E43012704280CD1A06A0643E06A85
:1016D00040B12046FFF754FB20B14020606584F8FC
:1016E0003570BAE7206846612046FFF735FB94F86D
:1016F0005C203F2191408160656584F83570002051
:10170000ACE700003F8010F02DE9F0410446866D03
:1017100090F83400002501280DD0012084F8340011
:1017200094F835700020012F07D084F8340002258A
:101730002846BDE8F0810220FBE7022784F83570D7
:1017400060652046FFF746FB94F85C103F20884018
:10175000B0602068016841F016010160206C20B182
:101760002068016841F0080101602068016841F0CB
:1017700001010160DCE7000070B5044600F090FA5A
:101780000546601C02D004480078044400F088FA42
:10179000401BA042FAD370BD308501202DE9F047EF
:1017A000044623480F46017E01290AD001218046C4
:1017B00001764CF250394846FFF78EFC020003D008
:1017C00030E00220BDE8F0874FF0FF30386020683D
:1017D000184D012801D0A6681DE0207C6168FFF744
:1017E000D3FB4846FFF778FC0246286848F204011C
:1017F0008843286014E0217C3046FFF705FB48460B
:10180000FFF76AFC0200286820F0FA00286001D087
:101810003E6005E0761CD4E902100844B042EAD8E4
:10182000FFF71CFB002188F818101046CAE70000DB
:10183000D4930120103C024070B5174900240A7E61
:10184000012A1ED0154A01230B76156845F08075D4
:101850001560156845F000751560104DF3222D1FB9
:101860002A600268012A0ED00B70C2684A60826842
:10187000CA60027C0A72017C8068FFF7C5FA2046C4
:1018800070BD022070BD02220A7042680A61416880
:10189000007CFFF779FBF2E7D4930120103C024073
:1018A0003EB5401C0DD100F089F80D480D4A0021CD
:1018B00081705378002B04D00478012314B1437055
:1018C00051703EBD0848437151708DF80030074893
:1018D00000231A466946006803F0C0FD3EBD0000C3
:1018E000E0840120388F01205C8F0120F4840120E6
:1018F0002DE9F0412F4F38682F4C10F4F97F4FF04D
:10190000FF384FF000050DD0207801282ED0207828
:1019100002282FD0D4F81460FFF7A0FB304600F067
:1019200057F825703868C0070BD001203860207840
:10193000012821D02078022838D06069FFF7B0FF55
:101940002570207800280FD11A48001D016848F240
:10195000FF0291430160016821F08071016001681C
:1019600021F0007101602576BDE8F081E668C4F8D9
:101970000C80D1E72669CFE76068401E6060606830
:1019800050B1E068FFF78CFFE068401CE060E06861
:10199000217AFFF739FAD4E74646C4F80C8025705F
:1019A000FFF75CFA3046FFF77BFFCAE7FFF756FA0E
:1019B0002069C3E70C3C0240D4930120034801682E
:1019C00041F000410160002070470000103C0240DF
:1019D000704700002DE9F0471B4E05461446307E47
:1019E0001F468946012808D0012030764CF2503835
:1019F0004046FFF771FB18B114E00220BDE8F08704
:101A00009DB1012D16D0022D19D022463B464846E5
:101A1000FFF7EAFA4046FFF75FFB0C490A6822F03D
:101A200001020A6000213176E8E7E1B24846FFF79B
:101A3000CBFAEFE7A1B24846FFF7ECFAEAE7214616
:101A40004846FFF7F9FAE5E7D4930120103C02403D
:101A5000074900200A68002A09DA054A054B0C3AB2
:101A60001360054B13600968002900DA01207047F4
:101A7000103C024023016745AB89EFCD0EB5B0F5B0
:101A8000005F09D102208DF80000044800231A46A7
:101A90006946006803F0E2FC0EBD0000F4840120FA
:101AA000044910B50A68024202D00860FFF7E6FF59
:101AB00010BD0000143C01402DE9F84F00224FF00A
:101AC000010803254FF00F0E0B6808FA02F42340BB
:101AD000A3426ED14E68012E05D0022E03D0112EE6
:101AE00001D0122E12D186684FEA420C05FA0CF78B
:101AF000BE43CF6807FA0CF7374387604668A643B2
:101B00000C79C4F30014944034434460C668570011
:101B100005FA07FC8C6826EA0C06BC403443C46016
:101B20004C68022C01D0122C13D1D40800EB840491
:101B3000A346D4F8209054074FEAD46A0EFA0AF666
:101B400029EA06090E6906FA0AF646EA0906CBF8FA
:101B5000206004680E7924EA0C0406F00306BE40F7
:101B6000264306604C68E4006FD53B4C266846F47B
:101B700080462660246822F0030604F48044009422
:101B8000364C3444A446D4F808489607360F0EFA6B
:101B900006F7BC43324FB84201D100272EE0314F47
:101BA000B84201D1012729E02F4FB84202D10227C4
:101BB00024E04AE02D4FB84201D103271EE02C4F0C
:101BC000B84201D1042719E02A4FB84201D10527B4
:101BD00014E0294FB84201D106270FE0274FB84241
:101BE00001D107270AE0264FB84201D1082705E0B6
:101BF000244FB84201D1092700E00A27B740274304
:101C0000CCF80878204E34684F689C43FF0300D519
:101C10001C4334601C4E361D34684F689C43BF0320
:101C200000D51C433460184E083634684F689C4316
:101C3000FF0200D51C433460134E0C3634684F68E5
:101C40009C43BF0200D51C433460521C102AFFF491
:101C50003BAFBDE8F88F000044380240003001403F
:101C6000000002400004024000080240000C024054
:101C7000001002400014024000180240001C024004
:101C80000020024000240240003C0140006908405E
:101C900000D0012070470AB1816170470904FBE759
:101CA00001488068704700003085012090F83D2091
:101CB000202A01D002207047242280F83D200268AB
:101CC000136823F0010313600268536A23F01003C2
:101CD00053620268536A0B43536201680A6842F018
:101CE00001020A60202180F83D100020704790F822
:101CF0003D20202A01D002207047242280F83D2078
:101D00000268136823F00103136003685A6A22F023
:101D10000F020A4391B2596201680A6842F0010257
:101D20000A60202180F83D100020704770B5040043
:101D300025D094F83D00002520B984F83C50204679
:101D400000F0B8F8242084F83D002068016821F0F4
:101D5000010101602068016841F4004101602068D0
:101D6000016821F40041016000F058FC4D4A6168AF
:101D7000914201D84C4900E04C49884201D20120EF
:101D800070BD4B492368B0FBF1F15E6826F03F0659
:101D90000E435E606368934206D94FF496735943CD
:101DA0004FF47A73B1FBF3F12368491C1E6A26F0E5
:101DB0003F06314319626168914210D84900401EC4
:101DC000B0FBF1F2521CC2F30B02042A01D2042030
:101DD00022E0B0FBF1F0401CC0F30B001CE0A26855
:101DE000F2B301EBC10303EB0116431EB3FBF6F3A1
:101DF0005B1C43F480431B0549D092B301EBC10245
:101E000002EB0111401EB0FBF1F0401CC0F30B00CF
:101E100040F4804040F400402168CA694CF6FF73EA
:101E20009A431043C861D4E907100143206802684F
:101E300022F0C00211430160D4E90301014320688C
:101E4000826848F2FF339A4311438160D4E9050167
:101E500008432168CA6822F0FF021043C86001E00D
:101E60000EE016E02068016841F001010160256480
:101E7000202084F83D00256384F83E50002070BD8A
:101E800001EB4106431EB3FBF6F35B1CB3E70120F5
:101E9000C2E701EB4101401EB0FBF1F0401CC0F372
:101EA0000B00B7E7A086010080841E0000093D00FA
:101EB00040420F002DE9F04F87B0044614216846D8
:101EC000FEF73AFA494ADFF828A12168DFF82081B5
:101ED0000020012503244FF0120B4FF004090AF1F2
:101EE000100A91423ED14021CDE90015CDE902040E
:101EF000404F69463846FFF7DFFD002601224021AA
:101F00003846FFF7C8FE0120FFF736FC00224021CB
:101F10003846FFF7C0FE0120FFF72EFC761C0A2E84
:101F2000ECDBD8F8001041F00201C8F80010D8F836
:101F30000000CDE9025400F002000590C020CDE978
:101F4000000B6946CDF810903846FFF7B5FDDAF87A
:101F5000001041F40011CAF80010DAF8000000F493
:101F600000103EE0244A91423CD10221CDE9001507
:101F7000CDE90204214F69463846FFF79DFD002652
:101F8000012240213846FFF786FE0120FFF7F4FBCF
:101F9000002240213846FFF77EFE0120FFF7ECFBD0
:101FA000761C0A2EECDBD8F8001041F02001C8F8AE
:101FB0000010D8F80000CDE9004B00F02000CDE97A
:101FC0000490CDE9025469463846FFF775FDDAF80A
:101FD000001041F48001CAF80010DAF8000000F4A3
:101FE0008000059007B0BDE8F08F0000005400406D
:101FF0003038024000040240005800400014024003
:1020000070B5040011D021684CF6CC4008602168FE
:1020100045F255500860D4E9000141602168A0688C
:102020008860FFF73DFE054609E0012070BD00BF56
:10203000FFF736FE401B302801D9032070BD206811
:10204000C0680028F4D121684AF6AA200860002060
:1020500070BD00684AF6AA210160002070470000A8
:102060000248816802781144816070473085012000
:102070000B4810B5016841F400710160016841F43A
:1020800080610160016841F480710160032000F00B
:1020900097F8002000F006F800F03EF8002010BD90
:1020A000003C024010B5014688B000221A2000F022
:1020B00067F81A2000F056F813480024016841F42C
:1020C00080210160006805A900F480200690684620
:1020D00000F084FA00F0B2FA0C494000B0FBF1F1D4
:1020E0000C480B4A491E026040F2E732C0E9032463
:1020F000C0E9011400F022FF10B1012008B010BDAA
:10210000044800F055FFF9E74438024040420F0010
:102110000048014094930120114808B5016841F43A
:1021200080410160006800F4804000900C48001F6E
:10213000016841F0805101600068002200F0805089
:1021400000900F21901E00F01BF8002205210420B2
:1021500000F016F8BDE80840042000F003B80000C5
:1021600044380240002809DB00F01F0201219140A1
:102170004009800000F1E020C0F800117047000025
:10218000F0B40E4B1B680C46C3F30223C3F10705E2
:10219000042D00D90425191D072901D2002300E0D0
:1021A000DB1E012606FA05F1491E214099409E409A
:1021B000761E16403143F0BC02F09EBC0CED00E0F0
:1021C000064900F0070208684FF6FF03184040EA8E
:1021D0000220034A10430860704700000CED00E045
:1021E0000000FA052DE9F8431748016841F08051D5
:1021F00001600068154F00F08050012600903E6499
:10220000FFF74EFD05464FF47A78114C05E000BF0C
:10221000FFF746FD401B40450DD86068C003F7D569
:102220007E64FFF73DFD0546464607E0FFF738FDB3
:10223000401BB04202D90320BDE8F88360688003E8
:10224000F4D50020F8E700004038024000000E42BC
:10225000007000402DE9F84F04460068DFF824A222
:10226000894F8A4DC1074FF001084FF0000603D196
:10227000810701D4400648D5CAF86860FFF710FD11
:10228000814605E0FFF70CFDA0EB090002287DD890
:1022900028680001F6D42078C1077D4805D0616820
:1022A000227A890141EA027101602178890711D5FA
:1022B00001686268237B9201C1F3027142EA036202
:1022C00042EA017101603968E26921F01F01521E82
:1022D000114339602178490608D56168227B89015C
:1022E00041EA0261227A41EA02710160CAF868801B
:1022F000FFF7D6FC814605E0FFF7D2FCA0EB090012
:10230000022843D828680001F6D52068410701D487
:1023100000074ED5CAF87060FFF7C2FC814605E0A1
:10232000FFF7BEFCA0EB090002282FD82868C043A5
:102330008000F5D520784107564814D501682269F8
:10234000237D9201C1F3027142EA036242EA017104
:1023500001603968226A6FF0FF0321F4F85103EB42
:102360000222114339602178090712D501682269D8
:10237000C1F30361920142EA0161227E41EA0271E6
:1023800001603868616A20F4403000E051E00843A1
:102390003860CAF87080FFF783FC074605E000BF8D
:1023A000FFF77EFCC01B022843D82868C04380008A
:1023B000F6D42078800653D534484030016841F087
:1023C000805101600068344D00F080500090286812
:1023D00040F480702860FFF763FC074605E000BF0B
:1023E000FFF75EFCC01B022823D82868C005F7D57C
:1023F000274D143D286810F4407020D0218D01F441
:10240000407181421BD0286820F440712348C0F8F5
:102410000080066029602868C00710D0FFF740FCE4
:10242000064641F2883707E0FFF73AFC801BB842C6
:1024300002D90320BDE8F88F28688007F4D5A16A87
:102440001248C1F301220830032A13D0016821F495
:10245000F81101602868218DC1F30B010843286041
:102460002078C00604D50E4994F82C00C1F8E0018C
:102470000020DFE702680B4B22F4F81219400A43F0
:102480000260E7E7000047428C3802400038024013
:10249000843802408838024000700040400E4742B5
:1024A00000104742FFFCFF0F2DE9F0470E460500E4
:1024B00065D0DFF81481D8F80000F7B200F00F0003
:1024C000B04207D288F80070D8F8000000F00F0082
:1024D000B04254D128683D4C810712D5400703D53E
:1024E000206840F4E05020602878000703D5206879
:1024F00040F4604020602068A96820F0F0000843A4
:1025000020602878C0072DD0304968680839012834
:1025100012D0022813D0032811D009688907002996
:102520002DDA216821F0030101432160FFF7B8FB98
:10253000814641F2883A0EE009688903EFE70968AD
:102540008901ECE7FFF7ACFBA0EB0901514502D98B
:102550000320BDE8F0872068696800F00C00B0EB4C
:10256000810FEFD1D8F80010404601F00F01B142C1
:1025700007D90770006800F00F00B04201D00120B9
:10258000E7E72878400705D52068E96820F4E0509F
:10259000084320602878000706D52068296920F4C0
:1025A000604040EAC100206000F058F82168084A05
:1025B000C1F30311515CC840064908600648006831
:1025C000FFF770FD0020C4E7003C024008380240DD
:1025D000007A00203C850120348501200F22026012
:1025E0000C4A136803F003034360136803F0F0031D
:1025F0008360136803F4E053C36012684FF4E05340
:1026000003EAD20202610448006800F00F0008608B
:102610007047000008380240003C02400448054969
:1026200000680968044AC1F38221515CC8407047C0
:102630003C85012008380240107A002004480549F2
:1026400000680968044AC1F34231515CC8407047D0
:102650003C85012008380240107A0020154810B54A
:10266000006810F00C02144813D01449042A0FD04B
:10267000082A0ED10F4C241F2268236802F03F0263
:102680005B0207D52068C0F38810A0FB010106E0BB
:10269000084610BD2168C1F38811A1FB0001002389
:1026A000FDF700FE2168C1F30141491C4900B0FB60
:1026B000F1F010BD083802400024F400002D310173
:1026C0002DE9F84F040076D02078DFF838A3CE4DFE
:1026D000C00749D0DAF800105046C1F38101012942
:1026E00008D00068C0F3810002280AD1281D0068C4
:1026F000400206D52868800336D560680028E2D0FD
:1027000032E06068B0F5803F10D0B0F5A02F2868A7
:1027100010D020F480302860286820F480202860C1
:102720006068A0B1FFF7BCFA06460CE0286840F4E8
:102730008030F4E740F480202860F7E7FFF7B0FA34
:10274000801B642873D828688003F7D50CE0FFF756
:10275000A7FA064605E000BFFFF7A2FA801B64282F
:10276000F0D828688003F7D42078DFF8A0828007AB
:102770004FF000093ED5DAF80010504611F00C0F6A
:1027800009D00068C0F3810002280BD19D48001FCA
:102790000068400206D42868800715D5E068012843
:1027A00009D111E0E068B8B10120C8F80000FFF7D6
:1027B00077FA064605E020E1FFF772FA801B02284F
:1027C000C0D828688007F7D52868216920F0F8006C
:1027D00040EAC10028600DE0C8F80090FFF760FAF9
:1027E000064604E0FFF75CFA801B02281FD8286821
:1027F0008007F7D42078000722D5824E844861698B
:102800006C3671B101210160FFF74AFA074604E016
:10281000FFF746FAC01B022809D830688007F7D5B1
:102820000EE0C0F80090FFF73BFA074605E082E0B3
:10283000FFF736FAC01B02287DD830688007F7D42E
:102840002078400768D5DFF8BCB100270BF1380BC2
:10285000DBF80000C0000BD4DBF8001041F0805121
:10286000CBF80010DBF80000012700F0805000904A
:10287000684E3068C00510D4306840F48070306015
:10288000FFF70EFA009005E0FFF70AFA0099401AE8
:10289000022850D83068C005F6D55A4EA068683670
:1028A00001280FD00528306810D020F001003060DA
:1028B000306820F004003060A068B8B1FFF7F0F98C
:1028C00000900FE0306840F00100F4E740F00400B1
:1028D0003060F7E7FFF7E4F90099411A41F28830D8
:1028E000814266D830688007F4D50EE0FFF7D8F94A
:1028F000009007E0FFF7D4F90099411A41F28830BF
:10290000814256D830688007F4D42FB1DBF800102C
:1029100021F08051CBF80010A069D0B3DAF8002084
:102920005146C2F38102022A4AD00228484607D003
:10293000C8F8600000E03CE0FFF7B2F904463BE075
:102940004746C8F86000FFF7ABF9064605E000BF50
:10295000FFF7A6F9801B02282BD828688001F7D43E
:10296000D4E907010843A16A2B4A490802EB014157
:10297000626A41EA8211084394F82C1040EA01612E
:102980002048001F016001203866FFF789F90446DE
:1029900005E034E0FFF784F9001B022809D8286815
:1029A0008001F7D52BE000BFFFF77AF9001B022862
:1029B00002D90320BDE8F88F28688001F4D41EE016
:1029C0000128F7D00868E26900F48001914214D12F
:1029D000226A00F03F0191420FD147F6C071626A4E
:1029E0000140914209D1A26A00F44031914204D1E0
:1029F000E16A00F07060884201D00120DAE700202F
:102A0000D8E7000008380240003802400000474282
:102A1000800E4742007000400000FFFF70B50400C8
:102A200002D0607F10B106E0012070BD0020207749
:102A3000204600F049F8022060772168CA204862E9
:102A4000216853204862204601F064FAFF250426DD
:102A500018BB206881681B4A114081602168886822
:102A600062681043D4E904231A4310438860216844
:102A7000E068086120680169228941EA0241016138
:102A80002068C16821F08001C160206880688006EC
:102A900007D4204600F024F818B120684562667714
:102AA000C2E72068016C21F4802101642068016C78
:102AB000A26911430164206845620120607700200B
:102AC00070BD0000BFFF8FFF00680349884202D13C
:102AD0000249012008607047002800403C0E474230
:102AE00070B504460068C16821F0A001C160FFF71D
:102AF000D7F805464FF47A7607E000BFFFF7D0F825
:102B0000401BB04201D9032070BD2068C068800618
:102B1000F4D5002070BD70B5040005D00025A56275
:102B200094F8510010B106E0012070BD84F85050B7
:102B3000204600F031F8022084F851002068016836
:102B400021F040010160D4E901010843D4E90312F6
:102B50001143084361690843218B01F40071084364
:102B6000E1690843216A0843A16A084321680860B3
:102B7000A069042101EA1040616A084321684860A5
:102B80002068C16921F40061C1616565012084F894
:102B90005100002070BD00002DE9F04F87B00446C1
:102BA00014216846FDF7C8FB22685E4C5C4B002090
:102BB0005C4D143C0226032105279A4216D12A684F
:102BC00042F480522A602A6802F4805205922268F8
:102BD00042F001022260226802AB02F0010205927B
:102BE00083E88300E02269464F481BE04F4B9A423E
:102BF0001FD14C4A121F136843F4804313601268BC
:102C000002F480420592226842F0020222602268A9
:102C100002AB02F00202059283E8830044484FF4BD
:102C200060426946CDE90026FEF746FF07B0BDE8E1
:102C3000F08FDFF800C101234FF4E04A624528D14C
:102C4000804689461A038DE80C03DFF8ECB069462C
:102C50005846FEF731FF002240215846FFF71BF887
:102C6000286840F400502860286800F4005005905F
:102C7000206840F0100020602068CDF800A000F02F
:102C80001000CDE9047001AA694682E84003584665
:102C9000CAE7DFF8A8C0624527D18046894680226E
:102CA0008DE80C03DFF898A069465046FEF704FF54
:102CB000002240215046FEF7EEFF286840F48010C5
:102CC0002860286800F480100590206840F02000FB
:102CD00020602068049700F0200005904FF4607099
:102CE0008DE84103694650469EE7164B9A429DD1B6
:102CF0002A6842F400122A602A6802F4001205923F
:102D0000226842F040022260226802AB02F04002D8
:102D1000059283E88300CDE900A669460A4883E767
:102D200000300140443802400000024000380040BA
:102D300000040240003401400010024000500140F5
:102D40000014024000540140001802402DE9F84FE1
:102D5000044690F8500000271D4616468946012873
:102D60000DD04FF0010B84F850B0FEF799FF80466C
:102D700094F85100BA46012804D002278EE00220C0
:102D8000BDE8F88FB9F1000F7DD0002E7BD0032075
:102D900084F85100C4F854A0C4F83090A686E686A2
:102DA000C4F838A0A4F83CA0A4F83EA0C4F844A0FD
:102DB000C4F840A0A068B0F5004F04D120680168B5
:102DC00041F48041016020680168490603D401682C
:102DD00041F040010160E068B0F5006F606803D029
:102DE00030B3012E24D040E008B1012E1CD1206B5D
:102DF00021680088C86006E020688168890709D5D5
:102E0000216B0988C160206B801C2063E08E401E0E
:102E1000E08609E0FEF744FFA0EB0800A84202D3D9
:102E2000681C01D031E07DB3E08E0028E4D11FE0C2
:102E3000206B21680078087306E0206881688907A4
:102E400009D5216B09780173206B401C2063E08E4B
:102E5000401EE08609E0FEF723FFA0EB0800A84231
:102E600002D3681C01D010E075B1E08E0028E4D1D7
:102E700042462946204601F077F908B120206065D6
:102E8000A06820B107E008E0FFE7032706E020681C
:102E9000C16880680090606D00B1012784F851B06E
:102EA00084F850A038466BE77047704770B590F8CB
:102EB0003C20012A32D0012480F83C40022280F8D4
:102EC0003D2003685A689D6822F070060A68324304
:102ED0005A60134B02689A4214D0B2F1804F11D05D
:102EE000104B9A420ED0104B9A420BD00F4B9A4285
:102EF00008D00F4B9A4205D00E4B9A4202D00E4B8F
:102F00009A4204D1496825F080031943916080F802
:102F10003D40002180F83C10084670BD022070BD85
:102F2000000001400004004000080040000C004088
:102F300000040140004001400018004010B50400AA
:102F400003D094F83D0010B107E0012010BD00202F
:102F500084F83C00204600F00DF8022084F83D0083
:102F6000211D206801F04EFB012084F83D00002067
:102F700010BD000008B500680B49884212D10B480B
:102F8000016841F0100101600068002200F01000AB
:102F9000009005213620FFF7F3F8BDE80840362001
:102FA000FFF7E0B808BD00000010004040380240C4
:102FB0000168CA6842F00102CA600068816801F0D5
:102FC0000701062903D0016841F0010101600020DA
:102FD00070470168CA6822F00102CA600068016A8D
:102FE00041F21112114207D1016A9210114203D12C
:102FF000016821F00101016000207047704770B541
:103000000446006801694FF00005C943890715D4DB
:10301000C168C943890711D4E91E016101202077E5
:10302000206880698007204602D0FFF7E7FF04E0B0
:1030300000F098F8204600F096F82577206801699E
:10304000C943490717D4C168C943490713D46FF06E
:1030500004010161022020772068806910F4407F1C
:10306000204602D0FFF7CAFF04E000F07BF82046BC
:1030700000F079F8257720680169C943090716D45B
:10308000C168C943090712D46FF008010161042027
:1030900020772068C0698007204602D0FFF7AEFF86
:1030A00004E000F05FF8204600F05DF82577206826
:1030B0000169C943C90617D4C168C943C90613D4F5
:1030C0006FF010010161082020772068C06910F4BA
:1030D000407F204602D0FFF791FF04E000F042F865
:1030E000204600F040F8257720680169C943C907E8
:1030F00008D1C168C943C90704D1891E01612046AE
:1031000000F032F820680169C943090609D4C16892
:10311000C943090605D46FF0800101612046FFF71D
:10312000C3FE20680169C943490609D4C168C9437F
:10313000490605D46FF040010161204600F042F8D5
:1031400020680169C94389060BD4C168C94389064F
:1031500007D46FF0200101612046BDE87040FFF701
:10316000A4BE70BD7047704710B504460068104992
:10317000884201D1FEF774FF0E492068884215D1BC
:103180000D4C2068401C2060616888420ED30B48BB
:10319000FFF71FFF04F120010320087008480023F7
:1031A0001A46006802F05AF90020206010BD0000A5
:1031B0000048014000100040748F012074920120EB
:1031C000F8840120704710B504460068416994F8FE
:1031D0003920C1F3C011212A0BD151B1416921F02D
:1031E00080014161206B08B1FEF7FAF8204601F03A
:1031F000CBFA2068416994F83A20C1F38011222A61
:103200000BD151B1416921F040014161606B08B1BE
:10321000FEF7E6F8204601F0A9FA002010BD70473D
:1032200070B5026804461068D168536910F00F0F3A
:1032300052D003F0010501F490762E435FD0C2070F
:1032400005D0CA0503D5E26B42F00102E2634207F2
:1032500005D5DA0703D0E26B42F00202E26382078F
:1032600005D5DA0703D0E26B42F00402E2630207FD
:1032700007D501F020022A4303D0E26B42F0080296
:10328000E263E26B002A33D0800604D5880602D5BB
:10329000204601F082FA20684069E16BC0F380109B
:1032A000090700D428B3204601F060FA206841697C
:1032B00049061AD5416921F040014161606BA0B116
:1032C0001B490165606BFEF7D2F8002810D0606BD7
:1032D000016DBDE870400847830610D58B060ED5FA
:1032E0002046BDE8704001F058BA2046FFF797FF2E
:1032F00070BD2046FFF793FF0020E06370BD03061A
:1033000006D50B0604D52046BDE8704001F024BB6D
:103310004006F3D54806F1D5D168204621F040019A
:10332000D160202184F8391000F094F970BD0000BC
:10333000CD46002070B5040004D094F83900002573
:1033400010B106E0012070BD84F83850204600F02E
:1033500023F8242084F839002068C16821F4005142
:10336000C160204601F064FA2068016921F49041AF
:1033700001612068416921F02A0141612068C1682A
:1033800041F40051C160E563202084F8390084F8DD
:103390003A00002070BD0000F0B587B00646142149
:1033A0006846FCF7C9FF334F3068002532490222D6
:1033B00003230724B8423DD12F481430076847F053
:1033C00010070760006800F010000590086840F0E2
:1033D000010008600868694600F001000590580285
:1033E0008DE82500CDE903342448FEF765FB254C24
:1033F000234820604FF00060C4E901054014C4E98F
:10340000035065614FF44030A561C4E90750204680
:103410006562FEF70FF908B1FDF7F5FC7463002251
:1034200005212520A663FEF7ABFE2520FEF79AFEB8
:1034300007B0F0BD144EB042FAD10F481030066804
:1034400046F480260660006800F480200590086835
:1034500040F0020008600868694600F0020005902C
:103460004FF440608DE82500CDE903340748FEF7AE
:1034700023FBDDE70010014030380240000002402D
:1034800040640240349301200048004000040240A0
:10349000F8B5044690F83A0020283CD1C1B3BAB33D
:1034A00094F83800012836D0012084F83800A16251
:1034B000A2850025E563222084F83A00636B174853
:1034C000D863636B16481864636B1648D864606BE6
:1034D000134605650846666B216802463046091D9D
:1034E000FEF712F9206801684168009184F83850AD
:1034F000C16841F48071C1602068416941F00101F7
:1035000041612068416941F0400141610020F8BDFE
:10351000FFE70120FBE70220F9E700002747002032
:1035200063470020DD46002090F83A30202B22D15E
:10353000F9B1F2B190F83830012B1CD0816282854C
:10354000C2850021C163222280F83A2080F8381019
:103550000168CA6842F48072CA6001684A6942F030
:1035600001024A610068C16841F02001C160002089
:10357000704701207047022070470000006804492E
:10358000884203D10348006802F0DEB870470000AB
:1035900000100140E884012070472DE9F8430446FB
:1035A00090F839001F4616460D46202850D1B5B177
:1035B000AEB194F8380001284AD0012084F83800D0
:1035C0004FF00008C4F83C80212084F83900FEF751
:1035D00067FBA6848146E68484F8388026E00120D3
:1035E000BDE8F883E08C401EE084A0684B46B0F54F
:1035F000805F4FF000024FF080012046009703D01B
:1036000001F0DBF9E8B90DE001F0D7F9C8B9288875
:103610002168C0F308004860206908B16D1C05E00E
:10362000AD1C03E0216815F8010B4860E08C002810
:10363000D8D14B46002240212046009701F0BDF929
:1036400008B10320CCE7202084F839000020C7E728
:103650000220C5E77047FEE70348024901603121B7
:10366000017170475A5AA5A500FC0220006801228A
:103670008A40104000D00120704700007FB5002430
:1036800015480094019402941249039401604FF488
:103690008031C0E901140461047680F820400F49AC
:1036A000C0E90A140125C561C46080F83040456155
:1036B000FDF758FE08B1FDF7A6FB0948CDE9000566
:1036C000694602940448FDF79BFD002801D0FDF7F0
:1036D0009AFB7FBD00200140A08F01200100000F58
:1036E00012000010094808B5016841F4800101602A
:1036F0000068002200F48000009005213A20FEF7C7
:103700003FFDBDE808403A20FEF72CBD30380240AE
:1037100070B500221146012001F0BEFF4E4C4F4D06
:10372000606018B90421284600F094FD002211467B
:10373000012001F0B1FFA06018B90421284600F073
:1037400089FD00221146012001F0A6FFE06018B9B2
:103750000421284600F07EFD00220C21062001F005
:1037600043FE206118B90421284600F073FD0022B1
:103770000C21022001F038FE606118B904212846AE
:1037800000F068FD364801F0DFFEA06118B90421A1
:10379000284600F05FFD324801F0D6FEE06118B91E
:1037A0000421284600F056FD2D4801F0CDFE206290
:1037B00018B90421284600F04DFD294801F0C4FE47
:1037C000606218B90421284600F044FD244801F045
:1037D000BBFEA06218B90421284600F03BFD20483A
:1037E00001F0B2FEE06218B90421284600F032FD73
:1037F0001B4801F0A9FE206318B90421284600F0F7
:1038000029FD174A0021C432164801F0D5FF144A99
:10381000A06434320021144801F0CEFF104AA063A6
:1038200010320021114801F0C7FF0D4A6063583281
:1038300000210F4801F0C0FF094AE0637C320021FB
:103840000C4801F0B9FF064A2064A03200210A4862
:1038500001F0B2FF606470BDE484012008FC022026
:1038600010790020F94400209D6200208D4E002038
:10387000A969002049510020F96100202DE9F04F8D
:1038800087B014216846FCF757FD7548002501688C
:1038900041F040010160016801F0400105910168BB
:1038A00041F002010160016801F002010591016827
:1038B00041F008010160016801F00801059101680B
:1038C00041F480710160016801F480710591016823
:1038D00041F001010160016801F0010105910168F9
:1038E00041F004010160016801F0040105910168E3
:1038F00041F020010160016801F02001059101689B
:1039000041F080010160016801F0800105910168CA
:1039100041F0100101600068DFF8489100F01000EC
:1039200041F601640590002221464846FEF7B3F9AE
:10393000DFF834A1002206215046FEF7ACF94FF41F
:103940008046002231464948FEF7A5F9DFF820B14C
:10395000002244215846FEF79EF9B711002239464D
:103960004448FEF798F9002210214348FEF793F9E6
:1039700000224FF420614148FEF78DF94FF4805842
:10398000002241463E48FEF786F90094012469462C
:1039900048460194CDE90245FEF78EF80620CDE9B0
:1039A000000469465046CDE90245FEF785F86003FC
:1039B00000903448CDE9010469462C48FEF77CF8B4
:1039C000CDE9006469462948CDE90245FEF774F85F
:1039D0004420CDE9000469465846CDE90245FEF78A
:1039E0006BF8CDE9007469462248CDE90245FEF73F
:1039F00063F84FF4FE50CDE9000569461B48029577
:103A0000FEF75AF81020CDE9000469461A48CDE9BE
:103A10000245FEF751F860028DE83100694617480B
:103A20000395FEF749F8E002CDE900046946134822
:103A3000CDE90245FEF740F8CDE90084694610481B
:103A4000CDE90245FEF738F8002205212820FEF7CF
:103A500097FB2820FEF786FB07B0BDE8F08F00003B
:103A600030380240000C024000200240001C02409E
:103A70000014024000180240000002400010024002
:103A80000004024000002110144810B512490160E2
:103A90001349416000214FF480428160C0E9031264
:103AA00041618161C1610162FEF740F908B1FDF732
:103AB000AAF900210948FEF7F9F808B1FDF7A3F9C2
:103AC00000210648FEF713F9002803D0BDE8104096
:103AD000FDF799B910BD000000540040E88F0120A7
:103AE000A0860100144810B51249016013494160D5
:103AF00000214FF480428160C0E90312416181617D
:103B0000C1610162FEF712F908B1FDF77CF90021ED
:103B10000948FEF7CBF808B1FDF775F90021064812
:103B2000FEF7E5F8002803D0BDE81040FDF76BB9BB
:103B300010BD0000005800403C900120A08601000C
:103B4000094810B5074901600321416040F2DC518A
:103B50008160FEF755FA002803D0BDE81040FDF75C
:103B600052B910BD00300040909001200B4810B5B4
:103B70000949016000217F22C0E90112F922C0E950
:103B8000032141618161FEF749FF002803D0BDE8B0
:103B90001040FDF738B910BD002800409C9001206E
:103BA000104810B50E4901604FF482714160002148
:103BB0008160C1604FF400720161C0E905121022FA
:103BC000C0E90721416281620A21C162FEF7A3FFB9
:103BD000002803D0BDE81040FDF715B910BD000066
:103BE00000300140BC900120104810B50E49016022
:103BF0004FF48271416000218160C1604FF4007216
:103C00000161C0E905120822C0E907214162816211
:103C10000A21C162FEF77FFF002803D0BDE81040F3
:103C2000FDF7F1B810BD00000038004014910120EC
:103C3000104810B50E4901604FF4827141600021B7
:103C40008160C1604FF400720161C0E90512102269
:103C5000C0E90721416281620A21C162FEF75BFF70
:103C6000002803D0BDE81040FDF7CDB810BD00001E
:103C7000003401406C910120104810B50E490160DC
:103C80004FF48271416000218160C1604FF4007285
:103C90000161C0E905121022C0E907214162816279
:103CA0000A21C162FEF737FF002803D0BDE81040AB
:103CB000FDF7A9B810BD000000500140C4910120DB
:103CC000104810B50E4901604FF482714160002127
:103CD0008160C1604FF400720161C0E905121022D9
:103CE000C0E90721416281620A21C162FEF713FF28
:103CF000002803D0BDE81040FDF785B810BD0000D6
:103D0000005401401C9201201CB500240E48009470
:103D10000C49019401605921C0E9011463218461B7
:103D2000C160FFF70BF908B1FDF76DF80094694623
:103D300005480194FFF7BAF8002801D0FDF763F8B1
:103D40001CBD000000100040749201200C4810B50A
:103D50000A4901604FF4E1314160002181600C2289
:103D6000C160C0E904128161C161FFF7E3FA002874
:103D700003D0BDE81040FDF746B810BD001001406B
:103D8000B49201200C4810B50A4901604FF4E131AA
:103D90004160002181600C22C160C0E90412816190
:103DA000C161FFF7C7FA002803D0BDE81040FDF756
:103DB0002AB810BD00480040F4920120FEE7704789
:103DC0002DE9F041012291034148FDF764FF414D87
:103DD000012202212846FDF75EFF01223E4E5402D9
:103DE00021463046FDF757FF012291023046FDF78C
:103DF00052FF0122D1023046FDF74DFF012211038F
:103E00003046FDF748FF012211463046FDF743FFDB
:103E1000012204212846FDF73EFF304D01222146B4
:103E20002846FDF738FF012001F04AFA002221461A
:103E30002846FDF730FFFFF70FFC294C0020294EE4
:103E400020706070B070FDF769F82748FDF7CEF973
:103E5000264D18B10421284600F0FCF92249244BD4
:103E600024480F7906224FB1012F0AD0022F05D026
:103E70000822C4E90102497941B112E0C4E90132E2
:103E8000F9E71D4A62600722A260F4E76168814297
:103E900007D01046FDF72BF8A8B10021284600F006
:103EA000D9F93C21072000F053F83C21072000F00D
:103EB00083F83C21072000F0B5F8BDE8F0413C2133
:103EC000072000F0E3B80120B0706070E9E700005F
:103ED000001C024000200240000C02400010024082
:103EE000388F0120E08401205C8F012008FC022033
:103EF00000000408000008080000060870B5154618
:103F0000002403E00A2001F0DBF9641CAC42F9D381
:103F100070BD000070B504460068C168490614D43D
:103F20004FF0FF31C160FDF7BBFE05464FF47A76D6
:103F300007E000BFFDF7B4FE401BB04201D90320EB
:103F400070BD2068C0684006F4D5002070BD000038
:103F5000F8B5164E0C4607464FF4FA71306801F07A
:103F6000BDFA050020D107F00700C4F3032141EAA0
:103F700000108DF800008DF801400D4C002210213A
:103F80002046FDF788FE02231A4669460948FEF7D7
:103F9000DDFE00B16D1E012210212046FDF77BFEE3
:103FA000306801F011FB2846F8BD000004850120AF
:103FB00000000240BC900120F8B5174E0C460746A1
:103FC0004FF4FA71306801F089FA050022D107F048
:103FD0000700C4F3032141EA00108DF800008DF8BA
:103FE00001400E4F4FF48054002221463846FDF721
:103FF00052FE02231A4669460948FEF7A7FE00B1A1
:104000006D1E012221463846FDF745FE306801F05D
:10401000DBFA2846F8BD00000885012000040240B4
:1040200014910120F8B5164E0C4607464FF4FA716C
:10403000306801F053FA050020D107F00700C4F3FF
:10404000032141EA00108DF800008DF801400D4C6D
:10405000002240212046FDF71EFE02231A46694633
:104060000948FEF773FE00B16D1E01224021204673
:10407000FDF711FE306801F0A7FA2846F8BD0000F0
:104080001085012000140240C4910120F8B5174E9C
:104090000C4607464FF4FA71306801F01FFA05002C
:1040A00022D107F00700C4F3032141EA00108DF884
:1040B00000008DF801400E4F4FF48074002221461D
:1040C0003846FDF7E8FD02231A4669460948FEF71F
:1040D0003DFE00B16D1E012221463846FDF7DBFD95
:1040E000306801F071FA2846F8BD000014850120FF
:1040F000001802401C92012010B5FCF73BFB144C49
:10410000144A216891420FD1207968B131280BD22D
:10411000FDF70AF8104900EB400001EB4000807801
:10412000FCF718FB01200BE091420BD00120FCF7BB
:1041300011FB0220FCF70EFB0320FCF70BFB042015
:10414000FCF708FB31202071BDE8104000F062B997
:1041500000FC02205A5AA5A54C84012010B502206B
:10416000FCF7A8FE002010BD38B504461248134BDA
:104170000068B0FBF3F04FF47A7358430090606826
:10418000B0F5827F0DD10B4600920022802120469F
:1041900000F016F870B1606D40F0200060650320FB
:1041A00038BD009830B1401E009020688068C04340
:1041B0000006F6D5002038BD3C85012000366E0192
:1041C0002DE9F0411D4617460E460446DDF81880DD
:1041D00008E0681C06D0FDF763FDA0EB0800A842CC
:1041E0000BD255B12068806836EA000030D000203C
:1041F000B842EED10020BDE8F0812068416821F08E
:10420000E00141606068B0F5827F0BD1A068B0F535
:10421000004F02D0B0F5806F04D12068016821F012
:1042200040010160A06AB0F5005F09D12068016813
:1042300021F4005101602068016841F400510160DF
:10424000012084F85100002084F850000320D2E7B8
:104250000120CDE7012302688B401A4302607047BA
:104260002DE9F04F85B08046312809D0FCF75CFF7E
:104270005FEA000907D54FF0FF3005B0BDE8F08FC9
:10428000FFF73AFFB7E00120029009EB4900DFF8A1
:104290006CA104900AEB4000039090F802B05848DB
:1042A000007958B1FCF740FF00EB40010AEB4100F8
:1042B0008078FCF74FFA0298FCF74CFA00273D464D
:1042C000BBF1050F26D203998A8804991AF81100C8
:1042D00001A9A8EB000002EBC00080B2804600F00C
:1042E0002BFF08B1B81EC8E708F1040080B2694688
:1042F00000F022FF10B16FF00200BEE7DDE90021FF
:10430000584601F0E7FE10B16FF00300B5E7022058
:1043100000F0D6FF4FF6FF7101EAC900804601A9FF
:1043200000F00AFF10B16FF00400A6E708F10400E6
:1043300080B2694600F000FF10B16FF005009CE705
:10434000019800280AD40099002907D4FA2811DB23
:10435000FA380DE0FA2927DBFA3917E0002817DCD4
:104360000099002908D4C0F10002FA2A02DBFA30D1
:104370000646EFE73E46EDE70ADC4242FA2A11DB49
:10438000FA300DE04842FA280EDBFA310C460CE018
:1043900000280AD40099002907DCFA2802DBFA3841
:1043A0000646EFE73E46EDE72C46224631460298A8
:1043B00001F090FE10B16FF006005EE71148032196
:1043C0004160052181600021016002990173C0E90B
:1043D000066401990161009941610B48FDF739FEBE
:1043E0000A48FEF7E5FD0A481E21006801F01AF9A7
:1043F000012000F065FF00203FE700004C84012011
:1044000000FC0220748F0120909001207492012002
:10441000F084012070B500224FF480410948FDF777
:104420003AFC0122084D540221462846FDF733FC90
:10443000012000F045FF21462846BDE870400022DB
:10444000FDF729BC001C0240001002402DE9F0419C
:10445000254C0122254D2079022182432846FDF773
:104460001AFC2079224F401EC0F340026E153146DF
:104470003846FDF710FC20792915401EC0F3800254
:104480003846FDF708FC2079E914401EC0F3C0024D
:104490003846FDF700FC2079A914401EC0F3001235
:1044A0003846FDF7F8FB20790121401EC0F3401289
:1044B0003846FDF7F0FB20790421401EC0F380123E
:1044C0002846FDF7E8FB0B4C012231462046FDF75C
:1044D000E2FB012000F0F4FE31462046BDE8F04149
:1044E0000022FDF7D8BB000000FC022000200240A3
:1044F000000C024000100240012000F0E1FEFBE74A
:1045000010B5502080F31188BFF34F8FBFF36F8F2A
:1045100003F020F818B104494FF0805008600020E3
:1045200080F3118810BD000004ED00E030B59FB0AD
:1045300030216846FBF700FF142118A8FBF7FCFEAA
:1045400030210CA8FBF7F8FE20480025016841F057
:1045500080510160006800F080501D901C48016887
:1045600041F4404101600068022400F440401D9085
:10457000092000904FF4803001900120CDE905041E
:1045800080050790142008904FF4B470CDE9090419
:1045900004200B906846FEF793F8FDF723FE18A958
:1045A0000F2081E831004FF4A0501B90E0021C90D6
:1045B000052118A8FDF778FF20200C900001169027
:1045C0000CA8FDF747FE1FB030BD00004038024088
:1045D000007000400448016841F470010160024924
:1045E000800680390860704788ED00E00148FEF7DA
:1045F00006BD0000949301200148FEF700BD0000B5
:1046000074920120F0B50268254C264D264E274FA6
:10461000274B4FF0804CA04209D0604507D0A842FC
:1046200005D0B04203D0B84201D0984204D122F064
:10463000700E4A6842EA0E02A0421BD0604519D0B3
:10464000A84217D0B04215D0B84213D0984211D02A
:10465000184DA8420ED0184DA8420BD0174DA842B5
:1046600008D0174DA84205D0164DA84202D0164DCD
:10467000A84203D122F44075CA682A434D6922F04A
:1046800080022A4302608A68C2620A688262A0428B
:1046900001D0984201D10969016301214161F0BD56
:1046A000000001400004004000080040000C0040F1
:1046B0000004014000400140004401400048014026
:1046C00000180040001C00400020004010B5806B26
:1046D0000021C185C184FEF7A2FD10BD70B5846BB9
:1046E0002068406994F83910C0F3C01000252129D2
:1046F00004D118B1E584204600F046F820684069EE
:1047000094F83A10C0F38010222904D118B1E5853D
:10471000204600F02BF8E06B40F01000E0632046EC
:10472000FEF77DFD70BD10B50146806B0968096814
:10473000C90513D40021C1850168CA6822F48072BA
:10474000CA6001684A6922F001024A6101684A6947
:1047500022F040024A61202180F83A10FEF70EFF55
:1047600010BD10B5806BFEF717FF10BD0168CA6859
:1047700022F49072CA6001684A6922F001024A611B
:10478000202180F83A1070470168CA6822F0C00200
:10479000CA60202180F83910704710B590F83A109F
:1047A000222901D0022010BD8168B1F5805F11D0AF
:1047B0000169002901681FD0496801F07F03816AFF
:1047C0004A1C82620B70C18D491E0904090CC18507
:1047D00018D02BE00269816A002A0268526805D06D
:1047E000D2B20A80816A491C8162ECE7C2F30802F6
:1047F0000A80816A891CF7E74A68816A4B1C8362D8
:104800000A70E0E70168CA6822F02002CA60016805
:10481000CA6822F48072CA6001684A6922F0010203
:104820004A61202180F83A10FEF7A8FE002010BD52
:104830002DE9F041044600680169E26821F4405125
:10484000114301612169A068E2690843616911436C
:1048500008432168CA6849F20C639A430243CA605C
:1048600020684169A26921F4407111434161E06906
:10487000192764253226B0F5004F354A354920689E
:104880004FF0000806D0884201D0904236D1FDF7A3
:10489000D5FE35E0884201D0904202D1FDF7CEFE30
:1048A00001E0FDF7BBFE61684A18A0FB070148EB79
:1048B0000803FBF7F7FC0146B0FBF5F00201B1FB82
:1048C000F5F06FF01803584301EB800006EBC000D1
:1048D000B0FBF5F000F0F80002EB4002B1FBF5F0A0
:1048E000584301EB800006EBC000B0FBF5F000F090
:1048F0000700216810448860BDE8F081FDF78EFE56
:1049000061688B0F8A00A0FB0701FBF7CBFC014617
:10491000B0FBF5F06FF01802504301EB800006EB9E
:104920000010B0FBF5F000F0F002B1FBF5F002EB87
:104930000012B1FBF5F06FF01803584301EB800053
:1049400006EB0010B0FBF5F000F00F00D1E700001F
:10495000001401400010014090F83910212901D0C5
:10496000022070478168B1F5805F016A0BD04A1C54
:104970000262026809785160C18C491E0904090C61
:10498000C1840ED017E009880268C1F308015160A4
:1049900001690029016A02D0491C0162ECE7891C07
:1049A000FBE70168CA6822F08002CA600068C1683B
:1049B00041F04001C160002070472DE9F041984668
:1049C00017460E460446069D1DE0681C1BD02DB1FF
:1049D000FDF766F9A0EB0800A84214D92068C16869
:1049E00021F4D071C1602068416921F00101416169
:1049F000202084F8390084F83A00002084F8380038
:104A00000320BDE8F0812068006836EA000004D089
:104A10000020B842D9D00020F3E70120F9E70000D8
:104A20000148FEF7FDBB0000B49201202DE9F047DC
:104A30001D4F894655211C469046397201F02CFCC9
:104A40003946C1F8090004F1100001F025FC39468F
:104A50000925C1F80D0001F109063CB106F1080075
:104A600022464146FBF74FFC04F10905484601F098
:104A700013FC79192D1D886004F10C013046FBF7F9
:104A800041FE01F009FC79192D1D88600649AAB282
:104A9000FF2308310548FEF780FD002801D04FF0C4
:104AA000FF30BDE8F0870000BC850120B4920120F2
:104AB00010B504460220FCF7FDF906222146024803
:104AC000FCF738FA002010BD00800008FEE7000067
:104AD0000FB4084B10B504A902AA039800F030F8EF
:104AE000044602A9002000F0CCF9204610BC5DF875
:104AF00014FB0000834E00200907090E002804DB88
:104B000000F1E02080F80014704700F00F0000F181
:104B1000E02080F8141D704700487047B8850120D8
:104B200002E008C8121F08C1002AFAD17047704776
:104B3000002001E001C1121F002AFBD170470000D4
:104B40002DE9FF4F8BB088460546002606E0252854
:104B50000BD0DDE90D1290476D1C761C28780028DB
:104B6000F5D10FB03046BDE8F08F0024A146A24633
:104B70000122AE4900E0044315F8013F203B02FA50
:104B800003F00842F7D128782A2810D06FF02F02BE
:104B90002878A0F13001092915D809EB890102EB29
:104BA000410144F0020400EB01096D1CF0E758F8E4
:104BB000041B5FEA010903D544F40054C9F100095C
:104BC00044F002046D1C28782E2817D115F8010F27
:104BD00044F004042A280ED06FF02F022878A0F1A8
:104BE000300109290AD80AEB8A0102EB410100EBE6
:104BF000010A6D1CF2E758F804AB6D1C28786C288C
:104C00000FD006DC4C2817D068280DD06A2814D1A4
:104C100004E0742810D07A280FD10DE044F4001479
:104C20000AE044F4801401E044F4401469788142BD
:104C300002D104F580146D1C6D1C2878692865D09C
:104C400006DC00288DD0632827D0642806D15DE0DB
:104C50006E2808D073282AD0752877D0DDE90D1288
:104C60009047761CE0E0C4F30250022809D00328E4
:104C70000DD0D8F8001004280DD00E6008F10408FB
:104C8000D2E0D8F80010F217C1E90062F6E7D8F8D0
:104C900000100E80F2E70E70F0E718F8041B8DF894
:104CA000001000208DF80100EB46012003E058F8C9
:104CB00004BB4FF0FF3061074FF0000701D40AE05A
:104CC0007F1C57450DDA8742FADB1BF807100029D5
:104CD000F6D106E07F1C8742FCDB1BF80710002999
:104CE000F8D1DDE90D23A9EB07008146214600F04C
:104CF000B1F83044C61904E0DDE90D121BF8010BD0
:104D000090477F1EF8D22146484688E058F8040BA9
:104D1000C4F302514FF00A0B032900D100B2042959
:104D200000D140B2002802DA40422D2102E02105E4
:104D300005D52B218DF82410012104E006E0E107C0
:104D400010D02021F6E708AF089113E058F8040BC3
:104D5000C4F302514FF00A0B032900D180B2042999
:104D600000D1C0B20021EEE75946FBF752FB3031CB
:104D700007F8011D0028F7D1ADEB070000F1200B6B
:104D8000600702D524F4803401E04FF0010ADA45CF
:104D900002DDAAEB0B0000E00020824600EB0B01D5
:104DA00008980144A9EB01000A90E00306D4DDE96C
:104DB0000D2321460A9800F04DF806444FF00009F3
:104DC00008E009A911F80900DDE90D12904709F181
:104DD0000109761C08998945F3DBE0030CD5DDE970
:104DE0000D2321460A9800F035F8064404E0DDE979
:104DF0000D1230209047761CBAF10001AAF1010A89
:104E0000F5DC05E0DDE90D1217F8010B9047761C83
:104E1000BBF10001ABF1010BF4DC0A982146DDE99E
:104E20000D2300F005F806446D1C97E609280100E3
:104E30002DE9F041044600251E461746880404D497
:104E400005E039462020B0476D1C641EF9D5284680
:104E5000BDE8F0812DE9F041044600251E4690464C
:104E6000C80301D5302700E02027880404D505E0D9
:104E700041463846B0476D1C641EF9D52846BDE84A
:104E8000F0810A68531C0B6010707047DFF838809F
:104E90000C4E01274FF0FF390025444649460120BA
:104EA00001F0C4FA30780228F8D12770FBF774FDBE
:104EB000607810B165702570F0E7D8F8080000F050
:104EC00043FCF8E7BC850120E48401202DE9F04F84
:104ED000464F0125DFF818A13A78464E4648474C20
:104EE000ADF5017D6FF008084FF4167B42F27D7935
:104EF000FF2A0AD03146012A09782FD0022A38D059
:104F0000032A3ED0042A45D06DE02178012905D03E
:104F100042F283700DF5017DBDE8F08F226AA16930
:104F20008A425AD12269032A57D3FBF7EBFB616906
:104F3000814202D06FF00900ECE7307818B1584692
:104F400000F0BEF949E00020FBF7D1FF08B93D7041
:104F50000CE000215046FFF77DF91CE0D9B9012093
:104F6000FBF7C5FF0028F4D1022011E03570657011
:104F700011E081B90220FBF7BAFF0028E9D1032034
:104F800006E041B90320FBF7B2FF0028E1D104207D
:104F90003870EBE721B1584600F092F94846B9E77E
:104FA00000254FF4007906461AE000BF05F50071B0
:104FB000884201D2471B00E04F463A46A91968468D
:104FC000FBF7A1F9BA08694605F10060FBF7B2FFEB
:104FD00028B101215046FFF73DF940469AE73D448C
:104FE000A069A842E2D8002094E70000E0840120F4
:104FF00008FC0220E284012000000808388F01200C
:105000000249FF200870002070470000E084012062
:1050100070B50D46092812D2DFE800F01A05080B1A
:105020000E1A1A1A1A003024002008E078243020C2
:1050300005E07824A82002E078244FF490702246FE
:105040000649FBF773FB28B104202860401F70BDA0
:105050000024E9E700202C6070BD0000848A012054
:105060002DE9F0411E460B464FF0FF35052823D2AF
:1050700010B3012806D0022807D0032807D004283F
:1050800007D11CE00024062103E0302400E0A8241E
:105090000F218B4210D87BB104EBC304A4F10800AC
:1050A00080B2114601F08CFC0746241FA0B23146A5
:1050B00001F086FC384300D02846BDE8F0814FF46B
:1050C0009074E5E7034810B580680349FBF70AFBD5
:1050D000002010BD00FC0220848A012010B50A4681
:1050E00038B14FF0FF31012801D0022804D0084622
:1050F00010BD0648411502E005484FF4804102B159
:105100000122FCF7C8FD002010BD00000010024085
:10511000001C024010B50320FBF7CCFE002010BDA0
:1051200010B54FF0FF34052803D200F0D3FF00285C
:1051300000D0204610BD0000024A104400680860FC
:105140000020704700C000080EB5FEF739FEFFF7DB
:1051500061F91F4D1D4F4FF0FF3805F1080643461A
:1051600000226946386900F001F90028F7D19DF85E
:10517000000001281DD00228F1D1FBF7F3FF0446FF
:10518000401E3128EBD22879A042E8D0FBF7F2FA92
:105190002046FFF765F880B131202871052130469F
:1051A000FEF764FA0028DAD105213046FFF752F8FD
:1051B000D5E70848FFF77CFCD1E72C71FFF746F9EB
:1051C000012000F07DF8FFF725F9C8E7E48401200D
:1051D00000FC02205C8F0120FCF74AFFFFF7A6F9D4
:1051E000FEF74CFBFEF77EFAFEF748FAFEF74CFCA2
:1051F000FEF778FCFEF7A4FCFEF7D2FCFEF718FDE4
:10520000FEF73AFDFEF7A2FDFEF7BCFDFEF7AEFC91
:10521000FEF7EAFCFEF754FDFEF776FD01221021B1
:105220001548FCF738FD012211031448FCF733FD43
:105230000122D1021248FCF72EFD124C012240211E
:105240002046FCF728FD012211020F48FCF723FD40
:10525000002204212046FCF71EFD0C490020886036
:105260000A481F210830FEF7F5FF00F043F8FEF76B
:105270004FFA00F05BF8FEE7000002400004024035
:1052800000100240001402400018024000FC0220FE
:1052900010B588B00446024608A16846FFF718FC1E
:1052A0009DF800002D2802D0204608B010BD0A222B
:1052B00000210DF10100FBF773F8F6E7256400000B
:1052C00010B5EFF3058149B9EFF3108131B9084901
:1052D0000968022905D1EFF3118111B16FF00504BE
:1052E00003E0002408B101F031FA204610BD0000AF
:1052F00090850120EFF3058058B9EFF3108040B995
:1053000009490868022801D030B109E0EFF31180A3
:1053100030B16FF005007047012008600020704731
:105320004FF0FF30704700009085012010B5EFF37B
:10533000058060B9EFF3108048B90B49086802286E
:1053400002D0012806D00BE0EFF3118040B16FF0DE
:10535000050010BD0220086001F0A8FA002010BD71
:105360004FF0FF3010BD000090850120F8B51D46BC
:105370006FF003026FF002064FF00004EFF30583B5
:105380004BB9EFF3108333B9154B1B68022B17D1C0
:10539000EFF31183A3B1F0B1E9B1E5B900220092B6
:1053A0006A4601F09DFE012817D10098B0B10D4961
:1053B0004FF080500860BFF34F8FBFF36F8F0DE049
:1053C00048B141B12A4601F0EFFD012806D025B1D0
:1053D0006FF0010402E0144600E034462046F8BDB8
:1053E0009085012004ED00E0F8B514464FF000056B
:1053F000EFF305826ABBEFF3108252BB164A1268C4
:10540000022A02D1EFF311821ABB10B309B3ACB177
:10541000D4E902326BB1502A1BD32269CAB1676941
:1054200000FB01F6B74214D30025009501F0C9FB3B
:1054300007E072B9226962B9626952B9002201F0CB
:105440009CFB050005D00CB1216800E0002101F0B3
:105450001BF92846F8BD000090850120F8B51D46CF
:105460006FF003026FF002064FF00004EFF30583C4
:105470004BB9EFF3108333B9164B1B68022B18D1CD
:10548000EFF31183ABB100B3F9B1F5B900221346C4
:1054900000926A4601F0BCFC012818D10098B8B10E
:1054A0000D494FF080500860BFF34F8FBFF36F8FEF
:1054B0000EE050B149B100232A4601F0F9FB012862
:1054C00006D025B16FF0010402E0144600E0344636
:1054D0002046F8BD9085012004ED00E02DE9F04163
:1054E0000D46014621F0010001F001014FF00004DA
:1054F000EFF305824AB9EFF3108232B9114A12680C
:10550000022A05D1EFF3118212B16FF0050416E003
:1055100048B100296FF001066FF00207294608D054
:1055200001F0E8FE07E06FF0030408E035B134460F
:1055300005E001F023FE0128F8D100E03C462046BA
:10554000BDE8F0819085012070B505464FF000045C
:10555000EFF30580A0BBEFF3108088BB194800680B
:10556000022802D1EFF3118050BB0DB1686800E052
:105570000020C10701D0012600E0002600071FD44B
:105580006DB1D5E9021021B1502819D31EB1042004
:1055900002E020B114E0012001F0E2FA05E00EB1D2
:1055A000042000E0012001F0D0FA040008D00DB181
:1055B000296800E0002101F067F80EB144F0010411
:1055C000204670BD9085012070B5014621F0010094
:1055D00001F001014FF00004EFF305824AB9EFF347
:1055E000108232B90E4A1268022A05D1EFF31182F5
:1055F00012B16FF0050411E028B16FF0020529B176
:1056000001F0B2FC07E06FF0030407E000231A4644
:10561000194601F04DFB012800D02C46204670BDF4
:1056200090850120F8B50D460024211F4E1C00284E
:105630000ED000BFEFF305824AB9EFF3108232B902
:10564000134A1268022A17D1EFF31182A2B10DB1E9
:105650000C461BE000216A46009101F041FD012843
:1056600013D1009890B10B494FF080500860BFF300
:105670004F8FBFF36F8F09E0294601F07FFD0128AE
:1056800004D015B16FF0010400E034462046F8BDA7
:105690009085012004ED00E0F8B5144603460E465F
:1056A0004FF00005EFF30580E8BBEFF31080D0BBAF
:1056B00024480068022802D1EFF3118098BB93B30D
:1056C0009E423DD84CB1A0680028E06803D0502825
:1056D00036D3012002E008B132E00020012B05D0D2
:1056E00010B31846A26801F010FA20E040B1032080
:1056F0000090002211460120A36801F062FA04E044
:1057000003220021012001F038FA050018D086B1EB
:1057100000231A46194601F0CBFA012809D0284681
:1057200000F0C6FF00250BE0184601F0D1F9050096
:1057300006D00CB1216800E00021284600F0A4FF4B
:105740002846F8BD9085012038B50024E51E0028C4
:1057500004D000BFEFF3058169B902E06FF00304E4
:1057600023E0EFF3108131B911490968022914D1FE
:10577000EFF3118189B100210091694601F0A6FB88
:10578000012811D1009880B10A494FF0805008607B
:10579000BFF34F8FBFF36F8F07E000231A46194600
:1057A00001F086FA012800D02C46204638BD0000C2
:1057B0009085012004ED00E0F0B585B04FEA0103CB
:1057C0004FF00004EFF305810394A1BBEFF31081C8
:1057D00089BB21490968022902D1EFF3118151BB2C
:1057E00048B3802618218DF8104004AD42B31768E5
:1057F00007B13D4697691FB139467F1E382F02D247
:105800001779FF0702D0002005B0F0BD576907B136
:10581000BE08D2F808C0BCF1000F0DD0D4685C2CD3
:1058200018D312693AB137B18DE8061032462946CD
:1058300001F0E7FD03900DE0D7685FB912694AB93E
:1058400003AACDE90012B2B2294601F0ADFD01284C
:1058500000D003940398D7E7908501202DE9F0410B
:10586000134C0F46054666692068001D00F012FEC5
:10587000681C07D137B12168BDE8F0410D48091D0A
:1058800000F058BE20683544B5424560216805D215
:10589000A068BDE8F041091D00F034BE6068091D34
:1058A00000F030FE206B854200D22563BDE8F08118
:1058B00040850120E49801202DE9F041054600F0E3
:1058C00045FE2D4C2069401C206120682B4F10B1F3
:1058D000E06930B32BE025602069012827D100263C
:1058E00006EB860007EB800000F0FEFD761C382EEC
:1058F000F6D3234800F0F8FD2148143000F0F4FD01
:105900001F48283000F0F0FD1D483C3000F0ECFD51
:105910001B48503000F0E8FD194860601430A0606A
:1059200005E02068E96AC06A884200D82560E06A1C
:10593000401CE0626864E86AA169884200D9A061FD
:1059400000EB800007EB8000291D00F0F3FD00F064
:105950001DFEE06900280CD02068E96AC06A884210
:1059600007D208494FF080500860BFF34F8FBFF354
:105970006F8FBDE8F0810000408501203494012044
:105980009498012004ED00E038B500F0DFFD104CE4
:10599000A068C8B90F4800F0A7FD0E48143000F009
:1059A000A3FD0C482060143060600A4B00202833AF
:1059B000009003F1500210210A2001F002F9A060CA
:1059C00010B105A100F060FEBDE8384000F0DEBD7A
:1059D0007C850120F8980120546D72510000000070
:1059E00030B4026C0B46002A0BD0C1681144C16070
:1059F0004468A14201D30168C16030BC1846FAF77F
:105A000082BC30BC70472DE9F041856B17460446D7
:105A10000026026C82B1C7B1E068FAF774FCE16855
:105A2000206C091AE1602268914202D26168081A6A
:105A3000E060022F16D017E02068A8B9606801F076
:105A4000EDFD0646002060600EE0A068FAF75BFC02
:105A5000216CA0680844A0606168884204D3206873
:105A6000A06001E005B16D1E6D1CA5633046BDE868
:105A7000F08110B5044690F8590058B101280CD0B7
:105A800002280FD0502080F31188BFF34F8FBFF34F
:105A90006F8FFEE7206B00F08DFD2046BDE81040C3
:105AA00000F088BD10BD000010484FF4705142074F
:105AB00006D0C01D0D4920F00700411AC1F57051F4
:105AC0000B4A00230144C2E900030839103A21F0CF
:105AD000070111604B600B600B1AC0E90013936063
