:020000040818DA
:10000000E8AF0120C101180823351808C12C1808D1
:100010002135180897131808CD3F18080000000074
:100020000000000000000000000000002B3A18084B
:10003000C113180800000000293A18082D3A1808C2
:10004000DB011808DB011808DB011808DB011808C0
:10005000DB011808DB011808DB011808DB011808B0
:10006000DB011808DB011808DB011808DB011808A0
:10007000DB011808DB011808DB011808DB01180890
:10008000DB011808DB011808DB011808DB01180880
:10009000DB011808DB011808DB011808DB01180870
:1000A000DB011808DB011808DB011808DB01180860
:1000B000D93A1808E53A1808DB011808DB011808D6
:1000C000DB011808DB011808DB011808DB01180840
:1000D000DB011808D53E1808E13E18085D3F1808F6
:1000E000DB011808DB011808DB011808DB01180820
:1000F000DB011808DB011808DB011808DB01180810
:10010000DB011808DB011808DB011808DB011808FF
:10011000DB011808DB011808DB011808DB011808EF
:10012000DB011808DB011808DB011808DB011808DF
:10013000DB011808DB011808DB011808DB011808CF
:10014000DB011808DB011808DB011808DB011808BF
:10015000DB011808DB011808DB011808DB011808AF
:10016000DB011808DB011808DB011808DB0118089F
:10017000DB011808DB011808DB011808000000008B
:10018000DB011808DB011808DB011808DB0118087F
:10019000DB011808DB011808DB011808DB0118086F
:1001A0000000000000000000DB011808DFF80CD0A0
:1001B00000F0C6FE0048004701711808E8AF0120B2
:1001C0000648804706480047FEE7FEE7FEE7FEE7F1
:1001D000FEE7FEE7FEE7FEE7FEE7FEE7BD3A1808AA
:1001E000AD0118082DE9F05F0546002092469B46B8
:1001F00088460646814640241BE02846414647463D
:10020000224600F08AFC53465A46C01A914110D348
:1002100011461846224600F071FC2D1A67EB0108C2
:100220004F4622460120002100F068FC17EB000930
:100230004E41201EA4F10104DFDC484631462A4627
:100240004346BDE8F09F40EA01039B0703D009E065
:1002500008C9121F08C0042AFAD203E011F8013BB2
:1002600000F8013B521EF9D27047D2B201E000F80B
:10027000012B491EFBD270470022F6E710B513464A
:100280000A4604461946FFF7F0FF204610BD421CFF
:1002900010F8011B0029FBD1801A704710B500220D
:1002A00000E0521C835C8C5CA34201D1002BF8D18E
:1002B000D8B2E1B2401A10BD70B50F4D00B9286830
:1002C000002412E00A4602E09E4203D0521C13783A
:1002D000002BF9D1DAB2224305D02BB124B1002191
:1002E00000F8011B04E00446401C0678002EE9D10A
:1002F0002860204670BD0000C81400202DE9F041A0
:100300000E460546002400E0641C285D00F023FC36
:100310000746305D00F01FFC381A02D1295D002924
:10032000F2D1BDE8F0812DE9F0410546002090466C
:100330000E46044600E0641C44450BD2285D00F0E4
:100340000AFC0746305D00F006FC381A02D1295D30
:100350000029F0D1BDE8F0810FB400B58DB010A92F
:1003600009900B9000914FF0FF300A9000200C9004
:1003700005480690054807906A4609A80F9900F0BD
:1003800005FC0DB05DF814FBA90B1808C70B180885
:100390002DE9FF5F1D464FF0FF3BD5E90146914631
:1003A0005F464FF00008A9697F1C01988847296AB9
:1003B000824688470028F6D1BAF1FF3F0CD024F4DA
:1003C000C064002E19DD600614D5BAF12B0F09D0D8
:1003D000BAF12D0F0ED103E0584604B0BDE8F09FEE
:1003E00044F48064A9697F1C01988847761E824680
:1003F000002E02DDBAF1300F03D0B9F1000F26D084
:1004000032E0A969761E44F400747F1C0198884785
:100410008246002E05DDBAF1780F06D0BAF1580FEA
:1004200003D0B9F1000F10D01EE0B9F1000F02D0D7
:10043000B9F1100F18D1A969761E24F400747F1C3D
:10044000019888478246102002E0082000E00A2038
:10045000814609E008FB0908A969761E44F4007486
:100460007F1C019888478246002E05DD494650468C
:1004700000F077FB0028EDDAE96901988847A005CC
:1004800002D46FF00100A8E7E00725D1600613D57C
:10049000600502D5C8F1000000E0404629680A1D49
:1004A0002A600968220501D5087015E0220701D5E8
:1004B000088011E008600FE02868011D29600068CD
:1004C000210502D580F8008006E0210702D5A0F8BA
:1004D000008001E0C0F8008038467EE72DE9FF4F3C
:1004E000087883B09946FF2805D0491C2D2804D0F0
:1004F0000024002008E000200BE00124F9E700EBD5
:10050000800003EB4000491C0B78FF2BF7D104B1AE
:10051000404200230293147819461D462D2C01D029
:100520002B2C04D1521C2D2C13D000240294AA464B
:100530001478FF2C0FD00A25A3FB057801FB058159
:100540004FF0000C03FB0C11521CE3194AEB0101A4
:10055000EEE70124EAE7814453EA010002D019F5ED
:10056000C87F06DA03980021C0E9001107B0BDE892
:10057000F08F0025AE4E2F46DFF8B882184600F007
:1005800086FCCDE90001B9F1000002DAC9F10004EE
:1005900000E004460023A74A1AEB030B42EB045A7F
:1005A00012E0E00707D02A4633463846414600F0BD
:1005B0007EF9074688462A4633461046194600F01B
:1005C00076F905460E466410002CEAD1DDE90001FB
:1005D000B9F1000F5A46534606DA00F0DAF93A4606
:1005E000434600F0D6F905E000F061F93A4643468B
:1005F00000F05DF9029A0AB181F00041039AC2E964
:100600000001B3E72DE9FF4F1F468DB0D7E9014642
:100610004FF0FF382E2045464FF000090B90B96986
:100620006D1C0E988847396A824688470028F6D1A3
:10063000BAF1FF3F0AD024F4D064002E11DDBAF1E4
:100640002B0F08D0BAF12D0F0BD102E0404611B0AC
:100650008DE744F48064B9696D1C0E988847824622
:10066000761E6946600501D52D2000E02B208DF80F
:10067000000001F1010B0DF1200809E0B9696D1CC2
:100680000E98884782460F9844F40074761E0560E1
:10069000002E02DDBAF1300FF0D00B998A453ED121
:1006A00044F0800406E00F99681CA9F1010944F4A4
:1006B00000740860B9696D1C761E0E9888478246E2
:1006C0003028F0D02BE00B998A4505D1200603D4C1
:1006D00044F08004761E18E0504603F073FD08B322
:1006E0000DF11301761E44F400748B4508D2AAF173
:1006F00030000BF8010B200607D5A9F1010003E03B
:10070000200602D409F101008146A00502D50F9907
:10071000681C0860B9696D1C0E9888478246002ED7
:10072000D1DC53E0002E51DDBAF1650F02D0BAF1F1
:10073000450F4BD1A00549D5B9696D1C24F440740F
:10074000761E0E9888478246002E0CDD2B2804D09A
:10075000BAF12D0F07D144F48074B9696D1C0E985D
:1007600088478246761EE00501D52D2100E02B2129
:1007700008F8011BCDF82C8021E00DF12901761E2F
:1007800044F4007488450CD2AAF1300010F0FF0048
:1007900088F8000002D10B99884509D908F10108B1
:1007A00006E0E00501D5244801E042F20F708146E1
:1007B000B9696D1C0E98884782460F980560002E17
:1007C00004DD504603F0FEFC0028D6D1F9690E98EE
:1007D0008847FF208BF8000088F800000020069072
:1007E00007904B466A4608A906A8FFF777FEA005C2
:1007F00002D46FF001002AE714F0240F0AD0E007BA
:1008000014D1DDE906123868031D3B600068C0E9B9
:1008100000120BE0DDE9060100F076FB0146E0077F
:1008200004D13868021D3A600068016028460EE76E
:10083000000014400000F03FF1D8FFFF2DE9F05F09
:1008400093460F4680460446002603F0E5FBD0F8A9
:100850000090824614F8015B2DB100F06FF900683A
:10086000405DC007F6D12B2D02D02D2D1AD0641E6D
:100870000021CAF800105A463946204600F0B4F963
:10088000014627B13868A04201D1C7F80080DAF8E4
:100890000000022809D0CAF80090700505D548422A
:1008A000BDE8F09F46F48066E2E70846F8E72DE9E8
:1008B000FE4F81EA030404F0004421F0004100945B
:1008C0004FF0000B23F0004350EA01045ED052EADF
:1008D00003045BD0C3F30A54C1F30A552C44A4F2B9
:1008E000F3340194A0FB0254C1F3130141F48011CD
:1008F000C3F3130343F4801301FB024400FB034ED4
:10090000840A970A44EA815447EA8357A4FB07689C
:1009100002958D0A05FB07854FEA932C04FB0C54C6
:100920002705029D4FEA065847EA1637B5EB08053A
:100930006EEB070C870E920E47EA811742EA83128C
:10094000A7FB0201B6EB0B0164EB00042B0D43EA9D
:100950000C335E1844EB1C50DA465146E7FB0201AB
:10096000C5F313044FEA0B3343EA14534FEA04323E
:10097000019C43EA0603A4F10C040294009CCDE917
:1009800000B400F08FF903B0BDE8F08F00200146FD
:10099000F9E72DE9F04D81EA030404F0004B21F062
:1009A000004514464FF0000A23F0004150EA0502CA
:1009B00020D054EA01021DD0C5F30A570246C5F300
:1009C0001303C1F31300C1F30A5640F4801543F436
:1009D0008013A7EB0608101BD64608F2FD3873EB10
:1009E000050002D308F1010801E092185B41B8F15B
:1009F000000F03DA00200146BDE8F08D00204FF41F
:100A00008011064684460EE0171B73EB050705D3DD
:100A1000121B63EB050306434CEA010C49084FEA3D
:100A2000300092185B4150EA0107EDD152EA030011
:100A300012D082EA040083EA0501084305D0101BA6
:100A4000AB4106D20122002306E000224FF0004312
:100A500002E06FF0010253101AEB06004CEB085154
:100A600010EB0A0041EB0B01BDE8F04D00F00BB9B3
:100A70000EB5C10F80EAE0700844CA07002140F2B9
:100A800033438DE80E000A460B4600F00BF903B025
:100A900000BD70B5C1F30A5201F000450024C1F356
:100AA000130140F2FF3341F480119A4201DA002031
:100AB00070BD40F233439A42A2F2334203DC524209
:100AC00000F02BF800E090402C43F1D0404270BD84
:100AD00030B50B46014600202022012409E021FA0E
:100AE00002F59D4205D303FA02F5491B04FA02F50B
:100AF0002844151EA2F10102F1DC30BD202A04DBDE
:100B0000203A00FA02F1002070479140C2F1200320
:100B100020FA03F3194390407047202A04DB203A5F
:100B200021FA02F00021704721FA02F3D040C2F10D
:100B30002002914008431946704700000048704762
:100B4000707F180810B50446FFF7F8FF0068005DD5
:100B500000F0010010BDA0F14101192900D820309A
:100B600070473A2800D2303820F02002412A01D3C1
:100B7000A2F13700884201D34FF0FF3070470000E8
:100B8000026811441378016018467047D160044927
:100B900051610449116200211161114600F0F4B95C
:100BA000810B1808450B1808426842B1016811F81A
:100BB000013B23B1521EC0E90012184670470121C3
:100BC000C160881E704742685AB1C368016843B962
:100BD00083688B4205D0491E521CC0E900120020D8
:100BE00070474FF0FF3070472DE9F05F8246007884
:100BF000002715468B460AF10104B946302801D07A
:100C00009DB113E014F8010B0127782803D0582870
:100C100001D045B10AE00DB1102D07D100271025F4
:100C200014F8010B02E0082500E00A250026B04672
:100C30000EE005FB080005FB06F1012701EB10465D
:100C40001FFA80F8B6F5803F00D3B94614F8010BBF
:100C50002946FFF786FF0028EBDABBF1000F05D02D
:100C60000FB1641E00E05446CBF80040B9F1000F0C
:100C700006D003F0D1F902210160C81EBDE8F09F43
:100C800048EA0640FAE710B5141E73F1000408DACA
:100C9000401C41F1000192185B411A4301D120F040
:100CA000010010BD2DE9F04D92469B4611B1B1FAFD
:100CB00081F202E0B0FA80F220329046FFF71EFF88
:100CC00004460F4640EA0A0041EA0B0153465A46E1
:100CD000084313D0114653EA010019D0C8F140026D
:100CE0005046FFF71AFF05460E4650465946424603
:100CF000FFF704FF084305D0012004E020463946F1
:100D0000BDE8F08D0020054346EAE0762C433743EA
:100D10000A986305E40AA0EB08000022FD0A44EAF1
:100D200047540A3002D500200146E9E701051019B1
:100D30006941DDE9084500196941BDE8F04DA2E7C8
:100D40002DE9FE4F804681EA0300C00F0C4600905B
:100D500021F0004123F00045B8EB0200A94105D283
:100D60004046214690461C460B46024623F0004072
:100D7000104347D0270DC7F30A00C3F30A5102906E
:100D8000401A019040286BDAC3F3130040F4801B33
:100D90000098924620B10023D2EB030A63EB0B0BC1
:100DA00001985946C0F140025046FFF7A7FE06469B
:100DB0000D4650465946019A00F0D4F810EB080051
:100DC0006141002487EA115284EAE7731A4340D054
:100DD000009A62B3019A012A4FEA075215DC001B00
:100DE00061EB02014FF0004202EA0752CDE90042F6
:100DF000001C41F5801132462B46FFF753FF03B02C
:100E0000BDE8F08F40462146F9E7001B61EB020187
:100E1000001C41F5801300185B412018A2F5001753
:100E200047EB030140EAD570B6196D4111E06D083A
:100E30004FEA360645EAC0754FEA0752001B61EBE0
:100E40000201001C41F5801149084FEA30000019E9
:100E5000514132462B4603B0BDE8F04FFFF713BFB8
:100E60000098012240000023D0EB020263EBE07304
:100E7000009821464FEAE074B8EB000061EB0401F2
:100E8000E9E783F000435BE781F0004158E70EB5E6
:100E900040F2334202920022CDE900221346FFF7CE
:100EA00001FF03B000BDC1F30A52C1F3130140F2C8
:100EB000FF3341F480119A4202DA00200146704764
:100EC00040F233439A42A2F2334202DC5242FFF72D
:100ED00024BEFFF713BE000030B5041E71F10004FC
:100EE00004DB4FF00044404264EB0101141E73F137
:100EF000000405DB1C464FF00043524263EB040341
:100F0000994208BF904230BD01F0004330B421F057
:100F1000004150EA010206D00A0DA2F56072C1F349
:100F20001301002A02DC30BC00207047440F44EA61
:100F3000C104C100E01830BC00EBC25000F0BAB9E7
:100F4000064C074D06E0E06840F0010394E8070016
:100F500098471034AC42F6D3FFF72CF9CC8118082F
:100F6000EC811808202A06DBCB17203A41FA02F060
:100F700043EAE07306E041FA02F3D040C2F12002F6
:100F800091400843194670472DE9F34F8BB04FF05D
:100F9000000801F10C000C464FF0010B46460DF124
:100FA000080A01906269012101989047051E2DD021
:100FB000252D2CD0216A8847C0B162690121019892
:100FC0009047216A88470028F7D1411E626901983D
:100FD000904700E0761CA1690B988847216A8847F2
:100FE0000028F7D1E1690B988847DBE7A1690B98E6
:100FF00088470746A84201D1761CD3E7E1690B98E0
:1010000088477F1C02D1B8F1000F6FD046E100275E
:1010100062693D463946019890472A2804D16269A1
:101020000121019890470125DFF88492626901212E
:1010300001989047A0F130010A290AD24F45E5DC1A
:1010400007EB870100EB4107303FDFD445F0100587
:10105000ECE7E90601D46FF000476C280AD04C2871
:1010600014D0682815D06A280DD074281CD07A288E
:101070001AD01DE062690121019890476C2802D0C6
:1010800045F0040514E045F002050DE045F02005AB
:101090000AE06269012101989047682802D045F072
:1010A000080505E045F40065626901210198904753
:1010B000C4E9015765283DD019DC58287AD00CDCEA
:1010C000452837D004DC252826D0412831D131E00D
:1010D00046282FD047282CD12CE05B2877D06128D8
:1010E00028D063287CD0642823D15AE0D0E06F2830
:1010F00048D008DC66281DD067281BD0692821D07D
:101100006E2816D127E0702845D0732868D075283E
:1011100047D078280DD14DE0A1690B988847054646
:1011200025283FF469AFE1690B9888476D1C3FF4AF
:101130006AAFB3E023466A466FF001000B99FFF7F0
:1011400061FA9EE045F040006060A80723464FF03A
:10115000000236D43EE0E8077FF447AF2068011D67
:1011600021600068290501D506701BE7290701D514
:10117000068017E7A90703D5F117C0E9006111E759
:1011800006600FE745F040006060A80723464FF077
:10119000080216D41EE040F60E0125EA0100606048
:1011A00016E045F040006060A80723464FF00A02B1
:1011B00007D40FE045F040006060A80708D523463B
:1011C00010226FF001000B99AFF3008059E007E0A7
:1011D000234610226FF001000B99FFF7D9F850E079
:1011E0004FF000094F464B46632802D05B2806D0DB
:1011F00040E0E80601D40120A06001273AE06269DE
:101200000121019890475E2805D14FF001096269DC
:10121000494601989047216939B900210A46534649
:1012200043F82120491C0829FADBB0B3216969B9C8
:10123000C11700EBD16253110AEB830122F01F02A8
:10124000821A01200B68904003430B606269012100
:10125000019890475D28E8D1B9F1000F09D000202E
:10126000514651F82020D24341F82020401C082844
:10127000F7DB02AB224600976FF001000B99AFF34A
:10128000008000280CDA401C08D1BBF1000F05D00B
:101290004FF0FF300DB0BDE8F08FFFE74046F9E7B3
:1012A000E90701D108F1010806444FF0000B79E687
:1012B000CCCCCC0C0029A8BF7047401C490008BF0B
:1012C00020F00100704710B4B0FA80FC00FA0CF076
:1012D00050EA010404BF10BC704749B1CCF12004AE
:1012E00021FA04F411FA0CF118BF0121214308433B
:1012F000A3EB0C01CB1D4FEA00614FEA102042BF67
:10130000002010BC704700EBC35010440029A4BF5C
:1013100010BC7047401C490008BF20F0010010BC01
:10132000704770B58C1810F8015B15F0070301D1F8
:1013300010F8013B2A1106D110F8012B03E010F838
:10134000016B01F8016B5B1EF9D12B0705D400235B
:10135000521E0DD401F8013BFAE710F8013BCB1AFD
:10136000921C03E013F8015B01F8015B521EF9D5F2
:10137000A142D8D3002070BD020E0A70020C4A7040
:10138000020A8A70C87070470168C07809BA21F0F3
:10139000FF0108437047FEE730B54FF0FF330022EE
:1013A000064C07E0855C5D40EDB2521C54F82550B8
:1013B00085EA13238A42F5D3D84330BD08000020C4
:1013C0007047704790F83510022903D0802141659D
:1013D00001207047052180F835100068016821F070
:1013E000010101600020704770B5044600F002F969
:1013F0000546601C02D004480078044400F0FAF866
:10140000401BA042FAD370BDB81400202DE9F84F5C
:1014100000224FF0010803254FF00F0E0B6808FA69
:1014200002F42340A3426ED14E68012E05D0022E55
:1014300003D0112E01D0122E12D186684FEA420C31
:1014400005FA0CF7BE43CF6807FA0CF737438760FD
:101450004668A6430C79C4F30014944034434460B6
:10146000C668570005FA07FC8C6826EA0C06BC40E3
:101470003443C4604C68022C01D0122C13D1D40820
:1014800000EB8404A346D4F8209054074FEAD46AB2
:101490000EFA0AF629EA06090E6906FA0AF646EA7B
:1014A0000906CBF8206004680E7924EA0C0406F0E3
:1014B0000306BE40264306604C68E4006FD53B4CF3
:1014C000266846F480462660246822F0030604F469
:1014D00080440094364C3444A446D4F80848960717
:1014E000360F0EFA06F7BC43324FB84201D100273F
:1014F0002EE0314FB84201D1012729E02F4FB842E9
:1015000002D1022724E04AE02D4FB84201D103273F
:101510001EE02C4FB84201D1042719E02A4FB842EF
:1015200001D1052714E0294FB84201D106270FE069
:10153000274FB84201D107270AE0264FB84201D110
:10154000082705E0244FB84201D1092700E00A2707
:10155000B7402743CCF80878204E34684F689C4346
:10156000FF0300D51C4334601C4E361D34684F68A1
:101570009C43BF0300D51C433460184E08363468C2
:101580004F689C43FF0200D51C433460134E0C3659
:1015900034684F689C43BF0200D51C433460521C22
:1015A000102AFFF43BAFBDE8F88F0000443802403A
:1015B00000300140000002400004024000080240E8
:1015C000000C0240001002400014024000180240CB
:1015D000001C02400020024000240240003C014068
:1015E0000069084000D0012070470AB1816170474E
:1015F0000904FBE70148806870470000B814002028
:1016000090F83D20202A01D002207047242280F843
:101610003D200268136823F0010313600268536AD7
:1016200023F0100353620268536A0B43536201684C
:101630000A6842F001020A60202180F83D10002073
:10164000704790F83D20202A01D0022070472422C4
:1016500080F83D200268136823F0010313600368DB
:101660005A6A22F00F020A4391B2596201680A686D
:1016700042F001020A60202180F83D1000207047EE
:1016800070B5040025D094F83D00002520B984F8F9
:101690003C50204600F03CFB242084F83D002068AC
:1016A000016821F0010101602068016841F40041F6
:1016B00001602068016821F40041016000F0C8FC6D
:1016C0004D4A6168914201D84C4900E04C4988423A
:1016D00001D2012070BD4B492368B0FBF1F15E6877
:1016E00026F03F060E435E606368934206D94FF4CE
:1016F000967359434FF47A73B1FBF3F12368491C95
:101700001E6A26F03F06314319626168914210D883
:101710004900401EB0FBF1F2521CC2F30B02042A36
:1017200001D2042022E0B0FBF1F0401CC0F30B001A
:101730001CE0A268F2B301EBC10303EB0116431EE8
:10174000B3FBF6F35B1C43F480431B0549D092B313
:1017500001EBC10202EB0111401EB0FBF1F0401C95
:10176000C0F30B0040F4804040F400402168CA6997
:101770004CF6FF739A431043C861D4E90710014344
:101780002068026822F0C00211430160D4E903011D
:1017900001432068826848F2FF339A431143816015
:1017A000D4E9050108432168CA6822F0FF0210430A
:1017B000C86001E00EE016E02068016841F0010118
:1017C00001602564202084F83D00256384F83E50A4
:1017D000002070BD01EB4106431EB3FBF6F35B1C1A
:1017E000B3E70120C2E701EB4101401EB0FBF1F07D
:1017F000401CC0F30B00B7E7A086010080841E00E8
:1018000000093D0040420F002DE9F84F1F46904669
:101810008A460446DDF82890FFF7ECFE054694F86A
:101820003D00202875D1192301226C4920460095DE
:1018300001F0CCFB0028F5D194F83C00012868D0D9
:10184000012084F83C0020680168C90703D10168C1
:1018500041F0010101602068016821F4006101602C
:10186000222084F83D00102084F83E0000262664E3
:10187000C4F824806785608D20855948E0622B4636
:101880004A465146204601F033FA002878D1208D8F
:10189000544F68B1012814D002282068016816D07E
:1018A00041F480610160206841698069009087E0AF
:1018B0002068416981690091016841F4007101600B
:1018C0007EE02068016821F480610160F0E721F486
:1018D000806101602068016841F40061E2E703284B
:1018E00048D801280AD0022814D04B460022394695
:1018F0002046009501F06AFBD8BB27E02A464946FE
:10190000204601F0E2FBA0BB20680069616A087014
:101910004DE061E04B46002239462046009501F03B
:1019200055FB30BB2068016841F4007101602068FC
:101930000069616A0870606A401C6062218D491EFE
:101940002185618D491E618521682EE0206801682E
:1019500021F48061016020680069616A0870606A32
:10196000401C6062208D401E2085608D401E608579
:10197000D0E705E02A464946204601F0A6FB10B113
:101980000120BDE8F88F20680069616A0870606A0C
:10199000401C6062218D491E2185618D491E618533
:1019A00021684A69D24352070AD409690170606A02
:1019B000401C6062208D401E2085608D401E608529
:1019C000208D00288BD1202084F83D0084F83E60D3
:1019D00084F83C600020D4E70220D2E70200100027
:1019E0000000FFFF040001002DE9FF4F83B09A467D
:1019F000DDE9119793460446DDF84080FFF7FAFDD4
:101A0000054694F83D00202870D119230122714920
:101A10002046009501F0DAFA0028F5D194F83C0050
:101A2000012863D0012084F83C0020680168C907C0
:101A300003D1016841F0010101602068016821F4CF
:101A400000610160222084F83D00402084F83E00BF
:101A500000262664C4F82480A4F82A90608D20858E
:101A60005D48E062CDE9007553465A462046049928
:101A700001F0B4F900287CD1208DD0B1012821D00B
:101A80000228206824D0416980690090208D0328B5
:101A900069D801282BD0514902283B464FF000025B
:101AA000009559D08846204601F090FA002860D170
:101AB0003CE02068416981690091016841F400714E
:101AC000016077E02068016821F480610160F0E73F
:101AD000016821F4806101602068016841F40061BF
:101AE0000160206841698069009063E06FE02A46E8
:101AF0003946204601F0E9FA98BB20680069616A1E
:101B000008704EE02068016841F4007101602068AF
:101B10000069616A0870606A401C6062218D491E1C
:101B20002185618D491E6185216838E02068016842
:101B300021F48061016020680069616A0870606A50
:101B4000401C6062208D401E2085608D401E608597
:101B50003B46002241460095204601F037FA00B985
:101B6000D0E706E0FFE72A463946204601F0ADFA05
:101B700018B1012007B0BDE8F08F20680069616AE4
:101B80000870606A401C6062218D491E2185618D4C
:101B9000491E618521684A69D24352070AD40969FE
:101BA0000170606A401C6062208D401E2085608D3F
:101BB000401E6085208D00287FF468AF202084F8C7
:101BC0003D0084F83E6084F83C600020D2E70220AB
:101BD000D0E70000020010000000FFFF0400010039
:101BE0002DE9FF4F83B09A46DDE9119793460446ED
:101BF000DDF84080FFF7FEFC054694F83D00202804
:101C00007FD11923012240492046009501F0DEF9D9
:101C1000002876D194F83C00012872D0012084F885
:101C20003C0020680168C90703D1016841F0010147
:101C300001602068016821F400610160212084F8BE
:101C40003D00402084F83E0000262664C4F824802D
:101C5000A4F82A90608D20852C48E062CDE90075BB
:101C600053465A462046049901F036F970B930E0DF
:101C70002A463946204601F05BFA58B1206C042808
:101C800004D12068016841F400710160012007B0AF
:101C9000BDE8F08F606A216800780861606A401CC6
:101CA0006062218D491E89B22185628D521E628536
:101CB00022685369DB435B070BD469B1007810617C
:101CC000606A401C6062208D401E2085608D401E31
:101CD0006085208D0028CBD12A463946204601F068
:101CE0004FF90028CAD154F83D0B016841F4007146
:101CF0000160202004F81E09E67766770020C6E719
:101D0000FFE70220C3E70000020010000000FFFF11
:101D100010B586B0044614216846FEF7ADFA1349A3
:101D20002068884220D11248016841F00201016018
:101D30000068694600F002000590C0200090122063
:101D40000190012002900320039004200490094890
:101D5000FFF75CFB06481030016841F40011016098
:101D6000006800F40010059006B010BD005400405B
:101D70003038024000040240024881680278114471
:101D800081607047B81400200B4810B5016841F419
:101D900000710160016841F480610160016841F4F3
:101DA00080710160032000F06FF8002000F006F859
:101DB00000F024F8002010BD003C024070B50D4D2D
:101DC00004464FF47A712878B1FBF0F00A490968AB
:101DD000B1FBF0F000F03CFB48B9102C07D2002218
:101DE0002146501E00F030F800206C6070BD0120CC
:101DF00070BD0000B8140020C41400200A4808B5C3
:101E0000016841F480410160006800F48040009066
:101E10000548001F016841F080510160006800F032
:101E20008050009008BD000044380240002809DBC3
:101E300000F01F02012191404009800000F1E020E4
:101E4000C0F8001170470000F0B40E4B1B680C4640
:101E5000C3F30223C3F10705042D00D90425191D7E
:101E6000072901D2002300E0DB1E012606FA05F156
:101E7000491E214099409E40761E16403143F0BCD9
:101E800002F0BAB80CED00E0064900F0070208685D
:101E90004FF6FF03184040EA0220034A104308604F
:101EA000704700000CED00E00000FA052DE9F84352
:101EB0001748016841F0805101600068154F00F03B
:101EC0008050012600903E64FFF794FB05464FF4D6
:101ED0007A78114C05E000BFFFF78CFB401B4045B2
:101EE0000DD86068C003F7D57E64FFF783FB054615
:101EF000464607E0FFF77EFB401BB04202D90320B5
:101F0000BDE8F88360688003F4D50020F8E700009E
:101F10004038024000000E42007000402DE9F047BA
:101F20000E46050065D0DFF81481D8F80000F7B23E
:101F300000F00F00B04207D288F80070D8F8000017
:101F400000F00F00B04254D128683D4C810712D5F3
:101F5000400703D5206840F4E0502060287800074F
:101F600003D5206840F4604020602068A96820F014
:101F7000F000084320602878C0072DD030496868F9
:101F80000839012812D0022813D0032811D009687B
:101F9000890700292DDA216821F00301014321601E
:101FA000FFF728FB814641F2883A0EE00968890371
:101FB000EFE709688901ECE7FFF71CFBA0EB0901DB
:101FC000514502D90320BDE8F0872068696800F018
:101FD0000C00B0EB810FEFD1D8F80010404601F0B3
:101FE0000F01B14207D90770006800F00F00B0423E
:101FF00001D00120E7E72878400705D52068E96887
:1020000020F4E050084320602878000706D52068B7
:10201000296920F4604040EAC100206000F038F8EF
:102020002168084AC1F30311515CC84006490860A1
:1020300006480068FFF7C2FE0020C4E7003C0240EB
:1020400008380240D47E1808C4140020BC140020B4
:102050000448054900680968044AC1F38221515CBB
:10206000C8407047C414002008380240E47E1808B5
:102070000448054900680968044AC1F34231515CCB
:10208000C8407047C414002008380240E47E180895
:10209000154810B5006810F00C02144813D014490C
:1020A000042A0FD0082A0ED10F4C241F226823685F
:1020B00002F03F025B0207D52068C0F38810A0FB46
:1020C000010106E0084610BD2168C1F38811A1FB9B
:1020D00000010023FEF786F82168C1F30141491C85
:1020E0004900B0FBF1F010BD083802400024F400B4
:1020F000002D31012DE9F84F040076D02078DFF86B
:1021000038A3CE4DC00749D0DAF800105046C1F3CD
:102110008101012908D00068C0F3810002280AD19A
:10212000281D0068400206D52868800336D56068FF
:102130000028E2D032E06068B0F5803F10D0B0F502
:10214000A02F286810D020F480302860286820F460
:10215000802028606068A0B1FFF74CFA06460CE0CA
:10216000286840F48030F4E740F480202860F7E7E6
:10217000FFF740FA801B642873D828688003F7D5DE
:102180000CE0FFF737FA064605E000BFFFF732FA2A
:10219000801B6428F0D828688003F7D42078DFF803
:1021A000A08280074FF000093ED5DAF800105046B3
:1021B00011F00C0F09D00068C0F3810002280BD188
:1021C0009D48001F0068400206D42868800715D586
:1021D000E068012809D111E0E068B8B10120C8F831
:1021E0000000FFF707FA064605E020E1FFF702FAD4
:1021F000801B0228C0D828688007F7D52868216985
:1022000020F0F80040EAC10028600DE0C8F8009016
:10221000FFF7F0F9064604E0FFF7ECF9801B02280F
:102220001FD828688007F7D42078000722D5824E6F
:10223000844861696C3671B101210160FFF7DAF9F8
:10224000074604E0FFF7D6F9C01B022809D830681A
:102250008007F7D50EE0C0F80090FFF7CBF90746EE
:1022600005E082E0FFF7C6F9C01B02287DD8306880
:102270008007F7D42078400768D5DFF8BCB1002785
:102280000BF1380BDBF80000C0000BD4DBF80010BA
:1022900041F08051CBF80010DBF80000012700F07E
:1022A00080500090684E3068C00510D4306840F40B
:1022B00080703060FFF79EF9009005E0FFF79AF913
:1022C0000099401A022850D83068C005F6D55A4EF9
:1022D000A068683601280FD00528306810D020F09B
:1022E00001003060306820F004003060A068B8B1B0
:1022F000FFF780F900900FE0306840F00100F4E74C
:1023000040F004003060F7E7FFF774F90099411AD4
:1023100041F28830814266D830688007F4D50EE0FB
:10232000FFF768F9009007E0FFF764F90099411A98
:1023300041F28830814256D830688007F4D42FB1FA
:10234000DBF8001021F08051CBF80010A069D0B369
:10235000DAF800205146C2F38102022A4AD002284C
:10236000484607D0C8F8600000E03CE0FFF742F9BB
:1023700004463BE04746C8F86000FFF73BF90646D5
:1023800005E000BFFFF736F9801B02282BD828682C
:102390008001F7D4D4E907010843A16A2B4A490810
:1023A00002EB0141626A41EA8211084394F82C1061
:1023B00040EA01612048001F016001203866FFF7F4
:1023C00019F9044605E034E0FFF714F9001B022870
:1023D00009D828688001F7D52BE000BFFFF70AF97C
:1023E000001B022802D90320BDE8F88F286880016D
:1023F000F4D41EE00128F7D00868E26900F48001F7
:10240000914214D1226A00F03F0191420FD147F668
:10241000C071626A0140914209D1A26A00F4403160
:10242000914204D1E16A00F07060884201D001203D
:10243000DAE70020D8E70000083802400038024000
:1024400000004742800E4742007000400000FFFF3E
:1024500010B5401EB0F1807F01D3012010BD4FF0B8
:10246000E02460610F21601701F0C6FD0020A0612B
:1024700007202061002010BD7047704770B590F8AC
:102480003C20012A32D0012480F83C40022280F80E
:102490003D2003685A689D6822F070060A6832433E
:1024A0005A60134B02689A4214D0B2F1804F11D097
:1024B000104B9A420ED0104B9A420BD00F4B9A42BF
:1024C00008D00F4B9A4205D00E4B9A4202D00E4BC9
:1024D0009A4204D1496825F080031943916080F83D
:1024E0003D40002180F83C10084670BD022070BDC0
:1024F000000001400004004000080040000C0040C3
:1025000000040140004001400018004010B50400E4
:1025100003D094F83D0010B107E0012010BD002069
:1025200084F83C00204600F00DF8022084F83D00BD
:10253000211D206801F0DCFA012084F83D00002014
:1025400010BD000008B501681448B1F1804F14D0E7
:10255000134A914220D1016841F0020101600068F4
:10256000002200F00200009011461D20FFF76CFCD5
:102570001D20BDE80840FFF759BC016841F001018A
:1025800001600068002200F00100009011461C204C
:10259000FFF75AFC1C20ECE708BD00004038024061
:1025A0000004004070B5044690F83C00012817D0A4
:1025B000012584F83C50022084F83D0020688268A0
:1025C00022F0770222F47F4282600868502830D0DF
:1025D0000DDC20284DD005DC98B310283BD148E015
:1025E000022070BD302844D0402834D139E0602822
:1025F00028D0702806D0B0F5805F2CD0B0F5005FF1
:1026000029D10AE0CB68D1E90121206801F0D4FA90
:102610002068816841F0770109E0CB68D1E90121A8
:10262000206801F0C9FA2068816841F48041816026
:1026300011E0CA684968206801F0D0FA502120688A
:1026400007E016E0CA684968206801F0D8FA6021FE
:10265000206801F0BBFA84F83D50002084F83C006B
:1026600070BDCA684968206801F0B8FA4021206846
:10267000EFE7226801461046EBE7704770B5044665
:10268000006801694FF00005C943890715D4C16886
:10269000C943890711D4E91E016101202077206810
:1026A00080698007204602D0FFF7E7FF04E000F0D2
:1026B00098F8204600F096F8257720680169C9430C
:1026C000490717D4C168C943490713D46FF00401FF
:1026D0000161022020772068806910F4407F204645
:1026E00002D0FFF7CAFF04E000F07BF8204600F0BC
:1026F00079F8257720680169C943090716D4C168AC
:10270000C943090712D46FF0080101610420207742
:102710002068C0698007204602D0FFF7AEFF04E0C2
:1027200000F05FF8204600F05DF825772068016929
:10273000C943C90617D4C168C943C90613D46FF089
:1027400010010161082020772068C06910F4407FE3
:10275000204602D0FFF791FF04E000F042F8204647
:1027600000F040F8257720680169C943C90708D1FE
:10277000C168C943C90704D1891E0161204600F020
:1027800032F820680169C943090609D4C168C94300
:10279000090605D46FF0800101612046FFF76CFE49
:1027A00020680169C943490609D4C168C94349067B
:1027B00005D46FF040010161204600F015F8206853
:1027C0000169C94389060BD4C168C943890607D486
:1027D0006FF0200101612046BDE87040FFF74DBE5B
:1027E00070BD7047704770477047704770B502689A
:1027F00004461068D168536910F00F0F52D003F0EF
:10280000010501F490762E435FD0C20705D0CA05BA
:1028100003D5E26B42F00102E263420705D5DA0715
:1028200003D0E26B42F00202E263820705D5DA07C9
:1028300003D0E26B42F00402E263020707D501F025
:1028400020022A4303D0E26B42F00802E263E26B0B
:10285000002A33D0800604D5880602D5204601F030
:10286000F6F920684069E16BC0F38010090700D4D5
:1028700028B3204601F0DDF92068416949061AD5E0
:10288000416921F040014161606BA0B11B490165C4
:10289000606BFEF797FD002810D0606B016DBDE8FE
:1028A00070400847830610D58B060ED52046BDE83C
:1028B000704001F0CCB92046FFF797FF70BD20466D
:1028C000FFF793FF0020E06370BD030606D50B06FB
:1028D00004D52046BDE8704001F098BA4006F3D513
:1028E0004806F1D5D168204621F04001D160202171
:1028F00084F8391000F0E3F970BD0000233C18089B
:1029000070B5040004D094F83900002510B106E039
:10291000012070BD84F83850204600F023F82420B0
:1029200084F839002068C16821F40051C160204654
:1029300001F0D8F92068016921F490410161206813
:10294000416921F02A0141612068C16841F40051C8
:10295000C160E563202084F8390084F83A00002043
:1029600070BD0000F0B587B0044614216846FDF73D
:1029700083FC3D4B276800223C490224032507269F
:102980003B489F4221D1394B14331F6847F0100751
:102990001F601B6803F0100305930B6843F00103ED
:1029A0000B60096802AB01F0010105916902CDE9F4
:1029B000001483E864006946FEF728FD00221146F2
:1029C0002520FFF741FA252024E0284BDFF8A4C09A
:1029D0001033674522D11F6847F400371F601B681A
:1029E00003F4003305930B6843F001030B6009689F
:1029F00002AF01F0010105910C21CDE9001487E837
:102A000064006946FEF702FD002211462620FFF70A
:102A10001BFA2620FFF70AFA07B0F0BD16488742D6
:102A2000FAD1186840F480201860186800F48020FB
:102A30000590086840F002000860086802AF00F0E6
:102A4000020005904FF44060CDE9000487E864007F
:102A500069460A48FEF7DAFC002211462720FFF7F4
:102A6000F3F92720D6E7000000100140303802407B
:102A700000000240004400400048004000040240C2
:102A80002DE9F843044690F83A00994616460D465B
:102A9000202852D1BDB1B6B194F8380001284CD0ED
:102AA000012084F838000027E763222084F83A00E8
:102AB0002C34FEF79FFD24F8026B804624F80A6B45
:102AC00004F8387931E00120BDE8F883E08D401E3C
:102AD000E085A0684346B0F5805F4FF000024FF0FC
:102AE00020012046CDF8009004D001F0C0F998B143
:102AF0000320E9E701F0BBF90028F9D1206900289B
:102B00002068406803D0C1B225F8011B0DE0C0F376
:102B1000080125F8021B08E02069002820684068A9
:102B200001D000F07F0005F8010BE08D0028CDD129
:102B3000202084F83A000020C6E70220C4E790F87D
:102B40003A30202B22D1F9B1F2B190F83830012B74
:102B50001CD081628285C2850021C163222280F857
:102B60003A2080F838100168CA6842F48072CA605E
:102B700001684A6942F001024A610068C16841F097
:102B80002001C1600020704701207047022070477B
:102B900019490068096888422DD1184801680868F9
:102BA000C2888388521C9A4205D0C3880289934206
:102BB0000DD182885AB983880268D25C82880389E1
:102BC0009A4201D1002201E08288521C828008686A
:102BD0000B49C38809780268D154C188028991429F
:102BE00001D1002101E0C188491CC18001220449B2
:102BF0000148FFF7A4BF704790AB0120B414002038
:102C0000A80400202DE9F843044690F839001F4637
:102C100016460D46202850D1B5B1AEB194F8380013
:102C200001284AD0012084F838004FF00008C4F889
:102C30003C80212084F83900FEF7DCFCA684814624
:102C4000E68484F8388026E00120BDE8F883E08C33
:102C5000401EE084A0684B46B0F5805F4FF0000254
:102C60004FF080012046009703D001F000F9E8B949
:102C70000DE001F0FCF8C8B928882168C0F308000D
:102C80004860206908B16D1C05E0AD1C03E02168B7
:102C900015F8010B4860E08C0028D8D14B46002283
:102CA00040212046009701F0E2F808B10320CCE76C
:102CB000202084F839000020C7E70220C5E77047CC
:102CC000FEE701684A69D24352050FD46FF480626F
:102CD0004A61002140F8301F20224273817302694B
:102CE00042F0040202610173012070470020704726
:102CF0002DE9F84F0446C06A1E4693460D462168EA
:102D00000A6842F480620A60082807D0012805D0CA
:102D100010F5803F02D0206B112804D12068016893
:102D200041F4807101604FF001195B460022494671
:102D30002046009600F04AF94FF4007840B1206830
:102D40000068C00501D5C4F840800320BDE8F88FB5
:102D50002069DFF884A0B0F5804F0FD006202168ED
:102D600000EAD51747F0F000086133465A460AF1E9
:102D70000601204600F05EF958BB03E0E8B240F0DF
:102D800001001CE02168E8B2086133465A4651460A
:102D9000204600F04FF9E0B920684169816900914F
:102DA000016841F4807101605B460022494620467B
:102DB000009600F00BF90028C1D147F0F10021681E
:102DC000086133465A465146204600F033F9002840
:102DD000BCD00120BAE70000020001002DE9F84F45
:102DE0000446006889460B9D01689846174641F4E1
:102DF000806101602068016841F480710160009584
:102E00004FF0011B0022594620460A9B00F0DEF8D5
:102E10004FF4007A40B120680068C00501D5C4F8BD
:102E200040A00320BDE8F88F216809F0FE0008618A
:102E30002B46284920460A9A00F0FCF8F0BB20688F
:102E40004169806900902A4620460A9900F070F98D
:102E500040B1206C04283AD12068016841F4007127
:102E6000016034E0FEB2B8F1010F09D02168380AE0
:102E700008612A4620460A9900F05AF90028E8D14C
:102E8000206806612A4620460A9900F051F9002878
:102E9000DFD12068016841F4807101600095002253
:102EA000594620460A9B00F091F80028B3D12168CA
:102EB00009F0FF0040F00100086100E007E02B4648
:102EC000044920460A9A00F0B5F80028AAD001204B
:102ED000A8E70000020001002DE9F843044600685D
:102EE0000D46DDE9089701689846164641F4807161
:102EF00001604B4600224FF001112046009700F080
:102F000065F848B120680068C00502D54FF400702C
:102F100020640320BDE8F883216805F0FE00086105
:102F20003B464A461549204600F084F888B9206897
:102F30004169806900903A464946204600F0F8F819
:102F400048B1206C042804D12068016841F4007164
:102F500001600120DEE7F5B2B8F1010F09D0216868
:102F6000300A08613A464946204600F0E1F8002858
:102F7000E7D1206805610020CCE7000002000100D5
:102F800070B516460D4604460DE02046FFF799FE43
:102F900008B1012070BD681C05D0FEF72BFB801B1B
:102FA000A84207D835B120684069C0434007ECD437
:102FB000002070BD002044F8300F20216173A07301
:102FC000216941F0200121612073E2E72DE9F047FA
:102FD0001E4690460D460446C1F30747DDF8209093
:102FE00008E0701C06D0FEF705FBA0EB0900B0421C
:102FF0000FD876B12068012F18D0806925EA00002B
:103000000004000C14D000214145EAD00020BDE8A6
:10301000F087002044F8300F20216173A0732169EC
:1030200041F02001216120730120F0E74069E5E7CC
:103030000121E9E72DE9F0479A4691460E460446FC
:1030400000254FF02008C1F3074725E020684069BC
:10305000C043400514D42068016841F40071016048
:1030600021686FF480604861256384F83D8084F8AE
:103070003E50206C40F00400206484F83C501FE077
:10308000B9F1FF3F08D0FEF7B5FAA0EB0A014945B8
:103090000CD8B9F1000F09D02068012F13D0806936
:1030A00026EA00000004000C0BD0CFE744F8305FA4
:1030B00084F80D80A573206940F0200020612573FD
:1030C0000120BDE8F0874069EAE72DE9F0410025DD
:1030D00090460E460446202717E04069C043C006CC
:1030E0000CD454F8301B6FF01000486144F81059AC
:1030F0006777A577206A2062257717E0FEF77AFACE
:10310000A0EB0800B04208D83EB120684169C9432D
:103110004906E2D40020BDE8F08144F8305F6773CF
:10312000A573206940F02000206125730120F2E79B
:1031300070B516460D4604460DE02046FFF7C1FD6A
:1031400008B1012070BD681C05D0FEF753FA801B42
:10315000A84207D835B120684069C0430006ECD4C6
:10316000002070BD002044F8300F20216173A0734F
:10317000216941F0200121612073E2E72DE9FE4F32
:1031800000241D4691468A46834680274FF47A786C
:103190001BE0E019A84201D23E4600E02E46B1B243
:1031A00009EB0402CDE900210AEB040082B2CDF85C
:1031B00008801FFA8BF110230648FEF715FC002843
:1031C00006D134440A20FEF70FF9AC42E1D30020C7
:1031D000BDE8FE8F3CAA01202DE9FE4F00271D46C9
:1031E00091460E468246B8461EE000BF06F03F00FC
:1031F000C0F14004AC4200DB2C466422A1B209EBD2
:1032000007008DE807001FFA8AF1102332460948AB
:10321000FEF7E6FC5FEA000808D1301986B22D1BE4
:1032200027440A20FEF7E0F8002DDFDC4046BDE829
:10323000FE8F00003CAA01202DE9F04186B0142148
:103240006846FDF719F83C480024016841F0020186
:103250000160016801F002010591016841F0080177
:103260000160016801F008010591016841F08001E9
:103270000160016801F080010591016841F48071ED
:103280000160016801F480710591016841F001015C
:103290000160016801F001010591016841F0400100
:1032A00001600068254F00F04000059000224FF4B7
:1032B0007F513846FEF799F9DFF884800022032118
:1032C0004046FEF792F941F60160CDE900046946F7
:1032D0001C480294FEF79AF84FF44040CDE90004F0
:1032E000694638460294FEF791F80226CDE900645B
:1032F000694615480294FEF789F801253003CDE9A7
:103300000005CDE9025469463846FEF77FF84FF4D0
:10331000FE5003948DE8610069463846FEF776F862
:10332000032003948DE8610069464046FEF76EF87D
:1033300006B0BDE8F081000030380240001C0240B9
:1033400000180240000C024000200240144810B552
:10335000124901601349416000214FF480428160AD
:10336000C0E9031241618161C1610162FEF788F920
:1033700008B1FEF726F800210948FEF741F908B127
:10338000FEF71FF800210648FEF75BF9002803D07E
:10339000BDE81040FEF715B810BD00000054004015
:1033A0003CAA0120A086010010B586B00024174871
:1033B000009401940294039404944FF08041059486
:1033C00001604AF6C771C0E901144FF47A71C0E98F
:1033D000031480218161FFF799F808B1FDF7F1FF2F
:1033E0004FF48050009069460848FFF7DBF808B1B9
:1033F000FDF7E7FF049404A904480594FFF73EF89D
:10340000002801D0FDF7DDFF06B010BD90AA012015
:1034100010B586B0002417480094019402940394D8
:1034200004941349059401604AF6C771C0E9011478
:103430000121C0E9031480218161FFF767F808B119
:10344000FDF7BFFF4FF48050009069460948FFF731
:10345000A9F808B1FDF7B5FF049404A9054805943F
:10346000FFF70CF8002801D0FDF7ABFF06B010BD48
:1034700000040040D0AA01200C4810B50A490160A0
:103480004FF4E1314160002181600C22C160C0E94C
:1034900004128161C161FFF733FA002803D0BDE84F
:1034A0001040FDF78EBF10BD0010014010AB012091
:1034B0000C4810B50A4901604FF4E1314160002128
:1034C00081600C22C160C0E904128161C161FFF713
:1034D00017FA002803D0BDE81040FDF772BF10BDF9
:1034E0000044004050AB01200C4810B50A4901606F
:1034F0004FF4E1314160002181600C22C160C0E9DC
:1035000004128161C161FFF7FBF9002803D0BDE817
:103510001040FDF756BF10BD0048004090AB0120A1
:10352000FEE770472DE9F0410F46044616464DA1CF
:10353000574800F04DFD574D28780028544806D0D4
:10354000FCF7A5FE0146524804F006FA07E0FCF736
:103550009EFE82B2FF234E494F48FFF753FB22469F
:103560004EA14B4800F034FD28780028484806D08A
:10357000FCF78DFE0146464804F0EEF907E0FCF743
:1035800086FE82B2FF2342494348FFF73BFB0024FB
:103590004BE0A0061AD10A20FDF726FFA20941A19F
:1035A0003B4800F015FD28780028394806D0FCF784
:1035B0006EFE0146364804F0CFF907E0FCF767FEDF
:1035C00082B2FF2332493448FFF71CFBA006B0F15A
:1035D0007C4F02D0701E844201D12CA300E033A3A3
:1035E0003A5D0A2A04D00D2A04D0FF2A04D004E050
:1035F0004E2202E0522200E046222DA1244800F093
:10360000E7FC28780028224806D0FCF740FE014657
:103610001F4804F0A1F907E0FCF739FE82B2FF234E
:103620001B491D48FFF7EEFA641CB442B1D322A136
:10363000174800F0CDFC28780028154807D0FCF783
:1036400026FEBDE8F0410146114804F085B9FCF7BB
:103650001EFEBDE8F04182B2FF230D490E48FFF780
:10366000D1BA00000D0A2A2A2A2A2A2A2A2A2A2A14
:103670002A2A2A205052494E542043484152202A97
:103680002A2A2A2A2A2A2A2A2A2A2A2A0D0A00002B
:103690008C9D0120A904002090AB012025733A0DD8
:1036A0000A00000025303858203A200000000000B1
:1036B00025632573000000002A2A2A2A2A2A2A2A9A
:1036C0002A2A2A2A2A205052494E5420454E442064
:1036D0002A2A2A2A2A2A2A2A2A2A2A2A2A2A0D0A87
:1036E000000000002DE9F0410F460446164643A1B4
:1036F0004D4800F06DFC4D4D287800284A4806D012
:10370000FCF7C5FD0146484804F026F907E0FCF740
:10371000BEFD82B2FF2344494548FFF773FA2246B3
:1037200044A1414800F054FC287800283E4806D0C7
:10373000FCF7ADFD01463C4804F00EF907E0FCF74C
:10374000A6FD82B2FF2338493948FFF75BFA00240F
:1037500037E023461A4639A1334800F039FC28786F
:103760000028314806D0FCF792FD01462E4804F0AF
:10377000F3F807E0FCF78BFD82B2FF232A492C48BF
:10378000FFF740FA3A5D2FA11346274800F020FCCE
:1037900028780028244806D0FCF779FD0146224805
:1037A00004F0DAF807E0FCF772FD82B2FF231E494D
:1037B0001F48FFF727FA200702D13220FDF714FE39
:1037C000641CB442C5D322A1174800F001FC28783C
:1037D0000028154807D0FCF75AFDBDE8F041014626
:1037E000114804F0B9B8FCF752FDBDE8F04182B2CF
:1037F000FF230D490E48FFF705BA00000D0A2A2ADB
:103800002A2A2A2A2A2A2A2A2A2A2A205052494E91
:10381000542044415441202A2A2A2A2A2A2A2A2A80
:103820002A2A2A2A0D0A00008C9D0120A9040020C2
:1038300090AB012025733A0D0A00000025752C2558
:1038400023582C0025752C2523580D0A0000000054
:103850002A2A2A2A2A2A2A2A2A2A2A2A2A20505284
:10386000494E5420454E44202A2A2A2A2A2A2A2A06
:103870002A2A2A2A2A2A0D0A000000002DE9F041EE
:103880000F460446164647A1514800F0A1FB514D92
:10389000287800284E4806D0FCF7F9FC01464C4831
:1038A00004F05AF807E0FCF7F2FC82B2FF23484923
:1038B0004948FFF7A7F9224648A1454800F088FB90
:1038C00028780028424806D0FCF7E1FC0146404831
:1038D00004F042F807E0FCF7DAFC82B2FF233C492F
:1038E0003D48FFF78FF900243FE020071AD10A2056
:1038F000FDF77AFD22093BA1354800F069FB2878E5
:103900000028334806D0FCF7C2FC0146304804F0DA
:1039100023F807E0FCF7BBFC82B2FF232C492E48BA
:10392000FFF770F92007B0F1704F02D0701E84428B
:1039300001D12EA300E02EA33A5D2EA1244800F071
:1039400047FB28780028224806D0FCF7A0FC014657
:103950001F4804F001F807E0FCF799FC82B2FF234E
:103960001B491D48FFF74EF9641CB442BDD324A186
:10397000174800F02DFB28780028154807D0FCF7E1
:1039800086FCBDE8F0410146114803F0E5BFFCF7B5
:103990007EFCBDE8F04182B2FF230D490E48FFF7DF
:1039A00031B900000D0A2A2A2A2A2A2A2A2A2A2A72
:1039B0002A2A2A205052494E5420484558202A2A63
:1039C0002A2A2A2A2A2A2A2A2A2A2A0D0A00000012
:1039D0008C9D0120A904002090AB012025733A0D95
:1039E0000A00000025303858203A20000D0A000057
:1039F0002000000030782530325825730000000088
:103A00002A2A2A2A2A2A2A2A2A2A2A2A2A205052D2
:103A1000494E5420454E44202A2A2A2A2A2A2A2A54
:103A20002A2A2A2A2A0D0A0070477047FEF7A4B9ED
:103A300030B593B030216846FCF71EFC14210CA869
:103A4000FCF71AFC1B480025016841F08051016019
:103A5000006800F0805011901748016841F440411F
:103A600001600068022400F44040119001200090A1
:103A7000000401908001CDE90640142008904FF425
:103A8000B470CDE9090404200B906846FEF732FBC0
:103A9000FEF70CFA0CA90F2081E831004FF4A0507A
:103AA0000F90E002109005210CA8FEF737FA13B032
:103AB00030BD0000403802400070004004480168FA
:103AC00041F4700101600249024880390860704782
:103AD00088ED00E0000018080148FEF7CFBD0000A7
:103AE00090AA01200148FEF7C9BD0000D0AA01201C
:103AF000F0B50268254C264D264E274F274B4FF038
:103B0000804CA04209D0604507D0A84205D0B04201
:103B100003D0B84201D0984204D122F0700E4A6816
:103B200042EA0E02A0421BD0604519D0A84217D02D
:103B3000B04215D0B84213D0984211D0184DA842C7
:103B40000ED0184DA8420BD0174DA84208D0174DE3
:103B5000A84205D0164DA84202D0164DA84203D166
:103B600022F44075CA682A434D6922F080022A4334
:103B700002608A68C2620A688262A04201D09842EA
:103B800001D10969016301214161F0BD00000140DB
:103B90000004004000080040000C00400004014008
:103BA000004001400044014000480140001800402E
:103BB000001C00400020004010B5846842EA032247
:103BC00024F47F440A432243826010BD826822F0BD
:103BD00070020A4342F007018160704710B5036A22
:103BE000046A24F001040462846924F0F00444EAC5
:103BF000021423F00A020A438461026210BD10B568
:103C0000036A23F0100303628369046A23F4704398
:103C100043EA023224F0A00343EA01118261016207
:103C200010BD10B5806B0021C185C184FEF7DDFD9C
:103C300010BD0168CA6822F49072CA6001684A69BE
:103C400022F001024A61202180F83A10704710B535
:103C500090F83A10222901D0022010BD8168B1F5F8
:103C6000805F11D00169002901681FD0496801F007
:103C70007F03816A4A1C82620B70C18D491E090450
:103C8000090CC18518D02BE00269816A002A0268FC
:103C9000526805D0D2B20A80816A491C8162ECE781
:103CA000C2F308020A80816A891CF7E74A68816AC0
:103CB0004B1C83620A70E0E70168CA6822F02002A8
:103CC000CA600168CA6822F48072CA6001684A69E1
:103CD00022F001024A61202180F83A10FEF758FFD5
:103CE000002010BD2DE9F041044600680169E2683A
:103CF00021F44051114301612169A068E269084340
:103D00006169114308432168CA6849F20C639A4308
:103D10000243CA6020684169A26921F440711143DD
:103D20004161E069192764253226B0F5004F354A14
:103D3000354920684FF0000806D0884201D09042F3
:103D400036D1FEF795F935E0884201D0904202D194
:103D5000FEF78EF901E0FEF77BF961684A18A0FBD7
:103D6000070148EB0803FCF73DFA0146B0FBF5F00C
:103D70000201B1FBF5F06FF01803584301EB80002E
:103D800006EBC000B0FBF5F000F0F80002EB4002DB
:103D9000B1FBF5F0584301EB800006EBC000B0FB2F
:103DA000F5F000F00700216810448860BDE8F0815C
:103DB000FEF74EF961688B0F8A00A0FB0701FCF744
:103DC00011FA0146B0FBF5F06FF01802504301EB19
:103DD000800006EB0010B0FBF5F000F0F002B1FB44
:103DE000F5F002EB0012B1FBF5F06FF01803584349
:103DF00001EB800006EB0010B0FBF5F000F00F00C7
:103E0000D1E70000001401400010014090F8391083
:103E1000212901D0022070478168B1F5805F016AD5
:103E20000BD04A1C0262026809785160C18C491E9D
:103E30000904090CC1840ED017E009880268C1F397
:103E40000801516001690029016A02D0491C016220
:103E5000ECE7891CFBE70168CA6822F08002CA60AF
:103E60000068C16841F04001C160002070472DE941
:103E7000F041984617460E460446069D1DE0681C14
:103E80001BD02DB1FDF7B6FBA0EB0800A84214D95A
:103E90002068C16821F4D071C1602068416921F0B7
:103EA00001014161202084F8390084F83A000020A3
:103EB00084F838000320BDE8F0812068006836EA05
:103EC000000004D00020B842D9D00020F3E7012040
:103ED000F9E700000148FEF789BC000010AB0120A3
:103EE00070B51A4C1A4920680968884228D11949C6
:103EF000097829B3C168184D890608D50168890673
:103F000005D54068C1B22868006803F0D2FC20687B
:103F1000C16809060CD50068000609D52868406804
:103F200003F0BFFC28B12068C16821F08001C160A6
:103F300070BD2868406803F0DCFC2168486070BDF3
:103F4000BDE870400248FEF751BC000090AB012074
:103F500050AB0120A9040020B414002070B518480B
:103F6000007838B3174D2868C168174C890608D502
:103F70000168890605D54068C1B22068006803F071
:103F800098FC2868C16809060CD50068000609D5A8
:103F90002068406803F085FC28B12868C16821F0DA
:103FA0008001C16070BD2068406803F0A2FC2968F0
:103FB000486070BDBDE870400248FEF717BC0000C5
:103FC000A904002090AB0120B4140020FEE70000FB
:103FD0000FB4084B10B504A902AA039800F0FAF830
:103FE000044602A9002000F08CFC204610BC5DF8BD
:103FF00014FB0000034918080907090E002804DB18
:1040000000F1E02080F80014704700F00F0000F18C
:10401000E02080F8141D704700487047CC14002041
:1040200002E008C8121F08C1002AFAD17047704781
:10403000002001E001C1121F002AFBD170470000DF
:104040002DE9FF5F82B00021DDE90430020DDDF8CB
:1040500040B0034318D044F61050A2F2FF3242435E
:104060001514119801281FD0A5EB0B00401C5FEA26
:10407000000A4FF000064E4FDFF83891B046504628
:1040800015D5CAF1000413E0119801244AA30128B0
:1040900001D16FEA0B010298119AC0E90031C0E921
:1040A000024206B0BDE8F09FCBF10000DFE7044616
:1040B0000021404A491842EB0450CDE9001012E0BB
:1040C000E00707D032463B4640464946FCF7EFFB47
:1040D0008046894632463B4610461946FCF7E7FBC8
:1040E00006460F466410002CEAD1DDE90401DDE943
:1040F0000023BAF1000F06DAFCF7D9FB42464B4623
:10410000FCF7D5FB05E0FCF744FC42464B46FCF7C8
:1041100040FC04460E460022284BFCF7DDFE03D887
:104120004FF0FF30014607E00022254B2046314684
:10413000FCF706FEFCF7B7FE102409E0002C0ADBB2
:104140000A220023FCF74EF8039B30321A55641EF6
:1041500050EA0102F2D1641C039AC4F11103144421
:10416000119A012A03D0012208430DD10AE0084325
:1041700004D000204FF0110B119072E7A3EB0B0558
:104180006D1E0DE05B4504DD4FF0000205F10105F9
:1041900004E003DA4FF00002A5F10105002AECD09B
:1041A00002981199C0E90231C0E9004579E70000A1
:1041B000000014400000F03F300000000000F04319
:1041C0000000E03F30380A2801D20120704700206B
:1041D000704700002DE9FF4F95B09B468946064683
:1041E00000250FE2252877D100242746F84A01212F
:1041F000059400E0044316F8013F203B01FA03F068
:104200001042F7D130782A2811D06FF02F03307880
:10421000A0F13002092A16D8059A44F0020402EBF4
:10422000820203EB42021044761C0590EFE759F836
:10423000042B0592002A03DA504244F400540590FE
:1042400044F00204761C30782E2816D116F8010F9F
:1042500044F004042A280DD06FF02F023078A0F12A
:104260003003092B09D807EB870302EB4303C71878
:10427000761CF3E759F8047B761C30786C280FD055
:1042800006DC4C2817D068280DD06A2814D104E029
:10429000742810D07A280FD10DE044F400140AE0FD
:1042A00044F4801401E044F440147278824202D154
:1042B00004F58014761C761C307866280BD013DC4D
:1042C000582877D009DC002875D04528F6D0462834
:1042D000F4D047281AD19DE118E0632835D064282E
:1042E00079D0652812D195E1702873D008DC672851
:1042F000F1D069286FD06E280DD06F2806D1B5E0B7
:1043000073282CD0752875D0782874D05A46179900
:1043100090476D1C75E1C4F30250022809D00328B0
:104320000DD0D9F8001004280DD00D6009F1040952
:1043300067E1D9F80010EA17C1E90052F6E7D9F8A9
:1043400000100D80F2E70D70F0E719F8041B8DF8EE
:10435000001000208DF80100EA46012003E059F822
:1043600004AB4FF0FF3061074FF0000102D40DE0C5
:1043700008F101018846B9420FDA8045F8DB1AF8E6
:1043800008100029F4D108E008F1010188468142B3
:10439000FADB1AF808100029F6D105985B46A0EB65
:1043A000080721463846179A00F094FA284400EB93
:1043B000080507E04DE029E10DE01AF8010B5A4627
:1043C00017999047B8F10108F7D25B462146384665
:1043D000179A13E142E00A220092C4F302524FF00E
:1043E000000A022A08D059F804CB032A4FEAEC71DC
:1043F0000AD00DE029E02AE009F1070121F00702C7
:10440000F2E802C1914609E00FFA8CFC4FEAEC7128
:10441000042A03D14FFA8CFC4FEAEC71002907DA29
:104420000A460021DCF1000C61EB02012D2202E0C2
:10443000220504D52B228DF80420012203E0E20797
:1044400001D02022F7E7904659E00A2102E010222D
:104450000DE010214FF0000A00910BE010224FF008
:10446000000A44F004040827009203E008224FF0F9
:10447000000A0092C4F30252022A05D059F804CB74
:104480000021032A08D009E009F1070121F0070201
:10449000F2E802C1914605E01FFA8CFC042A01D122
:1044A0000CF0FF0C4FF00008220728D5702806D02A
:1044B000009B83F0100353EA0A0305D00EE040226C
:1044C0008DF80420012208E05CEA010206D03022C7
:1044D0008DF804208DF8050002229046009B83F0A1
:1044E000080353EA0A030AD15CEA010201D1620718
:1044F00005D530228DF804204FF001087F1E582882
:1045000004D034A003900EA802900DE036A0F9E785
:1045100053466046009AFBF765FE84460398825C2A
:104520000298401E029002705CEA0100F0D10298ED
:1045300006A9081A00F1200A600702D524F4803485
:1045400000E00127574502DDA7EB0A0000E000204C
:1045500000EB0A01009005984144401A0590E003E1
:1045600006D45B462146179A059800F0B3F9054436
:10457000002706E001A85A46C05D179990476D1CB8
:104580007F1C4745F6DBE0030CD55B462146179AB6
:10459000059800F09FF9054404E030205A46179929
:1045A00090476D1C0099481E00900029F5DC08E03A
:1045B000029802995A460078491C0291179990472F
:1045C0006D1CBAF10001AAF1010AF1DC65E10000FD
:1045D00009280100303132333435363738396162D9
:1045E000636465660000000030313233343536379D
:1045F00038394142434445460000000000F058F974
:104600000544761C307800287FF4ECAD19B02846BC
:10461000BDE8F08F620700D4062709F1070222F0F7
:10462000070CFCE80223E14603F000485FEA080CAF
:1046300002D00FF2702C0DE05FEA045C02D50FF29D
:10464000682C07E05FEAC47C02D00FF2602C01E026
:10465000AFF2700C4FF0FF3823F00043CDF850C09C
:1046600065280CD006DC452809D046281DD04728EF
:104670003DD13DE0662818D067287ED138E0002182
:10468000112F01DB112000E0781CCDE9000106A903
:104690000EA8FFF7D5FCDDE90F010E9A039100216A
:1046A000009207F1010A04914DE04FF0004000979D
:1046B000CDE9011006A90EA8FFF7C2FCDDE90F0243
:1046C00003920E9B11990022DDF80CA00093049236
:1046D00011B9791C00EB010AB7EB0A0004D4C0F150
:1046E000FF3007F1010A0490AAEB0700019044E0B3
:1046F000012F00DA01270021112F01DD112000E038
:104700003846CDE9000106A90EA8FFF799FCDDE9BE
:104710000F010E9A0391002104910092BA462107DD
:104720000CD40399514500DA8A46BAF1010F05DD30
:10473000009AAAF10101515C302908D0B84202DA8E
:1047400010F1040F06DA0121CDE9011015E0AAF1FC
:104750000101E9E7002805DC049901440491AAEB72
:10476000000102E0411C514500DD8A460499401ACF
:10477000401C01904FF000400290200704D40198A3
:10478000504501DBCDF8048000208DF84F000298E1
:104790000DF14F07B0F1004F25D02B200E9002985D
:1047A0004FF0020800280CDA404202902D200E90B3
:1047B00007E00A210298FCF78BF93031029007F8E4
:1047C000011DB8F10001A8F10108F2DC02980028EF
:1047D000EFD1791E0E980870307800F0200040F07C
:1047E000450007F8020D12A8C01B00F10708149835
:1047F000007800B1012000EB0A01019801EBE071A3
:1048000005984144401A401E0590E00306D45B46DB
:104810002146179A059800F05DF805441498007831
:1048200018B15A46179990476D1CE00324D55B4692
:104830002146179A059800F04DF805441CE00498AD
:10484000002807DBDDE90301884203DD0098405CB6
:10485000179901E0179930205A469047049805F1BE
:104860000105401C04900198401E019004D12E20A7
:104870005A46179990476D1CBAF10001AAF1010A36
:10488000DDDC05E017F8010B5A46179990476D1CBF
:10489000B8F10001A8F10108F4DC5B462146179A43
:1048A0000598ABE62D0000002B0000002000000062
:1048B0002DE9F041044600251E461746880404D41D
:1048C00005E039462020B0476D1C641EF9D5284606
:1048D000BDE8F0812DE9F041044600251E469046D2
:1048E000C80301D5302700E02027880404D505E05F
:1048F00041463846B0476D1C641EF9D52846BDE8D0
:10490000F0810A68531C0B601070704770B50C463C
:104910000546042802D0022817D01BE012A16068C7
:10492000FBF7ECFC28B112A16068FBF7E7FC30B1A3
:1049300010E021462846BDE8704002F091BB2146B8
:104940002846BDE8704002F02FBB0BA16068FBF762
:10495000D5FC20B1206800F003FA002070BDBDE84E
:10496000704002F0CDBA00007772697465000000F3
:10497000726561640000000064756D7000000000E5
:1049800070B50C46054605280BD0042D15D0032D17
:104990001ED0052D34D37DA16068FBF7AFFC18B3A2
:1049A00030E07BA16068FBF7A9FC0028F3D1214629
:1049B0002846BDE8704001F04FB876A16068FBF76B
:1049C0009DFCF8B921462846BDE8704001F02CBD99
:1049D00071A16068FBF792FC00285FD12146284650
:1049E000BDE8704002F03AB802226EA1A068FBF761
:1049F0009AFC38B921462846BDE8704000F086BDD3
:104A0000042D04D361A16068FBF778FC70B1022D1E
:104A100012D0032D42D0042D7DD0022D35D962A1B4
:104A20006068FBF76BFC002876D02EE02146284614
:104A3000BDE8704000F014BC5CA16068FBF75EFC50
:104A400040B35DA16068FBF759FC00287AD05CA1F7
:104A50006068FBF753FC00287AD05BA16068FBF725
:104A60004DFC002852D05BA16068FBF747FC002892
:104A70007AD05EA16068FBF741FC002878D062A183
:104A80006068FBF73BFC002876D0206800F068F9EE
:104A9000002070BDBDE8704000F0C0BD5DA1606841
:104AA000FBF72CFC28B15DA16068FBF727FC30B157
:104AB0000AE021462846BDE8704001F0D9B858A167
:104AC000A068FBF71BFC28B157A16068FBF716FC38
:104AD00030B10AE021462846BDE8704001F046BDED
:104AE0004FA1A068FBF70AFCD0B151A16068FBF7A9
:104AF00005FC98B334A16068FBF700FC00288ED158
:104B00004EA1A068FBF7FAFB002888D12146284671
:104B1000BDE8704002E009E032E013E001F042BD80
:104B200021462846BDE8704001F004BD46A16068FA
:104B3000FBF7E4FB0028E2D121462846BDE870409F
:104B400001F066B821462846BDE8704001F090BAF1
:104B500021462846BDE8704000F03EBF2146284669
:104B6000BDE8704001F0CABCBDE8704002F07AB9FF
:104B7000BDE8704002F0F0B8BDE8704001F024BA22
:104B800021462846BDE8704001F0E4BF63616C0037
:104B90006461630070696E007377697463685F694C
:104BA0006F000000737700007461670063686563DD
:104BB0006B5F63616C6900006D6F6E69746F72008A
:104BC000637263333200000073656E645F686578FA
:104BD00000000000757067726164655F626F6F74DA
:104BE0006C6F616465725F6D6F646500757067728C
:104BF0006164655F626F6F746C6F616465725F6939
:104C00006E7374616C6C0000696E7465725F6578B8
:104C10007000000064756D70000000006677000091
:104C2000726573657400000063616C6900000000C8
:104C30007072696E745F6865780000006E6F5F6304
:104C40006865636B000000006461633535303400D3
:104C50002DE9F04786B02022102101A8FBF705FBC3
:104C60000024DFF8C8900DF1040A314D314F56E0B1
:104C700004EB840605EB86082FA1D8F80C00FBF79F
:104C80000DFB00284AD055F82600FBF700FBC0F1C9
:104C90000C0100220AF801202AA12C48FFF798F9FC
:104CA00099F800000028294806D0FBF7F0FA0146E1
:104CB000264802F051FE07E0FBF7E9FA82B2FF2333
:104CC00022492348FDF79EFFD8F80800009055F8C8
:104CD000262001AB1FA11D48FFF77AF999F80000C3
:104CE00000281A4806D0FBF7D2FA0146174802F00E
:104CF00033FE07E0FBF7CBFA82B2FF2313491448D7
:104D0000FDF780FF55F82600FBF7C1FAC0F10C0152
:104D100020220AF801201E20FCF766FB641C38687C
:104D20008442A5D306B00020BDE8F087A904002086
:104D300008040020D07E1808494E5445524E414C7C
:104D400000000000636D643A200000008C9D01208B
:104D500090AB0120257325732D2025730D0A0000CB
:104D60002DE9F04107460026534D544C09E000BFA1
:104D700006EB8600394655F82000FBF7BFFA30B144
:104D8000761C20688642F3D30020BDE8F0814CA158
:104D90004D48FFF71DF94D4C207800284A4806D0B1
:104DA000FBF775FA0146484802F0D6FD07E0FBF72D
:104DB0006EFA82B2FF2344494548FDF723FF06EB14
:104DC000860644A155F826203F48FFF701F92078D0
:104DD00000283D4806D0FBF75AFA01463A4802F04F
:104DE000BBFD07E0FBF753FA82B2FF233649384890
:104DF000FDF708FF39A13448FFF7EAF820780028CA
:104E0000314806D0FBF743FA01462F4802F0A4FDD3
:104E100007E0FBF73CFA82B2FF232B492C48FDF751
:104E2000F1FE05EB86052BA12748EA68FFF7D0F8CD
:104E300020780028244806D0FBF729FA01462248AA
:104E400002F08AFD07E0FBF722FA82B2FF231E4937
:104E50001F48FDF7D7FE25A11B48FFF7B9F82078BA
:104E60000028194806D0FBF712FA0146164802F04E
:104E700073FD07E0FBF70BFA82B2FF2312491448D7
:104E8000FDF7C0FE13A110482A69FFF7A1F82078AA
:104E900000280D4806D0FBF7FAF901460A4802F04F
:104EA0005BFD71E7FBF7F3F982B2FF23064908487F
:104EB000FDF7A8FE68E7000008040020D07E18086F
:104EC000636D643A200000008C9D0120A90400203D
:104ED00090AB012025730D0A000000002020202047
:104EE0002075736167653A20202000002020202073
:104EF000206578616D706C653A2000002DE9FE4FE9
:104F0000DFF8F090DFF8F0A00C464FF064080428BA
:104F100002D006282FD033E038A16068FBF7EEF905
:104F200070BB00221146A068FBF788FC4006050E06
:104F300000221146E068FBF781FC84B22346314A27
:104F400029462C48CDF80080FCF75EFC3FE000BF0E
:104F5000FBF79DF901462C4802F0FEFC08E000BF7B
:104F6000FBF795F982B2FF2327492848FDF74AFE4F
:104F70000120BDE8FE8F21A16068FBF7BFF920B1D9
:104F80002068FFF7EDFE0020F3E700221146A0683D
:104F9000FBF754FC4006070E00221146E068FBF7C1
:104FA0004DFC86B2002211462069FBF747FC85B212
:104FB000002211466069FBF741FC84B21149334677
:104FC0008DE812012A4639460A48FCF70DFD58B112
:104FD000D9F840200EA10C48FEF7FAFF9AF800001D
:104FE00000280948BCD0B3E7224606490FA0FEF7C7
:104FF00045FCC8E73CAA0120A90400207265616451
:1050000000000000D01400208C9D012090AB0120F6
:10501000493263206661696C65642C206572724355
:105020006F6465203D202523580D0A004932630036
:1050300070B50C46086810A1FBF760F9104D48B137
:1050400010A12068FBF75AF958B12068FFF788FED5
:10505000002070BD012211462846FCF7C6FA012245
:1050600005E0002201212846FCF7BFFA00220221B8
:105070002846FCF7BAFAEBE7706F7765726F6E003F
:1050800000180240706F7765726F6666000000005E
:1050900010B50C46022802D0032814D02AE01CA127
:1050A0006068FBF72BF950B11BA16068FBF726F98C
:1050B000C8B11BA16068FBF721F920B31AE0BDE875
:1050C000104002F019BE12A16068FBF717F928B171
:1050D00011A16068FBF712F938B10BE0A068BDE8D8
:1050E000104002F053BE012009E00FA1A068FBF7B9
:1050F00005F920B12068FFF733FE002010BDBDE8A0
:10510000104002F075BCBDE8104002F0AFBE0000D8
:10511000696E69740000000066696C65000000003B
:10512000696E7374616C6C006E6F5F766572696630
:1051300079000000F8B50C4633490022334F0A636A
:10514000334D4A63022806D001282DD92068FFF785
:1051500007FE0020F8BD2FA16068FBF7CFF80028FC
:10516000F4D141F287342D4B082203F596613020AB
:10517000009702F0ADF9060014D0224628A13AE0CB
:10518000FBF785F80146294802F0E6FB08E000BF7E
:10519000FBF77DF882B2FF2324492548FDF732FD55
:1051A0003046F8BD641EDED21C4B082203F5966122
:1051B0003020009702F08CF90600F2D1174C1DA1A7
:1051C0001D3422461948FEF703FF287800281748A7
:1051D00006D0FBF75CF80146144802F0BDFB07E07F
:1051E000FBF755F882B2FF2310491148FDF70AFD7D
:1051F00004F11D0214A10D48FEF7EAFE28780028EC
:105200000A48C5D0BCE700005099012004000020E6
:10521000A90400207265706561740000D0940120BB
:1052200069203D2025750D0A000000008C9D01209D
:1052300090AB012050617274204E756D6265723AB8
:105240002025730D0A0000004669726D7761726552
:105250002056657273696F6E3A2025730D0A00003F
:105260002DE9F0412DED028B84B0754F0C460428DA
:1052700002D0052833D050E072A1A068FBF73EF8B9
:10528000C8B173A1A068FBF739F8B8B173A1A068E1
:10529000FBF734F8B8B173A1A068FBF72FF8A8B1F9
:1052A00073A1A068FBF72AF898B174A1A068FBF776
:1052B00025F888B131E04FF4807601E04FF4827632
:1052C0000125E0684CE04FF48476F9E74FF48676E8
:1052D000F6E74FF48876F3E74FF48A76F0E76AA1B1
:1052E000A068FBF70BF84FF0FF38D0B169A1A068B8
:1052F000FBF704F8C8B369A1A068FAF7FFFF9FEDB8
:105300006A8B98B36AA1A068FAF7F8FF78B36BA12B
:10531000A068FAF7F3FF002865D02068FFF720FDAA
:105320008CE04FF48C7625E0FAF7B1FF0146654832
:1053300002F012FB08E000BFFAF7A9FF82B2FF23D8
:1053400060496148FDF75EFC012004B0BDEC028BB2
:10535000BDE8F0815DA12069FAF7D0FFC8B32069EC
:105360006A465CA1FAF7F8FF42E001E00CE024E0B5
:105370004FF49C7600221146E068FBF75FFA0500C7
:1053800026D0082D24DCE5E74FF4AC7617E04FA1DA
:105390002069FAF7B3FFE0B102AA4FA12069FAF73A
:1053A000DBFF9DED020B53EC182B51EC100BFBF7C0
:1053B0007EFAFBF76EFB00901AE04FF4177600229E
:1053C0001146E068FBF73AFA050001D0402DDEDD1A
:1053D00000E00BE041A13B48FEF7FAFD38780028D9
:1053E0003848A9D0A0E74FF45876E8E7CDF8008018
:1053F00006EB8500001F81B20098042300BA0090DC
:105400006A46A220FDF7E8FEC0B13848026C38A118
:105410002C48FEF7DDFD387800282A4806D0FAF738
:1054200036FF0146274802F097FA07E0FAF72FFF08
:1054300082B2FF2323492448FDF7E4FB002084E7E0
:10544000A9040020746573745F74797065000000AE
:10545000746573745F636F756E740000696E5F745A
:1054600079706500696E5F636F756E74000000008F
:105470006F75745F74797065000000006F75745FFC
:10548000636F756E74000000746573745F77617686
:1054900065000000696E5F776176650074657374FE
:1054A000305F6F75740000000000000000408F4006
:1054B00074657374315F6F7574000000696E5F6F9F
:1054C000757400008C9D012090AB01206E6F6E659D
:1054D0000000000025640000256C6600496E7661BE
:1054E0006C696420696E6465780D0A003CAA01202D
:1054F000493263206661696C65642C206572724371
:105500006F6465203D202523580D0A00FEB50C462A
:10551000062805D1022232A1A068FAF704FF20B1C3
:105520002068FFF71DFC0020FEBDA0680A220021B4
:10553000801CFBF783F90546401E042819D329A1D6
:105540002E48FEF745FD2E48007800282B4806D04F
:10555000FAF79DFE0146294802F0FEF907E0FAF746
:1055600096FE82B2FF2325492648FDF74BFB01201A
:10557000FEBD0A220021E068FBF760F9064601AA99
:1055800021A12069FAF7E8FE02AA1FA16069FAF7D3
:10559000E3FE1E491E48FBF7EFFE1C490620091DCD
:1055A000FBF7EAFE194928460831FBF7E5FE1749E3
:1055B00030460C31FBF7E0FE144901981031FBF73F
:1055C000DBFE124902981431FBF7D6FE1148009019
:1055D000114B18220D496FF0004001F079FFFEBD1C
:1055E00073770000537769746368206E756D626528
:1055F0007220696E76616C69640D0A008C9D0120D1
:10560000A904002090AB01202564000080990120AE
:10561000A5A55A5A04000020D0940120F8B54FF4F3
:1056200080763346A14A4FF4AC71A220FDF7A6FD67
:105630009F4DA04CB8B12A6C9FA1A648FEF7C8FCAC
:1056400020780028A34806D0FAF721FE0146A14899
:1056500002F082F907E0FAF71AFE82B2FF239D49B1
:105660009D48FDF7CFFA102290499CA0FEF706F95D
:105670008E491022F0310F469FA0FEF7FFF8314609
:105680008A48FBF789FE02460090A2A19148FEF7E6
:105690009FFC207800288F4806D0FAF7F8FD0146D5
:1056A0008C4802F059F907E0FAF7F1FD82B2FF23C6
:1056B00088498948FDF7A6FA0098042300BA0090AB
:1056C0006A464FF41671A220FDF786FDB8B12A6C28
:1056D00079A18048FEF77CFC207800287D4806D020
:1056E000FAF7D5FD01467B4802F036F907E0FAF7F4
:1056F000CEFD82B2FF2377497748FDF783FA334620
:105700006A4A4FF41771A220FDF738FDB8B12A6C30
:1057100069A17048FEF75CFC207800286D4806D02F
:10572000FAF7B5FD01466B4802F016F907E0FAF703
:10573000AEFD82B2FF2367496748FDF763FA102286
:105740005A497CA0FEF79AF81022394680A0FEF74D
:1057500095F831465548FBF71FFE0246009083A19D
:105760005C48FEF735FC207800285A4806D0FAF746
:105770008EFD0146574802F0EFF807E0FAF787FD83
:1057800082B2FF2353495448FDF73CFA00980423A2
:1057900000BA00906A464FF45771A220FDF71CFD35
:1057A000B8B12A6C44A14B48FEF712FC20780028BF
:1057B000484806D0FAF76BFD0146464802F0CCF89F
:1057C00007E0FAF764FD82B2FF2342494248FDF741
:1057D00019FA3346354A4FF45871A220FDF7CEFC32
:1057E000B8B12A6C34A13B48FEF7F2FB20780028C0
:1057F000384806D0FAF74BFD0146364802F0ACF8BF
:1058000007E0FAF744FD82B2FF2332493248FDF740
:10581000F9F9102225495DA0FEF730F8102239462B
:1058200060A0FEF72BF831462048FBF7B5FD024695
:10583000009062A12748FEF7CBFB2078002825487E
:1058400006D0FAF724FD0146224802F085F807E069
:10585000FAF71DFD82B2FF231E491F48FDF7D2F95A
:105860000098042300BA00906A464FF48C61A2208D
:10587000FDF7B2FCB8B12A6C0FA11648FEF7A8FBE1
:1058800020780028134806D0FAF701FD0146114898
:1058900002F062F807E0FAF7FAFC82B2FF230D4942
:1058A0000D48FDF7AFF90020F8BD0000D01400202E
:1058B0003CAA0120A9040020493263206661696C7A
:1058C00065642C20657272436F6465203D2025233A
:1058D000580D0A008C9D012090AB0120466972731F
:1058E000742031362064617461206F662054455302
:1058F00054305F4F555400004C6173742031362092
:1059000064617461206F662054455354305F4F5575
:105910005400000054455354305F4F5554204352B7
:1059200043333220636F6465203A202523580D0AE3
:105930000D0A000046697273742031362064617468
:1059400061206F662054455354315F4F5554000019
:105950004C6173742031362064617461206F66205D
:1059600054455354315F4F5554000000544553542F
:10597000315F4F555420435243333220636F646587
:10598000203A202523580D0A0D0A0000466972733B
:10599000742031362064617461206F6620494E5F47
:1059A0004F5554004C61737420313620646174612A
:1059B000206F6620494E5F4F55540000494E5F4F9F
:1059C000555420435243333220636F6465203A209C
:1059D0002523580D0A0D0A001FB512A30FCB8DE821
:1059E0000F000E216846FBF7D7FC024611A11748AD
:1059F000FEF7EEFA164800780028144806D0FAF7A9
:105A000046FC0146114801F0A7FF07E0FAF73FFC0A
:105A100082B2FF230D490F48FDF7F4F804B00020CF
:105A200010BD00004142434445464748494A4B4C5B
:105A30004D4E0000435243333220726573756C74CF
:105A4000206973202523580D0A0000008C9D012039
:105A5000A904002090AB01202DE9FE430C46886884
:105A600050A1FAF74BFC504E58B102224FA1A0684A
:105A7000FAF759FC38B12068FFF772F90020BDE849
:105A8000FE83002522E0A0680A220021801CFAF78C
:105A9000D5FE0546401E072818D345A14A48FEF703
:105AA00097FA30780028484806D0FAF7F0FB01460C
:105AB000454801F051FF07E0FAF7E9FB82B2FF2306
:105AC00041494248FDF79EF80120D8E701AA40A1CC
:105AD000E068FAF741FCDFF8FC800198404503DDFF
